:020000040800F2
:10000000C8480020E9020008F71A00089D190008F6
:10001000F51A000843050008DD1D00080000000077
:10002000000000000000000000000000290200089D
:10003000210600080000000085020008611B00087E
:100040000303000803030008030300080303000878
:100050000303000803030008030300080303000868
:100060000303000803030008030300080303000858
:1000700099050008030300080303000803030008B0
:100080000303000803030008030300080303000838
:1000900045050008030300080303000803030008E4
:1000A0000303000803030008030300080303000818
:1000B0000303000803030008030300080303000808
:1000C00003030008030300080303000803030008F8
:1000D000030300080303000803030008291D0008A8
:1000E00003030008030300080303000803030008D8
:1000F00003030008030300080303000803030008C8
:1001000003030008030300080303000803030008B7
:1001100003030008030300080303000803030008A7
:100120000303000803030008030300080303000897
:100130000303000803030008030300080303000887
:100140000303000803030008030300080303000877
:100150000303000803030008030300080303000867
:100160000303000803030008030300080303000857
:100170000303000803030008030300080000000055
:10018000030300080303000800F002F800F03CF845
:100190000AA090E8000C82448344AAF10107DA45E2
:1001A00001D100F031F8AFF2090EBAE80F0013F0F8
:1001B000010F18BFFB1A43F0010318477C29000008
:1001C0009C290000103A24BF78C878C1FAD8520799
:1001D00024BF30C830C144BF04680C6070470000C1
:1001E0000023002400250026103A28BF78C1FBD840
:1001F000520728BF30C148BF0B6070471FB502F0DF
:1002000035FC1FBD10B510BD00F061F91146FFF7B8
:10021000F5FF01F029FE00F07FF903B4FFF7F2FFCC
:1002200003BC00F087F900002C4B19680868B0E89F
:10023000F04F80F30988BFF36F8F4FF0000080F319
:10024000118870470000000008480068006880F3CB
:1002500008884FF0000080F3148862B661B6BFF3DF
:100260004F8FBFF36F8F00DF00BF00BF08ED00E0CE
:10027000DFF80C00016841F470010160704700BFB5
:1002800088ED00E0EFF30980BFF36F8F134B1A681E
:100290001EF0100F08BF20ED108A20E9F04F10600B
:1002A00009B44FF0500080F31188BFF34F8FBFF3B4
:1002B0006F8F02F0EFF94FF0000080F3118809BC56
:1002C00019680868B0E8F04F1EF0100F08BFB0ECD6
:1002D000108A80F30988BFF36F8F704720000020D9
:1002E000EFF3058070470000094880470948004740
:1002F000FEE7FEE7FEE7FEE7FEE7FEE7FEE7FEE7D6
:10030000FEE7FEE704480549054A064B7047000032
:100310000D1C000889010008C8420020C8480020C0
:10032000C8440020C844002053EA020C00F0698051
:100330002DE9F04B4FF00006002B1FBFB3FA83F5F9
:1003400003FA05F424FA05F65E4012BF1643B2FA2A
:1003500082F502FA05F4C5F120051EBF22FA05FC5C
:1003600044EA0C04203556EA044C4FEA144418BF02
:10037000641C4FF000084FF00009904271EB030C31
:1003800039D3002919BFB1FA81F701FA07F6B0FA9B
:1003900080F700FA07F6C7F120071EBF20FA07FC16
:1003A00046EA0C062037B6FBF4FCA7EB0507103F26
:1003B00007F01F0BCBF120060CFA0BFB2CFA06F60C
:1003C00044BFB3460026202FA4BF5E464FF0000B6B
:1003D0005BEA060C08BF4FF0010B19EB0B09ABFBF6
:1003E000027C48EB0608C01B06FB02CC0BFB03CCCF
:1003F00071EB0C01C1E70B46024641464846BDE899
:10040000F08B13B54FF000004FF00001AFF3008008
:10041000BDE81C40704710B5203AC0F00B80B1E831
:100420001850203AA0E81850B1E81850A0E8185029
:10043000BFF4F5AF5FEA027C24BFB1E81850A0E832
:10044000185044BF18C918C0BDE810405FEA827C4C
:1004500024BF51F8043B40F8043B08BF7047D20763
:1004600028BF31F8023B48BF11F8012B28BF20F804
:10047000023B48BF00F8012B70474FF0000200B567
:10048000134694469646203922BFA0E80C50A0E8B7
:100490000C50B1F12001BFF4F7AF090728BFA0E865
:1004A0000C5048BF0CC05DF804EB890028BF40F831
:1004B000042B08BF704748BF20F8022B11F0804F73
:1004C00018BF00F8012B704770477047704775469A
:1004D00000F02CF8AE4605006946534620F00700B0
:1004E000854618B020B5FFF70DFFBDE820404FF05E
:1004F00000064FF000074FF000084FF0000B21F00E
:100500000701AC46ACE8C009ACE8C009ACE8C009DA
:10051000ACE8C0098D46704710B50446AFF30080C3
:100520002046BDE81040FFF778BE00000048704745
:100530006842002001491820ABBEFEE726000200F9
:100540007047FEE7014800F0E0B90000F00200202B
:1005500038B50E4C4FF4007525600025A560E560A8
:10056000082525610A4C050A25706070080AA070EC
:10057000E170100A20716271180AA071E3716B4674
:1005800022460249034800F060F838BDF8400020D8
:1005900091000020F0020020014800F0E7BB0000BD
:1005A0005C03002001681823CAB2103AB2FBF3F2D0
:1005B000054B6FF30901032A9B5CC36500D9091D34
:1005C0008165084670470000E82A000810B501461A
:1005D00000208B698A6A4FF0C07453B1B3F5005F95
:1005E00015D072B1012A0CD0022A0AD0032A09D1EF
:1005F00004E01AB1012A06D0022A03D1C96AC9014E
:1006000000D5012010BDC96AA142FAD010BD002A50
:10061000F7D0012AF2D0022AF3D0032AF3D010BD7A
:10062000704772B6FEE790F82020012A07D0022A10
:1006300005D0416A41F48021416201207047006881
:1006400042690A43426100207047F0B590F820509B
:100650000468A468012D05D0022D03D0416A41F43D
:10066000802153E014F0406F01D1E5004BD5C4F375
:100670000164022C03D9416A41F4000146E00125DE
:10068000A5401D608D684FF4C0739DB1CE683543A1
:100690004E6845EAC605066803EB0417F5514FF4AA
:1006A000C275076805EB04150E697E51097D0129A5
:1006B00005D009E00E88CD6845EA4655EBE70168AC
:1006C0004E5946F480764E511179D2F805504FF4C8
:1006D000C67641EA0525016806EB04168D511178AE
:1006E000D2F801204FF4C47541EA0221026805EBFB
:1006F00004155151006803EB0411425842F0010205
:1007000042500020F0BD416A41F4001141620120D5
:10071000F0BD000010B590F82020012A07D0022A71
:1007200005D0416A41F480214162012010BD3B485F
:10073000D0F8002242F00102C0F80022D0F80022D6
:1007400022F47C52C0F80022D0F800224B6A42EA20
:100750000322C0F800220A7D02F01F0301229A4002
:10076000D0F81C329343C0F81C32CB69B3B9D0F82F
:100770000C329343C0F80C328C894B6864F31F43EE
:100780004C6900EBC404C4F840320C890B6864F374
:100790001F434C6900EBC404C4F84432CB69012BFD
:1007A00016D1D0F80C321343C0F80C320C884B68C9
:1007B00064F31F434C6900EBC404C4F840320C8955
:1007C000CB6864F31F434C6900EBC404C4F84432A3
:1007D0008B69002BD0F804320ED01343C0F80432DA
:1007E0000B69002BD0F8143208D01343C0F8143230
:1007F000096A012904D008E09343EFE79343F5E742
:10080000D0F81C121143C0F81C12D0F8001221F0CD
:100810000101C0F80012002010BD0000006400407B
:10082000704730B590F82040012C05D0022C03D041
:10083000416A41F480215DE00468002955D02469B3
:10084000A40754D04FF4D874056804EB01142D5953
:1008500015F00405956005682D594ED0ED085560DA
:1008600005682C5904F00204D4604FF4DA7405686A
:1008700004EB01142D5905F00F05156105682D597C
:10088000C5F30725956105682C59240C54614FF474
:10089000DC72046802EB0112A4581C700468A458AE
:1008A000240A5C700468A458240C9C700468A25844
:1008B000120EDA704FF4DE72046802EB0112A458D3
:1008C0001C710468A458240A5C710468A458240CA0
:1008D0009C710468A258120EDA71006881B1016936
:1008E00041F020010161002030BDE468A8E7416AC1
:1008F00041F400114162012030BD6D0D1560AFE77C
:10090000C16841F02001C160EDE72DE9F05F0546C7
:10091000006800244669D0F804908768D0F80CB0CD
:10092000D0F810A0D0F81880F10748D0F90714D0FB
:1009300001218160B80703D5284600F010FA0CE0C9
:10094000780702D54FF4006407E0380702D54FF46A
:10095000805402E0284600F001FAF80516D529680F
:100960004FF480708860B80503D5284600F0F9F987
:100970000CE0780502D544F4005407E0380502D5B0
:1009800044F4804402E0284600F0EAF9F80316D562
:1009900029684FF480308860B80303D5284600F0FA
:1009A000E2F90CE0780302D544F4004407E0380390
:1009B00002D544F4803402E0284600F0D3F9300731
:1009C00007D55FEACB6004D52968102044F4007491
:1009D000C86070074FF0080707D55FEA0B7004D5B1
:1009E0002868C760284600F057F9B00706D5286880
:1009F000C068800702D0284600F050F9700607D57D
:100A00005FEACA6004D52968102044F48064086154
:100A1000B00607D55FEA0A7004D528680761284642
:100A200000F06CF9F00606D528680069800702D04E
:100A3000284600F064F9B00308D55FEAC96005D51F
:100A4000296810204860284600F05AF9F00307D5BD
:100A50005FEA097004D528684760284600F084F9E9
:100A6000300446D55FEA497040D5F00504D55FEA09
:100A7000C87001D044F00104B00504D55FEA887065
:100A800001D544F00204700504D55FEA487001D531
:100A900044F00404300529D518F0700F26D008F072
:100AA0007000402815D006DC102809D020280AD074
:100AB000302816D10AE050280ED0602811D10EE05F
:100AC00044F008040DE044F010040AE044F020046F
:100AD00007E044F0400404E044F0800401E044F402
:100AE00080742868816921F070018161296804207F
:100AF0004860002C05D0686A204368622846FFF7EA
:100B00008FFEBDE8F09F70B5040003D094F820007C
:100B100010B104E0012070BD204600F081F820688B
:100B2000016841F00101016000F052FB0546052615
:100B300004E000F04DFB401B0A2811D820684068F3
:100B4000C007F6D02068016821F00201016000F0C2
:100B50003FFB05460BE000F03BFB401B0A2806D993
:100B6000606A40F40030606284F82060D2E7206858
:100B700040688007EFD4207E0128206801683DD0BE
:100B800021F080010160607E01282068016838D072
:100B900021F040010160A07E01282068016833D067
:100BA00021F020010160E07E0128206801682ED03C
:100BB00041F010010160207F01282068016829D0E0
:100BC00021F008010160607F01282068016824D0BD
:100BD00021F004010160D4E902010843D4E90412C0
:100BE000114308436168491E08432168C861002019
:100BF0006062012084F82000002070BD41F0800177
:100C0000C0E741F04001C5E741F02001CAE721F00B
:100C10001001CFE741F00801D4E741F00401D9E722
:100C200010B586B0044614216846FFF726FC174924
:100C30002068884227D116480021026842F00072DD
:100C40000260006800F000700590114810380268DA
:100C500042F0080202600068022200F008000590DD
:100C60000320CDE90210CDE9000209200490694675
:100C7000084800F0B5F900220621142000F01AFB04
:100C8000142000F009FB06B010BD00000064004015
:100C900040380240000C02407047000010B58AB096
:100CA000044607AB6A460021FFF7BBFD10488442AB
:100CB0001CD10098A0F20120042817D80D49C0B219
:100CC00008700D4900EB800001EB400231F8103054
:100CD0009380BDF81C305BBA21F81030BDF81E00BF
:100CE00040BA5080BDF8200040BA10810AB010BD53
:100CF000F002002088000020AC40002070477047C0
:100D00007047000070B5044690F82000012804D018
:100D1000606A40F40020606218E0022084F820003D
:100D20002068016821F00101016000F051FA0546D8
:100D30000EE000BF00F04CFA401B0A2808D9606A98
:100D400040F400306062052084F82000012070BD6E
:100D500020684068C007EDD1606270BD7047704781
:100D60007047704770477047704700002DE9F8439F
:100D700004464FF00009CDF8009063484FF4165137
:100D8000A56D0068B0FBF1F72E6894F85C100820A0
:100D900000FA01F131420FD021680A6852070BD5E1
:100DA0000A6822F004020A6094F85C108840A86087
:100DB000606D40F00100606594F85C104FF0010830
:100DC00008FA01F0304208D021684969090604D5C3
:100DD000A860606D40F00200606594F85C1004202B
:100DE0008840304208D021680968890704D5A86086
:100DF000606D40F00400606594F85C10102088403D
:100E0000304218D021680968090714D5A860206805
:100E10000168490304D50068000308D5A16C07E008
:100E20000168C90503D4016821F008010160216C43
:100E300009B12046884794F85C1020208840304251
:100E400031D021680968C9062DD5A86094F835000D
:100E500005282068016806D0490347D500680003CB
:100E60001DD4616C1CE021F016010160206841690D
:100E700021F080014161206C08B9A06C20B120688C
:100E8000016821F00801016094F85C103F2088405F
:100E9000A86084F8358084F83490216D1FE0E16B00
:100EA00009B120468847606D00282BD0606DC007CF
:100EB00014D0052084F835002068016821F0010174
:100EC00001600098401C0090B84203D82068006878
:100ED000C007F6D184F8358084F83490E16C00299D
:100EE00010D001B02046BDE8F04308470168C905AD
:100EF000D5D4016821F01001016084F8358084F8B0
:100F00003490CCE7BDE8F8831C0000202DE9F041C7
:100F1000044600F05DF906465CB1022084F8350015
:100F2000002584F834502068016821F00101016037
:100F30000DE00120BDE8F08100F04AF9801B052892
:100F400005D920206065032084F83500F2E7206889
:100F50000068C007F0D12268116820480140D4E938
:100F600001031843D4E90336334318436369184334
:100F7000A3691843E3691843236A18430843616A65
:100F8000042903D1D4E90B131943084310602068E6
:100F90004069666A20F0070130460E4301270428A5
:100FA0000CD1A06A0643E06A40B12046FFF70EFB71
:100FB00020B14020606584F83570BAE7206846614A
:100FC0002046FFF7EFFA94F85C203F2191408160C2
:100FD000656584F835700020ACE700003F8010F0B4
:100FE0002DE9F84FDFF8BCA10022012503264FF0C0
:100FF0000F090AF1040BAAF1040E00BF0B6805FAF1
:1010000002F42340A34270D10F7907F00307012FA8
:1010100001D0022F16D187684FEA420806FA08FC71
:1010200027EA0C07D1F80CC00CFA08FC4CEA070CB4
:10103000C0F808C04768A7430C79C4F30014944073
:101040003C4344600C79E443A4070AD0C4684FEAE7
:10105000420C06FA0CF7BC438F6807FA0CF72743DB
:10106000C7600C7904F00304022C12D1D40800EB01
:10107000840CDCF820405707FF0E09FA07F824EA31
:101080000804D1F8108008FA07F848EA0408CCF8F8
:10109000208004684FEA420C06FA0CF7BC430F7933
:1010A00007F0030707FA0CF7274307604C6814F4AE
:1010B000403F70D03C4C276847F480472760246845
:1010C00022F0030704F480440094384C07EB040C2E
:1010D000DCF8084897074FEA177809FA08F7BC4385
:1010E000334FB84202D1002724E054E0314FB842D8
:1010F00001D101271EE0304FB84201D1022719E08B
:101100002E4FB84201D1032714E02D4FB84201D130
:1011100004270FE02B4FB84201D105270AE02A4FE0
:10112000B84201D1062705E0284FB84201D1072770
:1011300000E0082707FA08F72743CCF80878DAF820
:1011400000405746D1F804C09C435FEACC2C00D540
:101150001C433C60DBF800405F46D1F804C09C4370
:101160005FEA8C2C00D51C433C60DEF800407746DB
:10117000D1F804C09C435FEA8C3C00D51C433C6022
:10118000084F083F3C68D1F804C09C435FEACC3C60
:1011900000D51C433C60521C102AFFF42FAFBDE861
:1011A000F88F0000083C0140443802400030014004
:1011B000000002400004024000080240000C02400F
:1011C000001002400014024000180240001C0240BF
:1011D00001488068704700001000002002488168C4
:1011E0000278114481607047100000200B4810B550
:1011F000016841F400710160016841F4806101609F
:10120000016841F480710160032000F073F80F2041
:1012100000F006F800F024F8002010BD003C024069
:1012200070B50D4D04464FF47A712878B1FBF0F09B
:101230000A490968B1FBF0F000F010FB48B9102C26
:1012400007D200222146501E00F034F800206C60C6
:1012500070BD012070BD0000100000201C000020A7
:101260000C4882B0016841F480410160006800F4DC
:10127000804000900748001F016841F080510160E4
:101280000068002200F0805000900F21901E02B0F4
:1012900000F010B844380240002809DB00F01F02BB
:1012A000012191404009800000F1E020C0F80011C8
:1012B00070470000F0B40E4B1B680C46C3F30223CA
:1012C000C3F10705042D00D90425191D072901D2F2
:1012D000002300E0DB1E012606FA05F1491E21402D
:1012E00099409E40761E16403143F0BC00F077BD19
:1012F0000CED00E0064900F0070208684FF6FF0316
:10130000184040EA0220034A10430860704700007A
:101310000CED00E00000FA052DE9F0470E4605004F
:1013200065D0DFF81481D8F80000F7B200F00700AC
:10133000B04207D288F80070D8F8000000F007002B
:10134000B04254D128683D4C810712D5400703D5DF
:10135000206840F4E05020602878000703D520681A
:1013600040F4604020602068A96820F0F000084345
:1013700020602878C0072DD03049686808390128D6
:1013800012D0022813D0032811D009688907002938
:101390002DDA216821F0030101432160FFF718FFD6
:1013A000814641F2883A0EE009688903EFE709684F
:1013B0008901ECE7FFF70CFFA0EB0901514502D9C9
:1013C0000320BDE8F0872068696800F00C00B0EBEE
:1013D000810FEFD1D8F80010404601F00701B1426B
:1013E00007D90770006800F00700B04201D0012063
:1013F000E7E72878400705D52068E96820F4E05041
:10140000084320602878000706D52068296920F461
:10141000604040EAC100206000F038F82168084AC6
:10142000C1F30311515CC8400649086006480068D2
:10143000FFF7F6FE0020C4E7003C024008380240F7
:10144000F02A00081C000020140000200448054970
:1014500000680968044AC1F38221515CC8407047A2
:101460001C00002008380240002B000804480549F1
:1014700000680968044AC1F34231515CC8407047B2
:101480001C00002008380240002B0008154810B549
:10149000006810F00C02144813D01449042A0FD02D
:1014A000082A0ED10F4C241F2268236802F03F0245
:1014B0005B0207D52068C0F38810A0FB010106E09D
:1014C000084610BD2168C1F38811A1FB000100236B
:1014D000FEF72AFF2168C1F30141491C4900B0FB16
:1014E000F1F010BD083802400024F40040787D017E
:1014F0002DE9F84F04006ED02078DFF84C93C00738
:10150000A9F104054AD009F104000168C1F3810181
:10151000012908D00068C0F3810002280AD1D9F857
:101520000000400206D52868800337D5606800288F
:10153000E1D033E06068B0F5803F10D0B0F5A02F67
:10154000286810D020F480302860286820F480209B
:1015500028606068A8B1FFF73BFE06460DE02868EA
:1015600040F48030F4E740F480202860F7E700BFC3
:10157000FFF72EFE801B642873D828688003F7D5F8
:101580000CE0FFF725FE064605E000BFFFF720FE52
:10159000801B6428F0D828688003F7D42078DFF80F
:1015A000AC8280074FF0000A3ED5A748001D0168B5
:1015B00011F00C0F08D00068C0F3810002280BD195
:1015C000D9F80000400207D42868800716D5E068E3
:1015D000012800D112E033E1E068B8B10120C8F879
:1015E0000000FFF7F5FD064605E000BFFFF7F0FD40
:1015F000801B0228C0D828688007F7D52868216991
:1016000020F0F80040EAC10028600DE0C8F800A012
:10161000FFF7DEFD064604E0FFF7DAFD801B022837
:101620001FD828688007F7D42078000722D5864F76
:1016300087486169703771B101210160FFF7C8FD0A
:10164000064604E0FFF7C4FD801B022809D838686D
:101650008007F7D50EE0C0F800A0FFF7B9FD0646F9
:1016600005E082E0FFF7B4FD801B02287DD83868D2
:101670008007F7D42078400768D5DFF8CCB1002781
:101680000BF13C0BDBF80000C0000BD4DBF80010C2
:1016900041F08051CBF80010DBF80000012700F08A
:1016A000805000906B4E3068C00510D4306840F414
:1016B00080703060FFF78CFD009005E0FFF788FD3B
:1016C0000099401A022850D83068C005F6D55E4E01
:1016D000A0686C3601280FD00528306810D020F0A3
:1016E00001003060306820F004003060A068B8B1BC
:1016F000FFF76EFD00900FE0306840F00100F4E766
:1017000040F004003060F7E7FFF762FD0099411AEE
:1017100041F28830814266D830688007F4D50EE007
:10172000FFF756FD009007E0FFF752FD0099411AC0
:1017300041F28830814256D830688007F4D42FB106
:10174000DBF8001021F08051CBF80010A069C8B37D
:101750003D49091D0968C1F3810102294AD00228C7
:10176000504607D0C8F8600000E03CE0FFF730FDCD
:1017700004463BE04746C8F86000FFF729FD0646EF
:1017800005E000BFFFF724FD801B02282BD8286846
:101790008001F7D4D4E907010843A16A2E4A490819
:1017A00002EB0141626A41EA8211084394F82C106D
:1017B00040EA0161C9F8001001203866FFF708FD12
:1017C000044606E03EE000BFFFF702FD001B0228D2
:1017D00009D828688001F7D534E000BFFFF7F8FC8E
:1017E000001B022802D90320BDE8F88F2868800179
:1017F000F4D427E00128F7D0D9F80000E26900F41A
:10180000800191421CD1226A00F03F01914217D120
:1018100047F6C071626A0140B1EB821F10D1A26A23
:101820004FF0FF3300F4403103EB5202B1EB024FB3
:1018300006D194F82C1000F07060B0EB016F01D06D
:101840000120D1E70020CFE70438024000004742E2
:10185000800E4742007000400000FFFF10B5401EA0
:10186000B0F1807F01D3012010BD4FF0E024606112
:101870000F21601700F0B3FA0020A061072020615B
:10188000002010BD70B5040004D094F83D00002580
:1018900010B106E0012070BD84F83C50204600F0F5
:1018A00023F8242084F83D002068C16821F4005109
:1018B000C160204600F0B2F92068016921F490412E
:1018C00001612068416921F02A0141612068C168F5
:1018D00041F40051C1602564202084F83D0084F863
:1018E0003E00002070BD000070B586B00646142191
:1018F0006846FEF7C2FD24493068884242D1234839
:101900000025016841F480210160006800F4802016
:1019100005901E481038016841F00401016000681C
:10192000694600F0040005904FF4406000900220EA
:10193000CDE9010503200390072004901448FFF728
:101940004FFB154C134820604FF00060C4E90105BF
:101950004014C4E9035065614FF44030A561C4E907
:10196000075020466562FFF7D1FA08B1FEF759FE2D
:10197000B463002204212720A663FFF79BFC2720E5
:10198000FFF78AFC06B070BD0048004040380240B6
:1019900000080240286002405C030020FEE70000CF
:1019A0000F4810B50D4901600321416000214FF43B
:1019B00010228160C0E903124FF4001242610176E7
:1019C00041768176C17601774177FFF79CF8002850
:1019D00003D0BDE81040FEF724BE10BD00640040F7
:1019E000F0020020094808B5016841F400110160C7
:1019F0000068002200F40010009005210C20FFF781
:101A000059FCBDE808400C20FFF746BC30380240C6
:101A100010B59CB01C2216496846FEF7FCFC00215C
:101A2000684600F048FA134C11491C2220601C3112
:101A300007A8FEF7F0FC002107A800F03CFA0C49CB
:101A400060601C2238310EA8FEF7E5FC00210EA8CC
:101A500000F031FA0649A0601C22543115A8FEF7A7
:101A6000DAFC002115A800F026FAE0601CB010BDD9
:101A7000782A0008000000200D4808B5016841F0F0
:101A800008010160016801F008010091016841F05E
:101A900004010160016801F004010091016841F056
:101AA00080010160006800F08000009008BD000027
:101AB000303802400D4810B50B4901600C494160B7
:101AC00000214FF480628160C0E903120C22C0E95A
:101AD0000521C161FFF7D6FE002803D0BDE8104004
:101AE000FEF79FBD10BD0000004800401803002015
:101AF000A0860100FEE7FEE730B5144B1C6865695F
:101B000045F0400565611B68DC6844F01004DC604A
:101B10000F4B1C68256825F0010525601C682568A9
:101B2000ED07F7D11D680B4CAC601C68E0601868CD
:101B30000161186842601868016841F48021016001
:101B40001868016841F00101016030BD18030020F0
:101B50005C03002004480040012000F0A0F9FBE7EE
:101B600010B5FFF73BFB00F0ABFE012803D0BDE84A
:101B7000104000F037BE10BD30B593B0302168463C
:101B8000FEF77BFC14210CA8FEF777FC1D4800250E
:101B9000016841F080510160006800F080501190B0
:101BA0001948016841F4804101600068022400F492
:101BB000804011900120039010200490009406941E
:101BC0000820CDE90750A820CDE9090404200B9096
:101BD0006846FFF78DFC08B172B6FEE70CA90F202E
:101BE00081E831004FF4A0500F904FF480501090D6
:101BF00005210CA8FFF790FB002801D072B6FEE784
:101C000013B030BD40380240007000400248016807
:101C100041F470010160704788ED00E070B5044642
:101C200000680169E26821F44051114301612169B2
:101C3000A068E26908436169114308432168CA68E2
:101C400049F20C639A430243CA6020684169A26961
:101C500021F440711143416131492068884202D02A
:101C60003049884202D1FFF701FC01E0FFF7EEFBAB
:101C7000E2690023192164253226B2F5004F62681B
:101C800028D0A0FB0101930F9200FEF74DFB014607
:101C9000B0FBF5F06FF01802504301EB800006EB4B
:101CA0000010B0FBF5F000F0F002B1FBF5F002EB34
:101CB0000012B1FBF5F06FF01803584301EB800000
:101CC00006EB0010B0FBF5F000F00F0021681044A7
:101CD000886070BDA0FB010192185B41FEF724FBF8
:101CE0000146B0FBF5F00201B1FBF5F06FF018030F
:101CF000584301EB800006EBC000B0FBF5F000F0AC
:101D0000F80002EB4002B1FBF5F0584301EB800014
:101D100006EBC000B0FBF5F000F00700D6E70000CE
:101D20000010014000140140264818B40068016802
:101D3000890604D501684068009018BC70472249A4
:101D40000968C906F9D501684068204A0090106802
:101D500001684FF024030C031D49046824F00104BA
:101D6000046016D410684468C4F12404A4B20C8042
:101D700043601068016841F4002101601068016847
:101D800041F001010160122CD7D1124901F1170075
:101D900015E014686068C0F1240080B208806360B8
:101DA0000D498B6A23F400238B6211680A6842F0A4
:101DB00001020A601228C0D1064901F13B0018BC9B
:101DC00000F0D6BA18030020004800405C03002051
:101DD0009A0000200842002000600240FEE7090748
:101DE000090E002804DB00F1E02080F800147047A1
:101DF00000F00F0000F1E02080F8141D7047000093
:101E000000B58BB000200121CDE9060108910090BA
:101E10000190029003900590049069460548FEF7F2
:101E200079FC0448FEF76EFF02210248FEF7FBFB37
:101E30000BB000BDF0020020704700000348FFF720
:101E4000FBFF022000F0C2FBF8E700001041002079
:101E50004FF4FA7400231A4619462046FEF778FB21
:101E6000022000F0B3FBF5E7FFF7C0F9FFF784FEAF
:101E7000FFF702FEFFF7B6FDFFF792FDFFF71AFE30
:101E8000FFF7BEFF00F06CFAFFF7C2FD00F00EF89E
:101E9000FEE701460020842900D0C81C704710B519
:101EA00000B9012000F092FB002010BD10B500F039
:101EB000B3FB002010BD7FB50D4604464169B0F963
:101EC000080081B1A16971B1FFF7E3FFD4E9051200
:101ED0008DE80700D4E900102B46226900F0C5FC0C
:101EE000039004B070BDFFF7D4FF03A9CDE9000152
:101EF000208A2B4682B2D4E9001000F089FC012828
:101F000001D00020EDE70398EBE700002DE9F04158
:101F1000184C0F460546E6682068001D00F08EFA52
:101F200038B9206890F82C1001208840216981433D
:101F30002161681C07D137B12168BDE8F0410E4826
:101F4000091D00F0BFBA20683544B54245602168DC
:101F500005D2A06BBDE8F041091D00F09BBA606B93
:101F6000091D00F097FAA06A854200D2A562BDE87B
:101F7000F081000020000020980400202DE9F041AD
:101F8000054600F0ABFA2E4CA068401CA06020680B
:101F90002C4F10B1606940B32DE02560A068012886
:101FA00029D1002606EB860007EB800000F064FADA
:101FB000761C072EF6D323488C3000F05DFA2148BA
:101FC000A03000F059FA1F48B43000F055FA1D480F
:101FD000C83000F051FA1B48DC3000F04DFA1948C7
:101FE0008C3060631430A06305E02068E96AC06A41
:101FF000884200D82560606A401C6062E96A01205E
:10200000226988401043206101EB810007EB8000CA
:10201000291D00F057FA00F081FA606900280CD001
:102020002068E96AC06A884207D207494FF08050A9
:102030000860BFF34F8FBFF36F8FBDE8F0810000E2
:1020400020000020BC03002004ED00E010B5044691
:1020500090F8510058B101280CD002280FD0502020
:1020600080F31188BFF34F8FBFF36F8FFEE7206BB4
:1020700000F068FA2046BDE8104000F063BA10BDD9
:1020800010484FF47051420706D0C01D0D4920F092
:102090000700411AC1F570510B4A00230144C2E9FF
:1020A00000030839183A21F0070111604B600B60FA
:1020B0000B1AC0E9001393604FF000405360506169
:1020C00070470000AC04002074000020144E154C32
:1020D000A6F1C8074FF08058DFF84C9012E000BF1F
:1020E00000F0FCF9F068C568281D00F0A7F9A068A9
:1020F000401EA0606068401E606000F00FFA284635
:10210000FFF7A4FF60680028EAD138680128F9D9F0
:10211000C9F80080BFF34F8FBFF36F8FF2E7000065
:10212000840400202000002004ED00E02DE9F047A9
:102130009A46DDE9098481466FF00303206B03EBC7
:1021400082021044089E20F00707780707D050202D
:1021500080F31188BFF34F8FBFF36F8FFEE7002529
:1021600061B1002023180A5C83F834200A5C12B1A4
:10217000401C1028F6D384F8435001E084F8345012
:10218000072E00D30626E662C4E91165201D00F083
:102190007EF904F1180000F07AF92461C6F1070015
:1021A0006462A061E56484F850505246494638465E
:1021B00000F0C0F82060B8F1000F01D0C8F800406E
:1021C000BDE8F08730B5114900E011460A68824247
:1021D000FBD34B685C18844203D1406818444860C4
:1021E000084643681C18944209D1084C183C2468DE
:1021F000A24209D052681A4442600A68126802601A
:10220000814200D0086030BD0460F9E7740000200E
:102210000648416B096829B1416BC968C9684968BA
:10222000816270474FF0FF31FAE700002000002084
:1022300008484068401C4FF0500080F3118804D0DB
:10224000BFF34F8FBFF36F8FFEE7BFF34F8FBFF327
:102250006F8FFEE77C0000202DE9F0410546002746
:1022600000F010FA324E306808B9FFF709FF7069C4
:1022700005424ED1C5B3083568070ED005F00700FA
:10228000C0F108000544680707D0502080F311888A
:10229000BFF34F8FBFF36F8FFEE72DB3706885429A
:1022A00037D82348183001460C6801E020460C4618
:1022B0006168A94202D221680029F7D131688C42B5
:1022C00027D007682168016060680837411B102922
:1022D0000FD96019420708D0502080F31188BFF34E
:1022E0004F8FBFF36F8FFEE713E041606560FFF72C
:1022F00069FF61687068401A7060B268904200D2ED
:10230000B060706901430020C4E90001F068401C1E
:10231000F06000F049FB780707D0502080F3118867
:10232000BFF34F8FBFF36F8FFEE73846BDE8F081F4
:102330005C00002010B5031F4FF080741C601B1F51
:1023400021F001011960191F044B0B6014390A6058
:10235000091F6FF0020244380A6010BD31220008E4
:1023600002492422A1F12400FFF7C6BB434200200A
:10237000F0B5002855D0002953D00278437842EABE
:102380000322C2F30A020A8043788478DB0843EA16
:102390004413C3F30A034B808478C578A40944EA44
:1023A0008504057944EA8524C4F30A048C80057900
:1023B00046796D0845EAC615C5F30A05CD8046790C
:1023C000C6F301168E724679B609CE728679C77940
:1023D00046EA07268E81067A477A46EA0726CE81A4
:1023E000867AC77A46EA07260E82067B8E74467B7B
:1023F000CE74867BC77B46EA07268E82067C407CAD
:10240000A2F580620A80A3F580634B80A4F5806406
:1024100046EA00208C80A5F58065CD80A0F580601F
:102420000881F0BD4FF4FA7400231A46194620467D
:10243000FEF78EF8022000F0C9F8F5E7D0E9013286
:1024400001699A60D0E901235A604A68824201D149
:1024500082684A60002202610868401E08600868BD
:1024600070470000034B036003F1540008608020B4
:10247000106070479C00002000F108014FF0FF320F
:10248000C0E90112C16001610021016070470021B3
:102490000161704730B50B685A1C02D000F1080288
:1024A00002E0026904E02246546825689D42FAD998
:1024B00053684B6099608A60516008610168491CEB
:1024C000016030BD42684A6093688B6093685960D0
:1024D000916008610168491C01607047502080F3D9
:1024E0001188BFF34F8FBFF36F8F0A494868401CB4
:1024F000486001280CD10848006810F0FF0F07D091
:10250000502080F31188BFF34F8FBFF36F8FFEE72A
:10251000704700007C00002004ED00E00849486896
:1025200028B1401E486001D180F3118870475020C7
:1025300080F31188BFF34F8FBFF36F8FFEE700006A
:102540007C00002070B500282AD0164DA0F10804A8
:1025500060686969084207D1502080F31188BFF391
:102560004F8FBFF36F8FFEE722683AB1502080F3A0
:102570001188BFF34F8FBFF36F8FFEE78843606012
:1025800000F080F860686968084468602046FFF7DA
:1025900019FE2869401C2861BDE8704000F004BAAB
:1025A00070BD00005C0000204FF0E02000210161C0
:1025B000816105494FF47A720968B1FBF2F1491E55
:1025C00041610721016170471C00002010B5020025
:1025D00014D00F48006B38B1502080F31188BFF33E
:1025E0004F8FBFF36F8FFEE700F04CF800211046CD
:1025F000FFF78CFC00F0D8F9002807D105494FF00F
:1026000080500860BFF34F8FBFF36F8F10BD000085
:102610002000002004ED00E010B586B000240394F3
:1026200005AA04A903A80494FFF71CFFDDE9030130
:102630000094CDE9011000230EA11048059A00F086
:1026400014F90F490028C86211D0502080F3118876
:10265000BFF34F8FBFF36F8F4FF0FF3088620120C1
:102660004861CC6006B0BDE8104000F041B806B04B
:1026700010BD000049444C4500000000CD2000087A
:10268000200000200248016B491C016370470000D4
:10269000200000201448016B11B10121C161704775
:1026A0000021C1610169B1FA81F1C1F11F0101EBA2
:1026B00081020E4951F822306BB101EB820101F128
:1026C00008034A6852684A609A4201D152684A60D7
:1026D000D16801607047502080F31188BFF34F8F9D
:1026E000BFF36F8FFEE7000020000020BC03002036
:1026F0001CB537480168374A914207D1502080F312
:102700001188BFF34F8FBFF36F8FFEE70068314929
:10271000491E884207D1502080F31188BFF34F8FA4
:10272000BFF36F8FFEE72C4908780190FF200870F7
:1027300008788DF800009DF800009DF8002000F05A
:10274000F000904207D0502080F31188BFF34F8FE4
:10275000BFF36F8FFEE79DF80000204C00F05000A3
:1027600020700720A06005E09DF8002052008DF841
:102770000020401E9DF800201206F5D4A06003281A
:1027800007D0502080F31188BFF34F8FBFF36F8FB6
:10279000FEE74FF44070A060019808700C482030AC
:1027A000016841F470010160016841F0704101600D
:1027B000FFF7FAFE00206060FDF75AFD0848016847
:1027C00041F040410160FDF73FFD00201CBD0000CD
:1027D00000ED00E071C20F4100E400E07C00002049
:1027E00034EF00E010B5502080F31188BFF34F8F15
:1027F000BFF36F8F00F072F818B104494FF08050AA
:102800000860002080F3118810BD000004ED00E096
:102810002DE9FF5F8346DDE90E87994616468A4615
:102820009000FFF719FD05001CD05420FFF714FDA0
:10283000040014D00020256384F85100CDE9024043
:10284000CDE900874B46324651465846FFF76EFCAD
:102850002046FFF793FB012004B0BDE8F09F284617
:10286000FFF770FE4FF0FF30F6E7F0B585B0DDE919
:102870000B640A9DA6B1DCB154270097266302269B
:1028800084F85160002604AFCDE90246CDE9005737
:10289000FFF74CFC2046FFF771FB049805B0F0BD34
:1028A000502080F31188BFF34F8FBFF36F8FFEE787
:1028B000502080F31188BFF34F8FBFF36F8FFEE777
:1028C0000548416919B1006B18B10020704701201B
:1028D0007047022070470000200000202DE9F041E1
:1028E0002F4C0026206B28B1A069401CA061304607
:1028F000BDE8F081E5686D1CE56013D1606B006890
:1029000038B1502080F31188BFF34F8FBFF36F8F22
:10291000FEE7606BA16B6163A063206A401C2062CC
:10292000FFF776FCA06ADFF87C80854209D3606BF4
:102930000068A0B1606BC068C7687868854211D232
:10294000A0622068C06A00EB800158F821000128CD
:1029500000D90126E0690028C9D00126C7E74FF059
:10296000FF30EDE7381DFFF769FDB86A18B107F1D0
:102970001800FFF763FDF96A0120226988401043BF
:10298000206101EB810108EB8100391DFFF79AFD01
:10299000F86A2168C96A8842C9D30126C7E70000DE
:1029A00020000020BC0300202DE9F0472C4D00241E
:1029B0002746286B38B1FFF791FD286B401E28632E
:1029C000286B40B146E0502080F31188BFF34F8F51
:1029D000BFF36F8FFEE7A968224E0120D1B3A6F1A5
:1029E000B40980463068E8B1F068C46804F11800A2
:1029F000FFF724FD201DFFF721FDE06A2A6908FA90
:102A000000F11143296100EB800109EB8100211DD8
:102A1000FFF758FDE06A2968C96A8842E2D3C5F821
:102A20001C80DFE70CB1FFF7F3FBAC6944B146460D
:102A3000FFF754FF00B1EE61641EF9D10020A861D8
:102A4000E86938B10849012738070860BFF34F8F9C
:102A5000BFF36F8FFFF762FD3846BDE8F0870000D7
:102A6000200000207004002004ED00E04FF04070D2
:102A7000E1EE100A704700002C2B0008591B0008DB
:102A800000000000000000008000000000000000C6
:102A900000000000202B00083D1E00080000000080
:102AA00000000000800000000000000000000000A6
:102AB000082B0008511E0008000000000000000064
:102AC000800000000000000000000000142B00083F
:102AD0002524000800000000000000008000000025
:102AE000000000000000000000061016000610168E
:102AF00000000000000000000102030406070809AE
:102B0000000000000102030447696D62616C5461BA
:102B1000736B0000536572766F5461736B00000035
:102B2000436861737369735461736B0064656661B4
:102B3000756C745461736B00582B00080000002002
:102B40009C000000C4010008F42B00089C00002039
:102B50002C480000E0010008000000000000000018
:102B60000000000000000000010000001000000054
:102B7000000000000024F40000000000000000003D
:102B80000000000000000000000000000000000045
:102B90000000000000000000000000000000000035
:102BA0000000000000000000000000000000000025
:102BB0000000000000000000000000000000000015
:102BC0000000000000000000000000000000000005
:102BD0000000000000000000AAAAAAAA000000004D
:102BE00000000000000000000000000000000000E5
:042BF00000000000E1
:040000050800018965
:00000001FF
