:020000040800F2
:10000000C84A0020010300089F2E0008FD2C0008AC
:100010009D2E0008EF140008753400080000000051
:100020000000000000000000000000004102000885
:100030000D160008000000009D020008CD300008E9
:100040001B0300081B0300081B0300081B03000818
:100050001B0300081B0300081B0300081B03000808
:100060001B0300081B0300081B0300081B030008F8
:10007000851500081B0300081B0300081B0300086C
:100080001B0300081B0300081B0300081B030008D8
:10009000F11400081B0300081B0300081B030008E1
:1000A0001B0300081B0300081B0300081B030008B8
:1000B0001B0300081B0300081B0300081B030008A8
:1000C0001B0300081B0300081B0300081B03000898
:1000D0001B030008B53300081B030008C1330008E8
:1000E0001B0300081B0300081B0300081B03000878
:1000F0001B0300081B0300081B0300081B03000868
:100100001B0300081B0300081B0300081B03000857
:100110001B0300081B0300081B0300081B03000847
:100120001B0300081B0300081B0300081B03000837
:100130001B0300081B0300081B0300081B03000827
:100140001B0300081B0300081B0300081B03000817
:100150001B0300081B0300081B0300081B03000807
:100160001B0300081B0300081B0300081B030008F7
:100170001B0300081B0300081B030008000000000D
:100180001B0300081B03000800F002F800F049F808
:100190000AA090E8000C82448344AAF10107DA45E2
:1001A00001D100F03EF8AFF2090EBAE80F0013F0EB
:1001B000010F18BFFB1A43F001031847105F00003E
:1001C000305F0000103A24BF78C878C1FAD85207CF
:1001D00024BF30C830C144BF04680C6070470000C1
:1001E0000023002400250026103A28BF78C1FBD840
:1001F000520728BF30C148BF0B607047662905F021
:100200001686002070471FB505F007FE00F02AFC97
:1002100004000020002105F0A5F8E0601FBD10B526
:1002200010BD00F03BFD1146FFF7EDFF04F096FA1C
:1002300000F059FD03B4FFF7F2FF03BC03F027FE03
:100240002C4B19680868B0E8F04F80F30988BFF3B9
:100250006F8F4FF0000080F311887047000000009E
:1002600008480068006880F308884FF0000080F3B9
:10027000148862B661B6BFF34F8FBFF36F8F00DF94
:1002800000BF00BF08ED00E0DFF80C00016841F49A
:1002900070010160704700BF88ED00E0EFF3098056
:1002A000BFF36F8F134B1A681EF0100F08BF20EDBD
:1002B000108A20E9F04F106009B44FF0500080F32D
:1002C0001188BFF34F8FBFF36F8F04F05FFE4FF0C5
:1002D000000080F3118809BC19680868B0E8F04F85
:1002E0001EF0100F08BFB0EC108A80F30988BFF32E
:1002F0006F8F704724000020EFF3058070470000E7
:100300000948804709480047FEE7FEE7FEE7FEE7A9
:10031000FEE7FEE7FEE7FEE7FEE7FEE704480549E5
:10032000054A064B70470000793100088901000832
:10033000C8440020C84A0020C8460020C846002003
:10034000704753EA020C00F069802DE9F04B4FF042
:100350000006002B1FBFB3FA83F503FA05F424FA55
:1003600005F65E4012BF1643B2FA82F502FA05F4B2
:10037000C5F120051EBF22FA05FC44EA0C04203515
:1003800056EA044C4FEA144418BF641C4FF00008AE
:100390004FF00009904271EB030C39D3002919BFCB
:1003A000B1FA81F701FA07F6B0FA80F700FA07F61A
:1003B000C7F120071EBF20FA07FC46EA0C062037CB
:1003C000B6FBF4FCA7EB0507103F07F01F0BCBF1C2
:1003D00020060CFA0BFB2CFA06F644BFB3460026A7
:1003E000202FA4BF5E464FF0000B5BEA060C08BF4F
:1003F0004FF0010B19EB0B09ABFB027C48EB060835
:10040000C01B06FB02CC0BFB03CC71EB0C01C1E75C
:100410000B46024641464846BDE8F08B13B54FF007
:1004200000004FF00001AFF30080BDE81C407047B2
:100430000FB4044910B503AA029800F001FB10BCE8
:100440005DF814FB100000202DE9F0474FF0000A82
:1004500089460446C0F820A02046E1688847002865
:1004600076D0252806D0D4E901219047206A401C87
:100470002062F1E7E168204600258847C4F81CA007
:1004800006460027C4F818A02A2E09D0304603F0EB
:10049000F7FC38B304EB8708303EC8F8186019E061
:1004A00059F8041B204604EB87029161E1688847F4
:1004B000012F064618D1E069002820DA25F0200532
:1004C0001DE0D8F8180000EB800006EB4000303843
:1004D000C8F818002046E1688847064603F0D0FCBB
:1004E0000028EED1012F0AD02E2E08D12046E16837
:1004F00088477F1C0646022F45F02005C4DBA06913
:10050000002803DA404245F00105A061E80701D068
:1005100025F01005B6B1A6F14100192802D8203601
:1005200045F400654A463146204625604D46FFF7B2
:1005300065FE58B1012806D0ED1D25F0070000F139
:10054000080989E704E005F1040985E730468AE7F0
:10055000206ABDE8F08710B5203AC0F00B80B1E802
:100560001850203AA0E81850B1E81850A0E81850E8
:10057000BFF4F5AF5FEA027C24BFB1E81850A0E8F1
:10058000185044BF18C918C0BDE810405FEA827C0B
:1005900024BF51F8043B40F8043B08BF7047D20722
:1005A00028BF31F8023B48BF11F8012B28BF20F8C3
:1005B000023B48BF00F8012B70474FF0000200B526
:1005C000134694469646203922BFA0E80C50A0E876
:1005D0000C50B1F12001BFF4F7AF090728BFA0E824
:1005E0000C5048BF0CC05DF804EB890028BF40F8F0
:1005F000042B08BF704748BF20F8022B11F0804F32
:1006000018BF00F8012B704770477047704770475C
:1006100010B500F02BFA006810BD10B5044600F0CC
:1006200025FA046010BD70472DE9FF4F0C461E46A9
:100630004FF0FF378BB0D2E90001DDF860800A90FF
:100640008A46C1F30A5505B93D46002108464FF0D8
:100650000000BAF1000F00F4400005DA00EB800062
:100660004FF4400101EA50004FEA9059B9F1010FEF
:1006700000DDB9460A9850EA4A000ED044F6105000
:10068000A5F2FF3545432F14B8F1000F1ED0754277
:10069000291E1EDDC9F100021CE0B8F1010F4FF068
:1006A000000001D0302103E0F24305E02154401C5A
:1006B000B042FBDB30460022002121540B99C1F8E7
:1006C0000880C1E900200FB0BDE8F08FBD1B6D1C94
:1006D000DEE74A4600DA694206A800F069FA06AB8E
:1006E00093E8070003AB83E8070050460A9900F03F
:1006F00043FB8DE80700A0F500501F3800900398D9
:10070000002D09DD42F21F014A46084403A9039067
:10071000684600F0A2FD08E0A0F500504A461F38E8
:1007200003A90390684600F0ACFD8DE807000004C3
:10073000000C03D04FF0FF30410800E01046B8F144
:10074000000F03D00022009215461EE0751E05D44E
:1007500000F090F9303262556D1EF9D5B346012292
:10076000084302D000227F1C04E02078302801D109
:1007700000227F1E002A099786D01DE0112D07DA7E
:1007800000F078F9303262556D1C50EA0102F5D163
:10079000084302D00098C8B10EE00021681E05E0B1
:1007A000235C625C63542254401E491C8142F7DB87
:1007B000AB46A81B401E0990002004F80B000B98C4
:1007C000099AC0F80880C0E9002B7CE711264FF099
:1007D000000859E72DE9F04F88460446D21D22F063
:1007E000070191B0D1E90001CDE90A0102F043FE11
:1007F00002460B98C00F01D02D2007E0206881072A
:1008000001D52B2002E0202101EAC000032A099033
:1008100001D0072A05DB03464146204600F088F94F
:100820000BE12078800601D5E06900E00620B8F1F0
:10083000650F814606D0B8F1660F18D0B8F1670F82
:1008400070D131E00020B9F1110F009001DB1123CC
:1008500001E009F101030AAA01A90CA8FFF7E4FECF
:10086000DDE90C70002609F10105834647E001200F
:100870004B4600904FF000470AAA01A90CA8FFF7C9
:10088000D3FEDDE90DB00C995D46002610B909F1E3
:1008900001000D18B9EB050003D4C0F1FF3609F1D2
:1008A0000105A5EB09002BE0B9F1010F01DA4FF0CA
:1008B00001090020B9F1110F0090484601DD112314
:1008C00000E003460AAA01A90CA8FFF7ADFEDDE986
:1008D0000C704D4600268346207800070AD4AB45AD
:1008E00000DA5D4601A8012D04DD411911F8011C53
:1008F000302907D04F4502DA17F1040F04DA01203E
:1009000082460FE06D1EEEE7002F02DCED1B3E4439
:1009100003E0781CA84200DD7D1CB81B00F1010A31
:100920004FF000472078000703D4AA4501DB4FF0C1
:10093000FF3A0021B7F1004F0DF143088DF8431045
:1009400024D002202B23002F01DA7F422D230A21FD
:10095000021EA0F1010000DC5FB197FBF1FC97FBE8
:10096000F1F201FB1C7C17460CF1300C08F801CDAC
:10097000EEE7A8F1010003702188090501D54521A2
:1009800000E06521A0F1010800F8011C09980FA9F9
:10099000A1EB0807FF1D00B10120411901EBEA702E
:1009A000A1693844081A401EA0612078C00602D40C
:1009B0002046AFF30080099828B1D4E9012190477F
:1009C000206A401C20622078C00622D52046AFF362
:1009D00000801EE0002E04DBB34502DD01A8805D2F
:1009E00000E03020D4E901219047206A401C2062B9
:1009F000761CAAF101005FEA000A0AD100F032F881
:100A0000C0680168405CD4E901219047206A401C1D
:100A10002062281EA5F10105DCDC07E0D4E90121F4
:100A200018F8010B9047206A401C2062381EA7F17D
:100A30000107F3DC2046AFF30080032011B043E64A
:100A4000074B70B50D467B4400F05FF8044628461E
:100A500000F01CF910B14FF0FF3070BD204670BDA2
:100A60004339000000487047884400200048704720
:100A70006844002030B5B0F10A024FEA900E71F1DF
:100A800000034EEA817EB0EB0E0061EB91014FEA6C
:100A9000101E4EEA017E10EB0E0041EB11114FEAE1
:100AA000102E4EEA016E10EB0E0041EB11214FEAC1
:100AB000104E4EEA014E10EB0E0041EB1141401872
:100AC00041F100014FEAD00040EA41704FEAD10104
:100AD00010EB80054FEA810444EA907444EB010472
:100AE0006D1944EB0404521BA3414FF0000348BFAF
:100AF0000A3200D530BD401C41F1000130BD00007C
:100B000001694A1C02610878704700B58FB0CDE9D1
:100B100001310021059105497944CDE903101146C1
:100B20006846FFF791FC0FB000BD0000E5FFFFFF36
:100B30002DE9F0411F46044603260168072A01F407
:100B4000006004DB08B116A505E016A503E008B1B6
:100B500015A500E015A521F010002060A069C01EB9
:100B6000A0610FB1401EA0612046AFF300804FB1DD
:100B7000D4E9012138469047206A401C2062C01CFD
:100B8000206206E0206AFAE7D4E9012115F8010B9A
:100B90009047761EF8D22046AFF30080BDE8F08182
:100BA0004E414E006E616E00494E4600696E660011
:100BB0002DE9F047814616468AB0334878440DC87F
:100BC0008DE80D0030487844801C03AC0DC884E8E3
:100BD0000D0041F69B300844372190FBF1F290FB69
:100BE000F1F5A5F1800501FB12041B3C02D564421E
:100BF000012000E00020DFF890A080460027FA44A2
:100C0000AAF1BE0A0DE0E00709D03246684607EBBC
:100C100047010AEB810100F034FB8DE80700641006
:100C20007F1C002CEFD1184F7F44AC3F18E0E80741
:100C300014D007EB04100DF1180A90E80E008AE8B2
:100C40000E00C068F04201D198190890324606A9FA
:100C500003A800F016FB03AB83E807006D10641CCB
:100C6000002DE4D132466946B8F1000F03A802D046
:100C700000F0F3FA01E000F004FBC9E90001C9F853
:100C800008200AB0BDE8F087C4540000007B00F0E3
:100C90008000704700487047684400207546FFF7A1
:100CA000F9FFAE4605006946534620F00700854629
:100CB00018B020B5FFF732FBBDE820404FF000062A
:100CC0004FF000074FF000084FF0000B21F0070134
:100CD000AC46ACE8C009ACE8C009ACE8C009ACE877
:100CE000C0098D46704710B50446AFF3008020461A
:100CF000BDE81040FFF79EBA4FF0013C50F8042BBE
:100D000051F8043B9A4221D1A2EB0C03934313EA1E
:100D1000CC1317D150F8042B51F8043B9A4215D14B
:100D2000A2EB0C03934313EACC130BD150F8042B22
:100D300051F8043B9A4209D1A2EB0C03934313EA06
:100D4000CC13DBD04FF00000704700BFD01A01BABF
:100D5000B1FA81F101F0180122FA01F0CB40C1F1A2
:100D60002001DBB2C0B2C01A2CFA01F3D11A9143B0
:100D700011EAC311E6D170475FEA400C08BF91F059
:100D8000000F4FEA8C234FEAC12243EA51514FEA48
:100D90001C5018BF00F5F0404FEA300018BF41F07A
:100DA00000415FEA6C5C00F02980BCF1FF3F08BFA6
:100DB00040F080407047130C06BF12044FF0100C37
:100DC0004FF0000C130E04BF12020CF1080C130FAD
:100DD00004BF12010CF1040C930F04BF92000CF13C
:100DE000020CD30F04BF52000CF1010C11464FF05E
:100DF0000002A0F11F00A0EB0C00704711F0004FA3
:100E000008BF704731F000413FF4D5AF0B0C06BF6F
:100E100009044FF0100C4FF0000C0B0E04BF090238
:100E20000CF1080C0B0F04BF09010CF1040C8B0F23
:100E300004BF89000CF1020CCB0F04BF49000CF178
:100E4000010CCCF12003A0EB0C0022FA03F302FA10
:100E50000CF241EA030100F10100704720F07F4CE1
:100E600080EA030023F07F47ACEB070303F57C53D4
:100E700000F0004003F1FF032DE980494FEA154BD4
:100E800009B44FEA144325EA0B4E24EA03480FF253
:100E9000042606EB132749083E785FEA320203FB7B
:100EA0000667C7F5000707FB06F64FEA54374FEA17
:100EB000D64606F1020607FB066CCCF1005C4FEA51
:100EC0001C472CEA074C07FB06F40CFB06F504EB69
:100ED00015464FEA961634BF00204FF000404FEA07
:100EE000D13706FB07FC4FEA1C4C0CFB0BF7D21B5F
:100EF00003FB0CF761EB07010CFB0EF7B0EB0740AF
:100F000072EB17420CFB08F734BFA2EB0742B2EBBF
:100F1000074261EB17414FEA0C444FEA910706FB89
:100F200007FC4FEA1C4C0CFB0BF7B0EBC74072EB15
:100F3000573203FB0CF734BFA2EBC742B2EBC742F8
:100F400061EB57310CFB0EF7B0EBC70072EB577239
:100F50000CFB08F734BFA2EBC702B2EBC70261EB90
:100F60005771039F4FEA816141EA921104EBCC046F
:100F70004FEAD1374FEA826206FB07FC42EA901241
:100F80004FEA80604FEA1C4C0CFB0BF7D21B03FBB3
:100F90000CF761EB07010CFB0EF7B0EB074072EBAF
:100FA00017420CFB08F734BFA2EB0742B2EB074233
:100FB00061EB17414FEA8C554FEA910704EB9C24F3
:100FC00006FB07FC4FEA1C4C0CFB0BF7B0EBC740D1
:100FD00072EB573203FB0CF734BFA2EBC742B2EB04
:100FE000C74261EB57310CFB0EF7B0EBC70072EB59
:100FF00057720CFB08F734BFA2EBC702B2EBC70273
:1010000061EB577115EB4C254FEA816141EA921172
:101010004FEA82624FEAD13742EA901206FB07FCA0
:1010200044F100044FEA80604FEA1C4C0CFB0BF7C4
:10103000D21B03FB0CF761EB07010CFB0EF7B0EBC7
:10104000074072EB17420CFB08F734BFA2EB0742D4
:10105000B2EB074261EB174115EB1C154FEA8131EA
:1010600041EA92414FEA823242EA90424FEA8030AE
:101070004FEA0C7644F1000448EA03434EEA0B4879
:101080004FF0000EB2EB080C71EB030724BF624671
:1010900039464EEB0E0E4FF0000B001852414941FD
:1010A0004BEB0B0BB2EB080C71EB03077BF1000B66
:1010B00024BF624639464EEB0E0E4FF0000B00186F
:1010C000524149414BEB0B0BB2EB080C71EB0307A0
:1010D0007BF1000B24BF624639464EEB0E0E51EAFF
:1010E000020718BF46F0010616EB0E7655F1000216
:1010F00054F1000103D5BDE88901BDE80088BDE8D1
:101100008901BDE80048B619524141EB0101A3F144
:101110000103704780807F7E7D7C7B7A797877764B
:1011200076757473727171706F6E6E6D6C6C6B6AC4
:101130006A69686867666665646463636261616062
:10114000605F5F5E5E5D5D5C5C5B5B5A5A595958DF
:101150005857575656555555545453535252525149
:10116000515050504F4F4F4E4E4D4D4D4C4C4C4B9F
:101170004B4B4A4A4A4949494848484747474746E6
:101180004646454545444444444343434342424222
:1011900042414141002B26D4770021D01CB54FEAB3
:1011A000370703B44FF010004FF010014FF000006C
:1011B0000FBCBDE810400BF1010BBBF1010F08BFE4
:1011C0005FEA170722BF12F1010211F101014FF08E
:1011D000004143F1000300F0004043EA0000704783
:1011E000F9D35708DAE746EA064613F1400F4FEA0B
:1011F00016461FDD13F1200FDFBF16430A460021FC
:1012000020335B42C8D0C3F1200746EA064602FA03
:1012100007F74FEA164646EA0706C3F1200722FA07
:1012200003F201FA07F721FA03F14FF0000342EA53
:101230000702B1E746EA020646EA06464FEA1646C4
:1012400046EA0106BCBF46EA0646360C4FF00003EC
:101250004FF000024FF000019EE72DE9C048934691
:1012600030B491E8380007C831EA400C48BF34EA8E
:10127000430C03D5FFF7F2FDFFF78CFFF0BCBDE890
:1012800000882DE9C048934630B491E8380007C87B
:1012900010F0804F08BF13F0804F03D100F005F825
:1012A000FFF778FFF0BCBDE8008820F07F4780EAB8
:1012B000030023F07F4C07EB0C03A3F57C5300F0F5
:1012C0000040A3F1FE0392F0000F00F0B38095F010
:1012D000000F00F077802DE901494FEA11404FEAF5
:1012E000144621EA004800FB06FC24EA064708FBF6
:1012F00006F607FB08F800FB07F718EB06484CEB6F
:10130000164C4FEA124B18EB07484FEA15464CEBC8
:10131000174022EA0B4E0BFB06FC25EA06470EFBA4
:1013200006F607FB0EFE0BFB07F71EEB064E4CEB1B
:10133000164C4FF000061EEB074E4CEB174B18EB0C
:101340000B0840F1000018EB0E0B58EB000840F1C1
:1013500000008F1A4FF000013CBFC943661B14BF49
:10136000B5EB040C00213CBFC943F61B4FEA174400
:101370004EEA8E0E27EA04454FEA1C4704FB07623B
:101380002CEA074C05FB07F70CFB05F604FB0CFCED
:1013900016EB074642EB174216EB0C4642EB1C429B
:1013A0001BEB060658EB0202414146EA9E0601D5B8
:1013B000BDE80189B619524141EB0101A3F10103D6
:1013C000BDE801894FEA14454FEA114724EA054672
:1013D00021EA074C05FB07F406FB07F70CFB06F1B7
:1013E00005FB0CFC11EB074144EB17444FEA124795
:1013F00011EB0C4144EB1C4422EA074C05FB07F2BD
:1014000006FB07F70CFB06F605FB0CFC16EB074684
:1014100042EB174216EB0C4642EB1C456A1854F19E
:10142000000148BF7047B619524141EB0101A3F1D9
:101430000103704795F0000F37D04FEA11424FEA91
:10144000144721EA024624EA074C02FB07F106FB97
:1014500007F70CFB06F402FB0CFC14EB074441EB12
:1014600017414FEA154714EB0C4441EB1C4125EAA8
:10147000074C02FB07F506FB07F70CFB06F602FB21
:101480000CFC16EB074645EB174516EB0C4645EBF7
:101490001C42121951F1000148BF7047B619524160
:1014A00041EB0101A3F1010370474FEA14454FEAF4
:1014B000114724EA054621EA074C05FB07F106FB24
:1014C00007F70CFB06F24FF0000605FB0CFC12EBD5
:1014D000074241EB174112EB0C4251EB1C4148BF54
:1014E0007047921841EB0101A3F101037047FEE739
:1014F000014800F000BA0000F802002038B50E4C98
:101500004FF4007525600025A560E560082525617C
:101510000A4C050A25706070080AA070E170100A74
:1015200020716271180AA071E3716B46224602496C
:10153000034800F080F838BD4441002095000020A9
:10154000F802002008B50C4A40F2FF110823116090
:1015500000219160C2E90313084A030A1370507016
:101560009170D170117151719171D1716B460249B5
:10157000034800F060F808BD2C4100208D000020D9
:10158000F8020020014800F041BC0000A803002040
:1015900001681823CAB2103AB2FBF3F2054B6FF39D
:1015A0000901032A9B5CC36500D9091D81650846B2
:1015B00070470000A45E000810B5014600208B694A
:1015C0008A6A4FF0C07453B1B3F5005F15D072B1A1
:1015D000012A0CD0022A0AD0032A09D104E01AB148
:1015E000012A06D0022A03D1C96AC90100D5012007
:1015F00010BDC96AA142FAD010BD002AF7D0012A55
:10160000F2D0022AF3D0032AF3D010BD704772B68D
:10161000FEE790F82020012A07D0022A05D0416A6F
:1016200041F48021416201207047006842690A4309
:10163000426100207047F0B590F820500468A4681B
:10164000012D05D0022D03D0416A41F4802153E0E1
:1016500014F0406F01D1E5004BD5C4F30164022CB6
:1016600003D9416A41F4000146E00125A5401D600F
:101670008D684FF4C0739DB1CE6835434E6845EA1E
:10168000C605066803EB0417F5514FF4C2750768E9
:1016900005EB04150E697E51097D012905D009E08D
:1016A0000E88CD6845EA4655EBE701684E5946F489
:1016B00080764E511179D2F805504FF4C67641EA42
:1016C0000525016806EB04168D511178D2F801202A
:1016D0004FF4C47541EA0221026805EB041551512B
:1016E000006803EB0411425842F00102425000200E
:1016F000F0BD416A41F4001141620120F0BD0000DB
:1017000010B590F82020012A07D0022A05D0416A9E
:1017100041F480214162012010BD3B48D0F80022F5
:1017200042F00102C0F80022D0F8002222F47C52DC
:10173000C0F80022D0F800224B6A42EA0322C0F827
:1017400000220A7D02F01F0301229A40D0F81C32C9
:101750009343C0F81C32CB69B3B9D0F80C32934331
:10176000C0F80C328C894B6864F31F434C6900EB62
:10177000C404C4F840320C890B6864F31F434C69FD
:1017800000EBC404C4F84432CB69012B16D1D0F865
:101790000C321343C0F80C320C884B6864F31F43BF
:1017A0004C6900EBC404C4F840320C89CB6864F384
:1017B0001F434C6900EBC404C4F844328B69002B0E
:1017C000D0F804320ED01343C0F804320B69002B5A
:1017D000D0F8143208D01343C0F81432096A012932
:1017E00004D008E09343EFE79343F5E7D0F81C12E9
:1017F0001143C0F81C12D0F8001221F00101C0F80A
:101800000012002010BD000000640040704730B599
:1018100090F82040012C05D0022C03D0416A41F4FD
:1018200080215DE00468002955D02469A40754D0C4
:101830004FF4D874056804EB01142D5915F0040514
:10184000956005682D594ED0ED08556005682C59F6
:1018500004F00204D4604FF4DA74056804EB011458
:101860002D5905F00F05156105682D59C5F307259C
:10187000956105682C59240C54614FF4DC7204689E
:1018800002EB0112A4581C700468A458240A5C706E
:101890000468A458240C9C700468A258120EDA70D4
:1018A0004FF4DE72046802EB0112A4581C71046844
:1018B000A458240A5C710468A458240C9C71046820
:1018C000A258120EDA71006881B1016941F020015D
:1018D0000161002030BDE468A8E7416A41F40011CD
:1018E0004162012030BD6D0D1560AFE7C16841F068
:1018F0002001C160EDE72DE9F05F05460068002496
:101900004669D0F804908768D0F80CB0D0F810A0E1
:10191000D0F81880F10748D0F90714D00121816070
:10192000B80703D5284600F010FA0CE0780702D576
:101930004FF4006407E0380702D54FF4805402E00A
:10194000284600F001FAF80516D529684FF4807092
:101950008860B80503D5284600F0F9F90CE0780551
:1019600002D544F4005407E0380502D544F480441D
:1019700002E0284600F0EAF9F80316D529684FF48A
:1019800080308860B80303D5284600F0E2F90CE007
:10199000780302D544F4004407E0380302D544F448
:1019A000803402E0284600F0D3F9300707D55FEA1B
:1019B000CB6004D52968102044F40074C860700717
:1019C0004FF0080707D55FEA0B7004D52868C76099
:1019D000284600F057F9B00706D52868C068800788
:1019E00002D0284600F050F9700607D55FEACA60B9
:1019F00004D52968102044F480640861B00607D536
:101A00005FEA0A7004D528680761284600F06CF97F
:101A1000F00606D528680069800702D0284600F045
:101A200064F9B00308D55FEAC96005D529681020BC
:101A30004860284600F05AF9F00307D55FEA0970BC
:101A400004D528684760284600F084F9300446D55C
:101A50005FEA497040D5F00504D55FEAC87001D04F
:101A600044F00104B00504D55FEA887001D544F064
:101A70000204700504D55FEA487001D544F00404FF
:101A8000300529D518F0700F26D008F070004028D6
:101A900015D006DC102809D020280AD0302816D10D
:101AA0000AE050280ED0602811D10EE044F008045E
:101AB0000DE044F010040AE044F0200407E044F094
:101AC000400404E044F0800401E044F48074286899
:101AD000816921F070018161296804204860002C2F
:101AE00005D0686A204368622846FFF78FFEBDE88C
:101AF000F09F70B5040003D094F8200010B104E00A
:101B0000012070BD204600F081F82068016841F096
:101B10000101016000F0ACFB0546052604E000F081
:101B2000A7FB401B0A2811D820684068C007F6D0E0
:101B30002068016821F00201016000F099FB054670
:101B40000BE000F095FB401B0A2806D9606A40F4C0
:101B50000030606284F82060D2E720684068800727
:101B6000EFD4207E0128206801683DD021F080015B
:101B70000160607E01282068016838D021F04001B2
:101B80000160A07E01282068016833D021F0200187
:101B90000160E07E0128206801682ED041F010012C
:101BA0000160207F01282068016829D021F0080108
:101BB0000160607F01282068016824D021F00401C1
:101BC0000160D4E902010843D4E904121143084337
:101BD0006168491E08432168C861002060620120D5
:101BE00084F82000002070BD41F08001C0E741F082
:101BF0004001C5E741F02001CAE721F01001CFE71D
:101C000041F00801D4E741F00401D9E710B586B0EE
:101C1000044614216846FEF7D0FC17492068884224
:101C200027D116480021026842F000720260006865
:101C300000F00070059011481038026842F0080268
:101C400002600068022200F0080005900320CDE940
:101C50000210CDE90002092004906946084800F00E
:101C60000FFA00220621142000F074FB142000F06B
:101C700063FB06B010BD0000006400404038024025
:101C8000000C02407047000010B58AB0044607AB54
:101C90006A460021FFF7BBFD104884421CD1009822
:101CA000A0F20120042817D80D49C0B208700D49D0
:101CB00000EB800001EB400231F810309380BDF85A
:101CC0001C305BBA21F81030BDF81E0040BA5080BD
:101CD000BDF8200040BA10810AB010BDF802002003
:101CE0008C000020F84000207047704770470000CB
:101CF00070B5044690F82000012804D0606A40F4D2
:101D00000020606218E0022084F82000206801684A
:101D100021F00101016000F0ABFA05460EE000BFC2
:101D200000F0A6FA401B0A2808D9606A40F4003087
:101D30006062052084F82000012070BD20684068A2
:101D4000C007EDD1606270BD704770477047704743
:101D50007047704770472DE9F0410446876D00F0E9
:101D600087FA064694F835000025022806D0802020
:101D7000606584F834500120BDE8F0812068016876
:101D800021F0160101602068416921F08001416164
:101D9000206C08B9A06C20B12068016821F008010E
:101DA00001602068016821F0010101600CE000F091
:101DB0005FFA801B052807D920206065032084F87E
:101DC000350084F83450D7E720680068C007EED1AA
:101DD00094F85C103F208840B860012084F83500FA
:101DE00084F834500020C7E790F83510022903D05A
:101DF0008021416501207047052180F83510006879
:101E0000016821F001010160002070472DE9F843CD
:101E100004464FF00009CDF8009063484FF4165186
:101E2000A56D0068B0FBF1F72E6894F85C100820EF
:101E300000FA01F131420FD021680A6852070BD530
:101E40000A6822F004020A6094F85C108840A860D6
:101E5000606D40F00100606594F85C104FF001087F
:101E600008FA01F0304208D021684969090604D512
:101E7000A860606D40F00200606594F85C1004207A
:101E80008840304208D021680968890704D5A860D5
:101E9000606D40F00400606594F85C10102088408C
:101EA000304218D021680968090714D5A860206855
:101EB0000168490304D50068000308D5A16C07E058
:101EC0000168C90503D4016821F008010160216C93
:101ED00009B12046884794F85C10202088403042A1
:101EE00031D021680968C9062DD5A86094F835005D
:101EF00005282068016806D0490347D5006800031B
:101F00001DD4616C1CE021F016010160206841695C
:101F100021F080014161206C08B9A06C20B12068DB
:101F2000016821F00801016094F85C103F208840AE
:101F3000A86084F8358084F83490216D1FE0E16B4F
:101F400009B120468847606D00282BD0606DC0071E
:101F500014D0052084F835002068016821F00101C3
:101F600001600098401C0090B84203D820680068C7
:101F7000C007F6D184F8358084F83490E16C0029EC
:101F800010D001B02046BDE8F04308470168C905FC
:101F9000D5D4016821F01001016084F8358084F8FF
:101FA0003490CCE7BDE8F883200000202DE9F04113
:101FB000044600F05DF906465CB1022084F8350065
:101FC000002584F834502068016821F00101016087
:101FD0000DE00120BDE8F08100F04AF9801B0528E2
:101FE00005D920206065032084F83500F2E72068D9
:101FF0000068C007F0D12268116820480140D4E988
:1020000001031843D4E90336334318436369184383
:10201000A3691843E3691843236A18430843616AB4
:10202000042903D1D4E90B13194308431060206835
:102030004069666A20F0070130460E4301270428F4
:102040000CD1A06A0643E06A40B12046FFF7B4FA1B
:1020500020B14020606584F83570BAE72068466199
:102060002046FFF795FA94F85C203F21914081606B
:10207000656584F835700020ACE700003F8010F003
:102080002DE9F84FDFF8BCA10022012503264FF00F
:102090000F090AF1040BAAF1040E00BF0B6805FA40
:1020A00002F42340A34270D10F7907F00307012FF8
:1020B00001D0022F16D187684FEA420806FA08FCC1
:1020C00027EA0C07D1F80CC00CFA08FC4CEA070C04
:1020D000C0F808C04768A7430C79C4F300149440C3
:1020E0003C4344600C79E443A4070AD0C4684FEA37
:1020F000420C06FA0CF7BC438F6807FA0CF727432B
:10210000C7600C7904F00304022C12D1D40800EB50
:10211000840CDCF820405707FF0E09FA07F824EA80
:102120000804D1F8108008FA07F848EA0408CCF847
:10213000208004684FEA420C06FA0CF7BC430F7982
:1021400007F0030707FA0CF7274307604C6814F4FD
:10215000403F70D03C4C276847F480472760246894
:1021600022F0030704F480440094384C07EB040C7D
:10217000DCF8084897074FEA177809FA08F7BC43D4
:10218000334FB84202D1002724E054E0314FB84227
:1021900001D101271EE0304FB84201D1022719E0DA
:1021A0002E4FB84201D1032714E02D4FB84201D180
:1021B00004270FE02B4FB84201D105270AE02A4F30
:1021C000B84201D1062705E0284FB84201D10727C0
:1021D00000E0082707FA08F72743CCF80878DAF870
:1021E00000405746D1F804C09C435FEACC2C00D590
:1021F0001C433C60DBF800405F46D1F804C09C43C0
:102200005FEA8C2C00D51C433C60DEF8004077462A
:10221000D1F804C09C435FEA8C3C00D51C433C6071
:10222000084F083F3C68D1F804C09C435FEACC3CAF
:1022300000D51C433C60521C102AFFF42FAFBDE8B0
:10224000F88F0000083C0140443802400030014053
:10225000000002400004024000080240000C02405E
:10226000001002400014024000180240001C02400E
:10227000014880687047000014000020024881680F
:102280000278114481607047140000200B4810B59B
:10229000016841F400710160016841F480610160EE
:1022A000016841F480710160032000F073F80F2091
:1022B00000F006F800F024F8002010BD003C0240B9
:1022C00070B50D4D04464FF47A712878B1FBF0F0EB
:1022D0000A490968B1FBF0F000F010FB48B9102C76
:1022E00007D200222146501E00F034F800206C6016
:1022F00070BD012070BD00001400002020000020EF
:102300000C4882B0016841F480410160006800F42B
:10231000804000900748001F016841F08051016033
:102320000068002200F0805000900F21901E02B043
:1023300000F010B844380240002809DB00F01F020A
:10234000012191404009800000F1E020C0F8001117
:1023500070470000F0B40E4B1B680C46C3F3022319
:10236000C3F10705042D00D90425191D072901D241
:10237000002300E0DB1E012606FA05F1491E21407C
:1023800099409E40761E16403143F0BC01F08BB858
:102390000CED00E0064900F0070208684FF6FF0365
:1023A000184040EA0220034A1043086070470000CA
:1023B0000CED00E00000FA052DE9F0470E4605009F
:1023C00065D0DFF81481D8F80000F7B200F00700FC
:1023D000B04207D288F80070D8F8000000F007007B
:1023E000B04254D128683D4C810712D5400703D52F
:1023F000206840F4E05020602878000703D520686A
:1024000040F4604020602068A96820F0F000084394
:1024100020602878C0072DD0304968680839012825
:1024200012D0022813D0032811D009688907002987
:102430002DDA216821F0030101432160FFF718FF25
:10244000814641F2883A0EE009688903EFE709689E
:102450008901ECE7FFF70CFFA0EB0901514502D918
:102460000320BDE8F0872068696800F00C00B0EB3D
:10247000810FEFD1D8F80010404601F00701B142BA
:1024800007D90770006800F00700B04201D00120B2
:10249000E7E72878400705D52068E96820F4E05090
:1024A000084320602878000706D52068296920F4B1
:1024B000604040EAC100206000F038F82168084A16
:1024C000C1F30311515CC840064908600648006822
:1024D000FFF7F6FE0020C4E7003C02400838024047
:1024E000AC5E0008200000201800002004480549C8
:1024F00000680968044AC1F38221515CC8407047F2
:102500002000002008380240BC5E0008044805494D
:1025100000680968044AC1F34231515CC840704701
:102520002000002008380240BC5E0008154810B5A5
:10253000006810F00C02144813D01449042A0FD07C
:10254000082A0ED10F4C241F2268236802F03F0294
:102550005B0207D52068C0F38810A0FB010106E0EC
:10256000084610BD2168C1F38811A1FB00010023BA
:10257000FDF7E7FE2168C1F30141491C4900B0FBAA
:10258000F1F010BD083802400024F40040787D01CD
:102590002DE9F84F04006ED02078DFF84C93C00787
:1025A000A9F104054AD009F104000168C1F38101D1
:1025B000012908D00068C0F3810002280AD1D9F8A7
:1025C0000000400206D52868800337D560680028DF
:1025D000E1D033E06068B0F5803F10D0B0F5A02FB7
:1025E000286810D020F480302860286820F48020EB
:1025F00028606068A8B1FFF73BFE06460DE028683A
:1026000040F48030F4E740F480202860F7E700BF12
:10261000FFF72EFE801B642873D828688003F7D547
:102620000CE0FFF725FE064605E000BFFFF720FEA1
:10263000801B6428F0D828688003F7D42078DFF85E
:10264000AC8280074FF0000A3ED5A748001D016804
:1026500011F00C0F08D00068C0F3810002280BD1E4
:10266000D9F80000400207D42868800716D5E06832
:10267000012800D112E033E1E068B8B10120C8F8C8
:102680000000FFF7F5FD064605E000BFFFF7F0FD8F
:10269000801B0228C0D828688007F7D528682169E0
:1026A00020F0F80040EAC10028600DE0C8F800A062
:1026B000FFF7DEFD064604E0FFF7DAFD801B022887
:1026C0001FD828688007F7D42078000722D5864FC6
:1026D00087486169703771B101210160FFF7C8FD5A
:1026E000064604E0FFF7C4FD801B022809D83868BD
:1026F0008007F7D50EE0C0F800A0FFF7B9FD064649
:1027000005E082E0FFF7B4FD801B02287DD8386821
:102710008007F7D42078400768D5DFF8CCB10027D0
:102720000BF13C0BDBF80000C0000BD4DBF8001011
:1027300041F08051CBF80010DBF80000012700F0D9
:10274000805000906B4E3068C00510D4306840F463
:1027500080703060FFF78CFD009005E0FFF788FD8A
:102760000099401A022850D83068C005F6D55E4E50
:10277000A0686C3601280FD00528306810D020F0F2
:1027800001003060306820F004003060A068B8B10B
:10279000FFF76EFD00900FE0306840F00100F4E7B5
:1027A00040F004003060F7E7FFF762FD0099411A3E
:1027B00041F28830814266D830688007F4D50EE057
:1027C000FFF756FD009007E0FFF752FD0099411A10
:1027D00041F28830814256D830688007F4D42FB156
:1027E000DBF8001021F08051CBF80010A069C8B3CD
:1027F0003D49091D0968C1F3810102294AD0022817
:10280000504607D0C8F8600000E03CE0FFF730FD1C
:1028100004463BE04746C8F86000FFF729FD06463E
:1028200005E000BFFFF724FD801B02282BD8286895
:102830008001F7D4D4E907010843A16A2E4A490868
:1028400002EB0141626A41EA8211084394F82C10BC
:1028500040EA0161C9F8001001203866FFF708FD61
:10286000044606E03EE000BFFFF702FD001B022821
:1028700009D828688001F7D534E000BFFFF7F8FCDD
:10288000001B022802D90320BDE8F88F28688001C8
:10289000F4D427E00128F7D0D9F80000E26900F469
:1028A000800191421CD1226A00F03F01914217D170
:1028B00047F6C071626A0140B1EB821F10D1A26A73
:1028C0004FF0FF3300F4403103EB5202B1EB024F03
:1028D00006D194F82C1000F07060B0EB016F01D0BD
:1028E0000120D1E70020CFE7043802400000474232
:1028F000800E4742007000400000FFFF10B5401EF0
:10290000B0F1807F01D3012010BD4FF0E024606161
:102910000F21601700F0C7FD0020A0610720206193
:10292000002010BD70477047F8B50168044608687C
:10293000CA684B6910F00F0F4FF0000559D003F033
:10294000010602F49077374365D0C10705D0D10561
:1029500003D5216C41F001012164410705D5D90758
:1029600003D0216C41F002012164810705D5D9070C
:1029700003D0216C41F004012164010707D502F066
:102980002001314303D0216C41F008012164216C06
:1029900000293AD0800604D5900602D5204600F0E2
:1029A00022FC20684069216CC0F38010090700D424
:1029B00060B3204600F0F0FB20684069400621D556
:1029C0002068143050E8001F21F0400140E8001258
:1029D000002AF5D1A06BA8B16C490165A06BFFF787
:1029E00003FA002811D0A06B016D01B0BDE8F040E2
:1029F000084783060FD593060DD52046BDE8F8405D
:102A000000F0F1BB2046FFF78EFFF8BD2046FFF730
:102A10008AFF2564F8BD266B2023012E79D1C606D6
:102A200077D5D60675D5086848680090486940068D
:102A300040D5A16B086840680004000CEAD0A28D64
:102A40008242E7D9E085C869B0F5807F2DD0206843
:102A50000C3050E8001F21F4807140E80012002A79
:102A6000F5D12068143050E8001F21F0010140E842
:102A70000012002AF5D12068143050E8001F21F020
:102A8000400140E80012002AF5D184F83E30256369
:102A900020680C3050E8001F21F0100140E80012BF
:102AA000002AF5D1A06BFFF756F9A08DE18D401AF1
:102AB00081B229E0A08DE18D401A81B2E08D00281D
:102AC000A8D00029A6D020680C3050E8002F22F4AE
:102AD000907240E80026002EF5D12068143050E8AE
:102AE000002F22F0010240E80026002EF5D184F8E4
:102AF0003E30256320680C3050E8002F22F0100291
:102B000040E80023002BF5D12046FFF70BFFF8BD6E
:102B1000FFE705062BD5150629D594F83D00212899
:102B2000F5D1A068B0F5805F01D12069B0B1206A0D
:102B3000411C2162216800784860E08C401E00043E
:102B4000000CE084E3D12068C16821F08001C160FD
:102B50002068C16841F04001C160D8E7206A008860
:102B6000C0F308004860206A801C2062E5E7400648
:102B7000CDD55006CBD5CA68204622F04002CA60A7
:102B800084F83D3000F0B9F8C1E700008931000851
:102B900070B5040004D094F83D00002510B106E0A3
:102BA000012070BD84F83C50204600F023F824201A
:102BB00084F83D002068C16821F40051C1602046BE
:102BC00000F072FB2068016921F4904101612068E6
:102BD000416921F02A0141612068C16841F4005136
:102BE000C1602564202084F83D0084F83E00002068
:102BF00070BD0000F0B587B0064614216846FDF7A9
:102C0000DCFC364F306800253549022203230724B7
:102C1000B84221D132481430066846F010060660EA
:102C2000006800F010000590086840F0010008609E
:102C30000868694600F00100059058028DE82500FB
:102C4000CDE903342748FFF71BFA00220521252090
:102C5000FFF780FB25203DE0234FB8423CD12048C0
:102C60001030076847F480270760006800F4802070
:102C70000590086840F0040008600868694600F0A4
:102C8000040005904FF440608DE82500CDE9033441
:102C90001648FFF7F5F9174C154820604FF0006013
:102CA000C4E901054014C4E9035065614FF44030A4
:102CB000A561C4E9075020466562FFF777F908B1BE
:102CC000FEF7A5FCB463002204212720A663FFF7CA
:102CD00041FB2720FFF730FB07B0F0BD001001409B
:102CE0003038024000000240004800400008024026
:102CF00028600240A803002070477047FEE70000EC
:102D00000F4810B50D4901600321416000214FF4C7
:102D100010228160C0E903124FF400124261017673
:102D200041768176C17601774177FEF7E2FE002891
:102D300003D0BDE81040FEF76ABC10BD006400403F
:102D4000F8020020094808B5016841F4001101604B
:102D50000068002200F40010009005210C20FFF70D
:102D6000F9FABDE808400C20FFF7E6BA3038024017
:102D700010B59CB01C2216496846FDF7ECFB0021FB
:102D8000684601F014FD134C11491C2220601C31CF
:102D900007A8FDF7E0FB002107A801F008FD0C499A
:102DA00060601C2238310EA8FDF7D5FB00210EA86B
:102DB00001F0FDFC0649A0601C22543115A8FDF766
:102DC000CAFB002115A801F0F2FCE0601CB010BDA8
:102DD000345E000800000020114808B5016841F089
:102DE00008010160016801F008010091016841F0EB
:102DF00004010160016801F004010091016841F0E3
:102E000001010160016801F001010091016841F0D8
:102E100080010160006800F08000009008BD0000A3
:102E2000303802400C4810B50A4901604FF4E131D6
:102E30004160002181600C22C160C0E904128161FF
:102E4000C161FFF7A5FE002803D0BDE81040FEF7E2
:102E5000DEBB10BD00100140200300200D4810B55E
:102E60000B4901600C49416000214FF48062816090
:102E7000C0E903120C22C0E90521C161FFF788FEF9
:102E8000002803D0BDE81040FEF7C1BB10BD000014
:102E90000048004064030020A0860100FEE7FEE732
:102EA000A0B1D0ED101AC0ED111A90ED0F1A80EDFF
:102EB000101AC0ED060A80ED070A30EEC00A80ED58
:102EC0000F0A017829B101293BD078E09FED3D0A36
:102ED0007047D0ED010A60EE801AC0ED091AD0EDFE
:102EE0000A0A90ED022A42EE000A30EE410AC0EDD5
:102EF0000A0A90ED0D2A80ED0E2A90ED0C2A80ED45
:102F00000D2A80ED0C0A90ED031A21EE001A80EDD7
:102F10000B1A90ED050AF4EEC00AF1EE10FA09DC86
:102F2000B1EE400AF4EEC00AF1EE10FA02D390EDD1
:102F30000A0A01E080ED0A0A31EE800A30EE010A49
:102F40002BE070EE410A90ED012A20EE822A80EDFE
:102F5000092AD0ED020A60EE800AC0ED0A0AD0ED1F
:102F60000D2A72EE200AC0ED0E2AD0ED0C2AC0ED1B
:102F70000D2AF0EE002A01EE620A30EE210A80ED01
:102F80000C0A90ED031A21EE000A80ED0B0A30EED8
:102F9000800AD0ED080A30EE200A80ED080AD0ED54
:102FA000040AB4EEE00AF1EE10FA06DCF1EE600A73
:102FB000B4EEE00AF1EE10FA01D2C0ED080A90ED8D
:102FC000080A704700000000002819D09FED0D0A84
:102FD00080ED110A80ED100A80ED0F0A80ED0E0AD7
:102FE00080ED0D0A80ED0C0A80ED0B0A80ED0A0AD7
:102FF00080ED090A80ED080A80ED060A80ED070AD7
:103000007047000000000000002828D0002A26D0C9
:10301000017092ED001A80ED011A92ED011A80ED17
:10302000021A92ED021A80ED031A80ED040A9FED58
:103030000C0AC0ED050A80ED0E0A80ED0D0A80ED48
:103040000C0A80ED080A80ED0B0A80ED0A0A80ED7B
:10305000090A80ED110A80ED100A80ED0F0A704711
:103060000000000030B5144B1C68656945F0400550
:1030700065611B68DC6844F01004DC600F4B1C6861
:10308000256825F0010525601C682568ED07F7D146
:103090001D680B4CAC601C68E06018680161186822
:1030A00042601868016841F4802101601868016875
:1030B00041F00101016030BD64030020A80300203D
:1030C00004480040012001F066FBFBE710B5FFF764
:1030D000D5F802F071F8012803D0BDE8104001F0E6
:1030E000FDBF10BD30B593B030216846FDF765FADD
:1030F00014210CA8FDF761FA1D480025016841F074
:1031000080510160006800F08050119019480168FA
:1031100041F4804101600068022400F48040119075
:103120000120039010200490009406940820CDE91B
:103130000750A820CDE9090404200B906846FFF74A
:1031400027FA08B172B6FEE70CA90F2081E831001A
:103150004FF4A0500F904FF48050109005210CA810
:10316000FFF72AF9002801D072B6FEE713B030BD90
:1031700040380240007000400248016841F470018C
:103180000160704788ED00E010B5806B0021C185BB
:10319000C184FFF7C8FB10BD01680C3151E8002F56
:1031A00022F4907241E80023002BF5D1016814311C
:1031B00051E8002F22F0010241E80023002BF5D155
:1031C000016B012909D101680C3151E8002F22F06F
:1031D000100241E80023002BF5D1202180F83E1099
:1031E00000210163704708B590F83E10222901D0F4
:1031F000022008BD82684FF480539A4201D10169D0
:1032000021B1816A9A421BD04AB10AE00268816A00
:103210005268C2F308020A80816A891C08E00269C8
:1032200072B10268526802F07F020A70816A491C1A
:103230008162C18D491E0904090CC18503D019E0C2
:1032400002685268F1E70168CA6822F02002CA6089
:103250000168CA6822F48072CA6001684A6922F073
:1032600001024A61202180F83E10016B012903D040
:10327000FFF742FD002008BD0021016301680C3109
:1032800051E8002F22F0100241E80023002BF5D175
:1032900001680A68D20602D50A6849680091818DE2
:1032A000FFF740FBE6E7000070B5044600680169DF
:1032B000E26821F44051114301612169A068E2698B
:1032C00008436169114308432168CA6849F20C63E5
:1032D0009A430243CA6020684169A26921F440719F
:1032E0001143416131492068884202D03049884207
:1032F00002D1FFF70BF901E0FFF7F8F8E2690023CC
:10330000192164253226B2F5004F626828D0A0FB4F
:103310000101930F9200FDF714F80146B0FBF5F0A0
:103320006FF01802504301EB800006EB0010B0FB79
:10333000F5F000F0F002B1FBF5F002EB0012B1FB8A
:10334000F5F06FF01803584301EB800006EB001016
:10335000B0FBF5F000F00F0021681044886070BDEC
:10336000A0FB010192185B41FCF7EBFF0146B0FBAB
:10337000F5F00201B1FBF5F06FF01803584301EBD3
:10338000800006EBC000B0FBF5F000F0F80002EBA7
:103390004002B1FBF5F0584301EB800006EBC000A2
:1033A000B0FBF5F000F00700D6E700000010014088
:1033B000001401400148FFF7B7BA000020030020C5
:1033C000264818B400680168890604D50168406879
:1033D000009018BC704722490968C906F9D50168F0
:1033E0004068204A0090106801684FF024030C03E5
:1033F0001D49046824F00104046016D41068446870
:10340000C4F12404A4B20C8043601068016841F444
:10341000002101601068016841F001010160122C77
:10342000D7D1124901F1170015E014686068C0F1A6
:10343000240080B2088063600D498B6A23F4002366
:103440008B6211680A6842F001020A601228C0D13A
:10345000064901F13B0018BC01F006BC64030020E2
:1034600000480040A8030020A000002008440020DD
:1034700000600240FEE703B401984100009850EA62
:10348000C12018BF04204A0D18BF40F0010040F2CF
:10349000FF72B2EB515F08BF40F00200012808BF85
:1034A000052002B070470907090E002804DB00F16F
:1034B000E02080F80014704700F00F0000F1E020D9
:1034C00080F8141D7047000010B52F499FED2C1B8C
:1034D0002DED020B84B0059820F000408842D8BF43
:1034E0009DED040B2DDD2949884209D1049840B98E
:1034F0004FF00100FDF791F800F0A2FC06B010BDFE
:1035000005DB9DED040B00F08FFC06B010BD684696
:103510009DED040B00F0A0F810F0030004BF9DED3A
:10352000021B9DED000B0CD001280ED09DED021B5F
:103530009DED000B022817D0012000F0DDFB06B046
:1035400010BD00F0A5FA06B010BD9DED021B9DED6B
:10355000000B012000F0D0FB51EC100B01F018FF24
:1035600006B041EC100B10BD00F092FA51EC100BBC
:1035700001F00EFF06B041EC100B10BD0000000082
:103580000000000000000000FB21E93F0000F07F88
:1035900010B52F499FED2C1B2DED020B84B0059823
:1035A00020F000408842DCBF00209DED040B32DD9E
:1035B0002849884209D1049840B94FF00100FDF72D
:1035C0002CF800F03DFC06B010BD05DB9DED040BB2
:1035D00000F02AFC06B010BD68469DED040B00F01B
:1035E0003BF810F0030011D0012818D09DED021B0C
:1035F0009DED000B02281AD000F04AFA51EC100B96
:1036000001F0C6FE06B041EC100B10BD9DED021B93
:103610009DED000B012000F06FFB06B010BD9DED8D
:10362000021B9DED000B00F033FA06B010BD012027
:1036300000F062FB51EC100B01F0AAFE06B041EC69
:10364000100B10BD00000000000000000000000092
:10365000FB21E93F0000F07F2DE9F14F04462DEDFD
:10366000020B2DED088B8AB09FEDE70B80ED020B6E
:10367000139EE74826F0004585420ADC9DED120BBB
:10368000002084ED000B0AB0BDEC088B03B0BDE850
:10369000F08FE0489FEDE0AB9FEDE1BBA84247DD36
:1036A000E14F9FEDE39B9FEDE48B9DED120B53ECFF
:1036B0001A2B51EC100B002E1CDD02F053FA41ECDA
:1036C000100BBD4208D053EC1B2B51EC100B02F039
:1036D00049FAC4E900010BE053EC192B51EC100B33
:1036E00002F040FA53EC182B02F03CFAC4E9000156
:1036F0000120C8E701F08AFE41EC100BBD4208D062
:1037000053EC1B2B51EC100B01F080FEC4E90001BF
:103710000BE053EC192B51EC100B01F077FE53EC3E
:10372000182B01F073FEC4E900014FF0FF30AAE747
:10373000C348A84279DB9DED120B51EC100B00F051
:1037400019FE41EC180B9FEDC00B53EC102B02F04F
:10375000FFF89FEDBF1B53EC112B01F057FE02F059
:1037600061F8074602F08DF841EC190B53EC1A2B67
:1037700002F0EEF853EC182B02F0E8F941EC180BCC
:1037800053EC1B2B51EC190B02F0E2F8DFF8C8A246
:1037900041EC100B4FEA15580125FA4453EC102B5D
:1037A00051EC180B02F0DEF9032DC4E900013DD005
:1037B000C1F30A5005EB4511A8EB00001139814215
:1037C00034DA0AEB051BB0EE48AA9BED000BF0EED5
:1037D00068AA53EC102B51EC190B02F0B9F841EC2C
:1037E0001B0B51EC1A0B53EC1B2B02F0BBF941ECF9
:1037F000180B51EC1A0B53EC182B02F0B3F953ECE5
:103800001B2B02F0AFF99BED020B41EC1A0B53ECB2
:10381000102B51EC190B02F09BF853EC1A2B02F011
:10382000A1F941EC100B6D1CB8E70EE0002EA8BF0B
:103830003846BFF628AF94ED000B51EC100B01F0A9
:10384000A7FDC4E9000178421DE7C6F3130040F468
:10385000801EC6F30A50A0F2F530471100F01F0594
:10386000C5F12000DDF848B00890002006900790D0
:103870000520EC467949002D07EB0002794408BF8A
:1038800051F8221009D051F8223001EB8201AB40EF
:103890004A68089922FA01F11943A1FB0E26A1FBFF
:1038A0000B131A449A4234BF0123002303EB06088A
:1038B0000CEB8003D3E901A60E448E4234BF0121F4
:1038C000002192448A4411B1924502D903E0924505
:1038D00001D2012100E00021C3E901A641444CF8D6
:1038E0002010011EA0F10100C4DC029800F100507C
:1038F000850F0298DDE903678000DDF8148001F090
:10390000C0FF41EC1A0B304601F0D2FF9FED541B73
:1039100053EC112B02F01CF841EC1B0B384601F064
:10392000C7FF9FED511B53EC112B02F011F841EC36
:10393000180B404601F0BCFF9FED4D1B53EC112BC3
:1039400002F006F841EC190B51EC180B53EC192B53
:1039500001F05CFD53EC1B2B01F058FD53EC1A2BCE
:1039600001F054FDCDE90801002008909DED080B01
:1039700053EC1A2B51EC100B02F0F4F853EC1B2B08
:1039800002F0F0F853EC182B02F0ECF853EC192B82
:1039900002F0DCF89FED381B53EC112B01F0D8FF3F
:1039A0009FED370B41EC180B53EC102B9DED080BE2
:1039B00051EC100B01F0CCFF53EC182B01F026FD5D
:1039C0009FED310B41EC180B53EC102B9DED080BC8
:1039D00051EC100B01F0BCFF53EC182B01F016FD5D
:1039E00041EC100B139810F0004F06D06D4251ECD3
:1039F000100B01F0CDFC41EC100B284684ED000BC0
:103A000041E600000000000000000000000000008F
:103A1000FB21E93F7CD9024000004054FB21F93FE3
:103A20003163621A61B4D03DFB21F93F0000000010
:103A30000000601A61B4D03D7370032E8A19A33B55
:103A4000FB2139410000000083C8C96D305FE43FAD
:103A5000000000000000E03F7A270000C8260000B8
:103A6000000000000000103E000000000000103CBC
:103A7000000000000000103A182D4454FB21F93DCD
:103A80003326A611460B113C00000054FB21F93DE2
:103A900010B52DED040B2DED088B82B0B0EE419AE0
:103AA000F0EE619A0B9820F000449FED4BABB4F11F
:103AB000795F11DA9DED0A0B51EC100B01F0B2FEAB
:103AC000002801BFB0EE4A0AF0EE6A0A02B0BDEC6F
:103AD000088B04BF04B010BD9DED0A0B53EC102BF6
:103AE00051EC100B01F034FF41EC180B3C4806215F
:103AF000B0EE480AF0EE680A784400F081F853EC22
:103B0000182B51EC100B01F023FF9DED0A0B41EC3B
:103B10001B0B53EC192B51EC100B01F019FF41EC6E
:103B2000190B53EC1B2B51EC180B01F011FF53EC4C
:103B3000192B02F017F89FED2C0B41EC190B53ECED
:103B4000102B51EC180B01F003FF41EC100B28482F
:103B5000844210DA53EC192B51EC100B02F002F8EE
:103B600053EC1A2B01F0F2FF41EC100B02B0BDEC4C
:103B7000088B04B010BD1F48A042BCBF9FED1E1BA8
:103B80008DED001B06DBA4F50010019000200090D5
:103B90009DED001B51EC100B53EC112B01F0E2FFDB
:103BA0009DED000B41EC180B53EC102B51EC1A0B54
:103BB00001F0D8FF41EC1A0B53EC192B51EC180B08
:103BC00001F0D0FF53EC1A2B01F0C0FF41EC100BB9
:103BD000CCE7000000000000000000000000F03F03
:103BE000EC23000000000000000000000000E03FA7
:103BF0003333D33F0000E93F000000000000D23F14
:103C000070B504462DED028B4D1E00EBC500B0EEE5
:103C1000408AF0EE608A90ED000B35F0060017D078
:103C200053EC182B51EC100B01F092FE41EC100BF1
:103C30006D1E04EBC50090ED001B51EC100B53EC16
:103C4000112B01F0E3FB41EC100B35F00600E7D13E
:103C5000022D36D0042D1CD0062D1CBFBDEC028BCE
:103C600070BD53EC182B51EC100B01F071FE94ED6C
:103C70000A1B53EC112B01F0C9FB53EC182B01F07C
:103C800067FE94ED081B53EC112B01F0BFFB41ECD8
:103C9000100B53EC182B51EC100B01F059FE94ED66
:103CA000061B53EC112B01F0B1FB53EC182B01F068
:103CB0004FFE94ED040B53EC102B01F0A7FB41ECED
:103CC000100B53EC182B51EC100B01F041FE94ED4E
:103CD000021B53EC112B01F099FB53EC182B01F054
:103CE00037FE94ED001B53EC112B01F08FFBBDEC64
:103CF000028B41EC100B70BD31B504462DED040B69
:103D00002DED0A8BB0EE41BAF0EE61BA0B989DED45
:103D10000A0B20F00040B0F1795F0DDA51EC100B86
:103D2000FFF7A9FB042808BF00F09AF89DED0A0BE5
:103D3000BDEC0A8B05B030BD53EC102B51EC100BD1
:103D400001F006FE41EC180B9DED0A0B53EC182B0D
:103D500051EC100B01F0FCFD41EC190B2C48B0EEBE
:103D6000480AF0EE680A05217844FFF749FF9FED05
:103D70002ACBB0EE40AAF0EE60AA9CB353EC1C2B09
:103D800051EC190B01F0E4FD41EC1C0B53EC1A2B28
:103D900051EC190B01F0DCFD9FED210B41EC190BEF
:103DA00053EC102B51EC1B0B01F0D2FD53EC192BF3
:103DB00001F0D8FE53EC182B01F0CAFD53EC1B2B7D
:103DC00001F0D0FE53EC1C2B01F0CCFE9DED0A1B44
:103DD00053EC112B01F0BAFEBDEC0A8B05B041EC9F
:103DE000100B30BDFFE753EC1A2B51EC180B01F010
:103DF000AFFD53EC1C2B01F009FB53EC192B01F028
:103E0000A7FD9DED0A1B53EC112B01F0FFFAE3E730
:103E10007422000000000000495555555555C5BF96
:103E2000000000000000E03F10B553EC102B51ECF7
:103E3000100B01F0EBFA41EC100B10BD000000007C
:103E40009FED050B10B553EC102B51EC100B01F04E
:103E500091FB41EC100B10BD0000000000000000C1
:103E60009FED050B10B553EC102B51EC100B01F02E
:103E70006FFD41EC100B10BD0000000000000010B1
:103E800030380A2801D2012070470020704770475F
:103E9000D0ED000AF4EEC00AF1EE10FA06DCB1EE45
:103EA000400AF4EEC00AF1EE10FA01D280ED000AE9
:103EB000704710B5040023D06068D4ED040AB0F94F
:103EC000020000EE100A04F16C00B8EEC01A94ED86
:103ED000030A00F079FA84ED2A0A6068F0EE400ADD
:103EE000B0F9020000EE100A04F11C00B8EEC00A9E
:103EF000FEF7D6FFBDEEC00A10EE100AA4F8AC0023
:103F000010BD00002DE9FF41044600200090019003
:103F10000290039004F5F871684691EC030A00F0F2
:103F2000BDF9207A6E4650B99FED130A002000BFFC
:103F300006EB8001401C81ED000A0428F8DB002517
:103F400006EB8500D0ED000A05EB850004EB800749
:103F500004EB0010C7ED060A97ED050A5C30FEF78A
:103F60009FFFBDEEC00A6D1C042D10EE100AB88331
:103F7000E6DBBDE8FF8100000000000000B58BB06B
:103F800000200121CDE906010891009001900290E6
:103F900003900590049069460548FDF7B1FB04487D
:103FA000FDF7A6FE02210248FDF733FB0BB000BD72
:103FB000F802002010B504462DED048B007A02288B
:103FC00046D16068DFED249A94ED7C9A90ED020A68
:103FD000D4ED7D8AB1EE400A10EE100A01F0ACFE7D
:103FE00041EC100BFFF7D4FA51EC100B01F0DCF9A7
:103FF00008EE100A606890ED020AB1EE400A10EE79
:10400000100A01F099FE41EC100BFFF75DFA51EC3C
:10401000100B01F0C9F900EE100A60EE090A20EE5B
:10402000280A48EE280A08EE490AC4ED7C0A84ED05
:104030007D0AF0EE690AC4ED7B0A606890ED020A21
:1040400004F5CE70FEF72CFFB1EE400A84ED7E0A37
:10405000BDEC048B10BD00000000000010B504464C
:10406000007A012803D030B1022808D00AE02046A7
:1040700000F034F906E0204600F0E2F802E02046C5
:1040800000F03AF8D4ED060A94ED050A9FED051A02
:1040900000F03CF92046FFF78DFF2046BDE81040B8
:1040A000FFF730BF0000000010B500281ED000212F
:1040B0009FED0F0A9FED0F1A01EB810300EB8302C6
:1040C00000EB0313D468491C0429B4F9024000EE44
:1040D000904AF8EEE00A60EE800AC2ED050AD3EDE0
:1040E000230A60EE810AC2ED040AE5DB10BD000080
:1040F0000A01DA390000FA4300280BD00268917AED
:10410000012908D0DFED130AB0EE600AC0ED7C0A89
:1041100080ED7D0A7047B2F9021001F10A03152BF8
:1041200000D20021B2F9002002F10A03152B00D2BF
:10413000002200EE101ADFED080A9FED081AB8EE13
:10414000C00A60EE200A00EE102AB8EEC00A20EE87
:10415000010ADBE700000000A69BC4BB0AD7A3BB93
:1041600070B504002DED028B3DD00120207200F0CF
:104170001FF9206000F024F99FED1C0A606084EDB7
:104180007C0A84ED7D0A9FED1A8ADFED1A8A84EDA0
:104190007E0A0025E8B200F003F9014605EB850030
:1041A00004EB800204EB0010D160F0EE480AB0EEA0
:1041B000680A114A00215C30FEF726FF6D1C042DB1
:1041C000E8DB0D4ADFED0D0AB1EE080A0C320021E2
:1041D00004F5CE70FEF718FFBDEC028B2046BDE85B
:1041E0007040FFF761BFBDEC028B70BD00000000A6
:1041F0000000FA4400007A46C45E0008CDCC4C3E74
:1042000000280CD0427A017A8A4208D0022A05D0CE
:10421000022903D19FED020A80ED7B0A41727047AB
:1042200000000000002807D00168897A022904D024
:10423000012901D10221017270470021FBE7000032
:10424000002807D09FED040A80ED7C0A80ED7D0AEE
:1042500080ED7E0A70470000000000000E48FFF766
:104260007FFF0D4C0C48FFF7DDFF0B48FFF7C8FF41
:104270000948FFF719FF0848FFF7F0FEB4F9583076
:10428000B4F94420B4F93010B4F91C00FDF736F944
:10429000022000F017FEE5E75C410020F1EE401A35
:1042A00031EEE02ADFED0C1A01EE212A80ED002A22
:1042B00030EE602A01EE212A80ED012A30EE202A1C
:1042C00030EEC00A01EE212A01EE210A80ED022A19
:1042D00080ED030A70470000CDCCCCBE002811D081
:1042E00000219FED090A0A4680ED7C0A80ED7D0AD7
:1042F00080ED7E0A01EB810300EB8303491C9A8366
:104300000429F7DB7047000000000000F0B52DED38
:10431000028B85B0B0EE608AF0EE408A11EE100A92
:1043200001F00AFD06460F4618EE100A01F004FDE2
:1043300004460D4618EE900A01F0FEFC8DE8F000F0
:1043400041EC100B04A053EC102BFCF771F805B0F6
:10435000BDEC028BF0BD00007B706C6F74746572F5
:104360007D252E34662C20252E34662C20252E34D7
:10437000660A000082B0CDE9000121F00040019002
:104380009DED000B02B051EC100B704703490A6819
:104390005206FCD5C2B24A607047000000100140CE
:1043A000024900EB800001EB40007047F84000201C
:1043B0000048704708440020004870472041002012
:1043C000004870475C43002000B5B0EE412A010070
:1043D0003CD081ED040AC1ED030A30EEC00A9FED26
:1043E0001D1ADFED1D0A00F095F981ED050AD1EDEA
:1043F000000A01F12C0060EE800AC1ED0A0AD1ED3D
:104400000B0A91ED011A41EE000AC1ED0B0A91ED84
:10441000020A20EE020A81ED0C0A91ED080AFFF76C
:1044200037FD91ED0A0AD1ED0B0A01F1340030EEAF
:10443000200AD1ED0C0A30EE200A81ED0D0A91ED33
:10444000070AFFF725FD91ED0D0A00BD9FED030A58
:1044500000BD0000DB0F4940DB0F49C00000000039
:10446000002811D09FED090A80ED040A80ED030AAF
:1044700080ED050A80ED060A80ED0C0A80ED0B0A3E
:1044800080ED0A0A80ED0D0A704700000000000070
:1044900000280BD080EC031A9FED051A80ED051A59
:1044A00080ED041AC0ED080A80ED070A704700008D
:1044B0000000000000280CD0017A012905D0022953
:1044C00005D0002905D100F0B5B800F01DB900F005
:1044D00001B8704710B5040028D02068817A0129FE
:1044E00008D09FED130A84ED040A2046BDE8104071
:1044F000FFF7DFBCB0F904100E4801F10A02152ADB
:1045000000D20021018008B201F0BBF99FED0A1B27
:1045100053EC112B01F01CFA9FED091B53EC112BEE
:1045200001F028F800F040FF2061DEE710BD000038
:10453000000000009E0000201F85EB51B81EF9BF4F
:104540000000000000A08440002818D041680A88BC
:104550004189511AB1F5805F02DDA1F5005104E0F7
:1045600011F5805F01DA01F5005100EE101ADFED60
:10457000040AB8EEC00A20EE200A80ED030A704754
:10458000DB0F493A70B50446FFF716FF606040F252
:10459000A3209FED200A608184ED050A9FED1E0A8D
:1045A00084ED060AFFF704FF20600120DFED1B0AFF
:1045B0002072607204F16C00B0EE602AF0EE601AB6
:1045C0009FED171A9FED170A0546FFF761FF04F1EB
:1045D0001C00DFED150A9FED150A154A002106465D
:1045E000FEF712FD2846FFF73BFF3046FEF7ECFCD6
:1045F0002046FFF7A9FF94ED030A84ED040A6068E2
:10460000B0F9020000EE100AB8EEC00A84ED2A0AE2
:1046100070BD0000DB0F4940DB0F49C00000000007
:10462000000048430000704200409C450060EA469C
:10463000DC5E0008002805D09FED030A80ED040A27
:10464000FFF737BC7047000000000000002809D0C9
:10465000017A022906D1417A022903D090ED030A9A
:1046600080ED040A7047000070B5040028D020686F
:104670000225807A012807D001202072607A012863
:10468000207A06D048B119E0207A0028F6D02572A9
:10469000F4E7012812D000202072E06801F04CFB02
:1046A00000EE100A9FED071B21F0004110EE100AEA
:1046B00053EC112B01F010F900D22572207A6072B0
:1046C00070BD0000000000A09999B93F0D48FFF7A8
:1046D00059FF0C4C00F07EFB0A48FFF7C5FF00F0C5
:1046E00099FB0848FFF7B2FF0648FFF72DFF054882
:1046F000FFF7E0FEB4F9AC00FCF724FF022000F065
:10470000E1FBE7E758430020002802D00021A0F891
:10471000AC107047B4EEE01AF1EE10FA0FD371EE60
:10472000601AB4EEC10AF1EE10FA03DC08E000BF33
:1047300030EE610AB4EEC10AF1EE10FAF8DC70470F
:10474000B4EEE00AF1EE10FA02D3704730EE210A1F
:10475000B4EEE00AF1EE10FAF8D37047FDF796FDDB
:10476000FEF7C0FCFEF738FBFEF7ECFAFEF7C8FADE
:10477000FEF774FBFEF756FBFFF700FC00F06CFA47
:10478000FEF7F6FA00F00EF8FEE701460020842955
:1047900000D0C81C704710B500B9012000F092FB92
:1047A000002010BD10B500F0B3FB002010BD7FB598
:1047B0000D4604464169B0F9080081B1A16971B1A3
:1047C000FFF7E3FFD4E905128DE80700D4E90010F4
:1047D0002B46226900F0C5FC039004B070BDFFF7C2
:1047E000D4FF03A9CDE90001208A2B4682B2D4E987
:1047F000001000F089FC012801D00020EDE70398AB
:10480000EBE700002DE9F041184C0F460546E6683D
:104810002068001D00F08EFA38B9206890F82C103E
:1048200001208840216981432161681C07D137B18B
:104830002168BDE8F0410E48091D00F0BFBA2068AC
:104840003544B5424560216805D2A06BBDE8F04112
:10485000091D00F09BBA606B091D00F097FAA06A71
:10486000854200D2A562BDE8F0810000240000204E
:10487000E40400202DE9F041054600F0ABFA2E4C8F
:10488000A068401CA06020682C4F10B1606940B344
:104890002DE02560A068012829D1002606EB8600BE
:1048A00007EB800000F064FA761C072EF6D323484D
:1048B0008C3000F05DFA2148A03000F059FA1F4812
:1048C000B43000F055FA1D48C83000F051FA1B48CA
:1048D000DC3000F04DFA19488C3060631430A0636E
:1048E00005E02068E96AC06A884200D82560606AED
:1048F000401C6062E96A01202269884010432061FF
:1049000001EB810007EB8000291D00F057FA00F051
:1049100081FA606900280CD02068E96AC06A884280
:1049200007D207494FF080500860BFF34F8FBFF3A5
:104930006F8FBDE8F08100002400002008040020F3
:1049400004ED00E010B5044690F8510058B101287C
:104950000CD002280FD0502080F31188BFF34F8F66
:10496000BFF36F8FFEE7206B00F068FA2046BDE8CA
:10497000104000F063BA10BD10484FF47051420768
:1049800006D0C01D0D4920F00700411AC1F5705135
:104990000B4A00230144C2E900030839183A21F008
:1049A000070111604B600B600B1AC0E900139360A4
:1049B0004FF000405360506170470000F804002041
:1049C00078000020144E154CA6F1C8074FF080580F
:1049D000DFF84C9012E000BF00F0FCF9F068C56809
:1049E000281D00F0A7F9A068401EA0606068401E66
:1049F000606000F00FFA2846FFF7A4FF6068002807
:104A0000EAD138680128F9D9C9F80080BFF34F8F7F
:104A1000BFF36F8FF2E70000D004002024000020D5
:104A200004ED00E02DE9F0479A46DDE9098481466E
:104A30006FF00303206B03EB82021044089E20F00A
:104A40000707780707D0502080F31188BFF34F8FF6
:104A5000BFF36F8FFEE7002561B1002023180A5CC9
:104A600083F834200A5C12B1401C1028F6D384F875
:104A7000435001E084F83450072E00D30626E66246
:104A8000C4E91165201D00F07EF904F1180000F062
:104A90007AF92461C6F107006462A061E56484F8D4
:104AA000505052464946384600F0C0F82060B8F1F0
:104AB000000F01D0C8F80040BDE8F08730B51149BB
:104AC00000E011460A688242FBD34B685C188442BE
:104AD00003D1406818444860084643681C18944253
:104AE00009D1084C183C2468A24209D052681A44E3
:104AF00042600A6812680260814200D0086030BDDE
:104B00000460F9E7780000200648416B096829B184
:104B1000416BC968C9684968816270474FF0FF31CD
:104B2000FAE700002400002008484068401C4FF0CD
:104B3000500080F3118804D0BFF34F8FBFF36F8F05
:104B4000FEE7BFF34F8FBFF36F8FFEE780000020BB
:104B50002DE9F0410546002700F010FA324E30688A
:104B600008B9FFF709FF706905424ED1C5B3083592
:104B700068070ED005F00700C0F10800054468077B
:104B800007D0502080F31188BFF34F8FBFF36F8F92
:104B9000FEE72DB37068854237D8234818300146A8
:104BA0000C6801E020460C466168A94202D22168E7
:104BB0000029F7D131688C4227D00768216801604D
:104BC00060680837411B10290FD96019420708D0C7
:104BD000502080F31188BFF34F8FBFF36F8FFEE734
:104BE00013E041606560FFF769FF61687068401A13
:104BF0007060B268904200D2B060706901430020DA
:104C0000C4E90001F068401CF06000F049FB78073F
:104C100007D0502080F31188BFF34F8FBFF36F8F01
:104C2000FEE73846BDE8F0816000002010B5031FA4
:104C30004FF080741C601B1F21F001011960191FC7
:104C4000044B0B6014390A60091F6FF002024438EC
:104C50000A6010BD294B000802492422A1F124005A
:104C6000FEF700BA43440020F0B5002855D00029D3
:104C700053D00278437842EA0322C2F30A020A8040
:104C800043788478DB0843EA4413C3F30A034B8078
:104C90008478C578A40944EA8504057944EA852422
:104CA000C4F30A048C80057946796D0845EAC61577
:104CB000C5F30A05CD804679C6F301168E72467992
:104CC000B609CE728679C77946EA07268E81067ABA
:104CD000477A46EA0726CE81867AC77A46EA0726C9
:104CE0000E82067B8E74467BCE74867BC77B46EA3B
:104CF00007268E82067C407CA2F580620A80A3F59E
:104D000080634B80A4F5806446EA00208C80A5F582
:104D10008065CD80A0F580600881F0BD4FF4FA7405
:104D200000231A4619462046FCF7E8FB022000F053
:104D3000C9F8F5E7D0E9013201699A60D0E90123A9
:104D40005A604A68824201D182684A600022026148
:104D50000868401E0860086870470000034B036045
:104D600003F154000860802010607047A400002008
:104D700000F108014FF0FF32C0E90112C16001618A
:104D800000210160704700210161704730B50B6858
:104D90005A1C02D000F1080202E0026904E0224637
:104DA000546825689D42FAD953684B6099608A60BF
:104DB000516008610168491C016030BD42684A6069
:104DC00093688B6093685960916008610168491C21
:104DD00001607047502080F31188BFF34F8FBFF3FD
:104DE0006F8F0A494868401C486001280CD1084868
:104DF000006810F0FF0F07D0502080F31188BFF338
:104E00004F8FBFF36F8FFEE77047000080000020D8
:104E100004ED00E00849486828B1401E486001D10F
:104E200080F311887047502080F31188BFF34F8FB3
:104E3000BFF36F8FFEE700008000002070B50028F0
:104E40002AD0164DA0F1080460686969084207D1AC
:104E5000502080F31188BFF34F8FBFF36F8FFEE7B1
:104E600022683AB1502080F31188BFF34F8FBFF30F
:104E70006F8FFEE78843606000F080F860686968C3
:104E8000084468602046FFF719FE2869401C286125
:104E9000BDE8704000F004BA70BD00006000002062
:104EA0004FF0E02000210161816105494FF47A72E1
:104EB0000968B1FBF2F1491E4161072101617047A8
:104EC0002000002010B5020014D00F48006B38B14C
:104ED000502080F31188BFF34F8FBFF36F8FFEE731
:104EE00000F04CF800211046FFF78CFC00F0D8F9D8
:104EF000002807D105494FF080500860BFF34F8F5D
:104F0000BFF36F8F10BD00002400002004ED00E00F
:104F100010B586B00024039405AA04A903A804943C
:104F2000FFF71CFFDDE903010094CDE90110002328
:104F30000EA11048059A00F014F90F490028C86224
:104F400011D0502080F31188BFF34F8FBFF36F8FC4
:104F50004FF0FF30886201204861CC6006B0BDE8A8
:104F6000104000F041B806B010BD000049444C4567
:104F700000000000C5490008240000200248016B21
:104F8000491C016370470000240000201448016B95
:104F900011B10121C16170470021C1610169B1FAFC
:104FA00081F1C1F11F0101EB81020E4951F822305C
:104FB0006BB101EB820101F108034A6852684A6053
:104FC0009A4201D152684A60D1680160704750200E
:104FD00080F31188BFF34F8FBFF36F8FFEE70000A0
:104FE00024000020080400201CB537480168374A17
:104FF000914207D1502080F31188BFF34F8FBFF348
:105000006F8FFEE700683149491E884207D1502062
:1050100080F31188BFF34F8FBFF36F8FFEE72C49EA
:1050200008780190FF20087008788DF800009DF83E
:1050300000009DF8002000F0F000904207D05020C2
:1050400080F31188BFF34F8FBFF36F8FFEE79DF89A
:105050000000204C00F0500020700720A06005E008
:105060009DF8002052008DF80020401E9DF8002081
:105070001206F5D4A060032807D0502080F31188D1
:10508000BFF34F8FBFF36F8FFEE74FF44070A06008
:10509000019808700C482030016841F470010160EB
:1050A000016841F070410160FFF7FAFE0020606086
:1050B000FBF7EAF80848016841F040410160FBF75E
:1050C000CFF800201CBD000000ED00E071C20F41D0
:1050D00000E400E08000002034EF00E010B5502034
:1050E00080F31188BFF34F8FBFF36F8F00F072F81A
:1050F00018B104494FF080500860002080F31188F7
:1051000010BD000004ED00E02DE9FF5F8346DDE9FE
:105110000E87994616468A469000FFF719FD05004E
:105120001CD05420FFF714FD040014D00020256388
:1051300084F85100CDE90240CDE900874B46324664
:1051400051465846FFF76EFC2046FFF793FB0120BF
:1051500004B0BDE8F09F2846FFF770FE4FF0FF3027
:10516000F6E7F0B585B0DDE90B640A9DA6B1DCB1C8
:10517000542700972663022684F85160002604AF66
:10518000CDE90246CDE90057FFF74CFC2046FFF77A
:1051900071FB049805B0F0BD502080F31188BFF377
:1051A0004F8FBFF36F8FFEE7502080F31188BFF35E
:1051B0004F8FBFF36F8FFEE70548416919B1006B50
:1051C00018B100207047012070470220704700008E
:1051D000240000202DE9F0412F4C0026206B28B13F
:1051E000A069401CA0613046BDE8F081E5686D1CF7
:1051F000E56013D1606B006838B1502080F31188EE
:10520000BFF34F8FBFF36F8FFEE7606BA16B6163DE
:10521000A063206A401C2062FFF776FCA06ADFF8DA
:105220007C80854209D3606B0068A0B1606BC06868
:10523000C7687868854211D2A0622068C06A00EB16
:10524000800158F82100012800D90126E0690028D2
:10525000C9D00126C7E74FF0FF30EDE7381DFFF753
:1052600069FDB86A18B107F11800FFF763FDF96A24
:105270000120226988401043206101EB810108EB85
:105280008100391DFFF79AFDF86A2168C96A8842D2
:10529000C9D30126C7E7000024000020080400202D
:1052A0002DE9F0472C4D00242746286B38B1FFF735
:1052B00091FD286B401E2863286B40B146E05020CA
:1052C00080F31188BFF34F8FBFF36F8FFEE7A9689C
:1052D000224E0120D1B3A6F1B40980463068E8B16E
:1052E000F068C46804F11800FFF724FD201DFFF7E3
:1052F00021FDE06A2A6908FA00F11143296100EBF7
:10530000800109EB8100211DFFF758FDE06A296843
:10531000C96A8842E2D3C5F81C80DFE70CB1FFF709
:10532000F3FBAC6944B14646FFF754FF00B1EE61B0
:10533000641EF9D10020A861E86938B10849012745
:1053400038070860BFF34F8FBFF36F8FFFF762FD21
:105350003846BDE8F087000024000020BC0400208F
:1053600004ED00E010B500290AD00878002807D025
:1053700005487844FBF7C0FC002801D0002010BD90
:105380000248784410BD00007A0D0000720D000044
:1053900081F00041704780F00040704721F00041EB
:1053A000704720F00040704721F00042A2F16052A7
:1053B000B2F5801F01F0004328BFD2F17F6C0BD9FA
:1053C0005FEA001C43EAC20242EB507018BF70470C
:1053D00028BF20F001007047B2F5801FBCBF1846FF
:1053E00070474FEA410C1CF5001F02D2084600F03E
:1053F00019BD70B500F056FB00000089FFF7F6BF3D
:105400004FF00040A0F580007047000010B591EA11
:10541000030F48BF83F0004300F1AC83841A71EBA3
:10542000030C05D2121943EB0C03001B61EB0C01BA
:10543000DFF824E14FEA1154A4EB135C1EEA430F9A
:1054400018BF9EEA445F73D023EA0E03DCF1200EFE
:1054500021EA045143F4801332D322FA0CFE10EBFC
:105460000E0023FA0CFE41EB0E01CCF1200E03FAE4
:105470000EFE10EB0E0051F10001B1F5801FCCF1D2
:10548000200E32D201EB045112FA0EF2BDE81040A8
:1054900058BF7047401C38BF5FEA420218BF7047D0
:1054A000002814BF20F0010041F100014FEA410340
:1054B00013F5001F38BF7047A1F1C04100F040BB99
:1054C000012A43EB0302ACF1200CDCF11F0E32BFCA
:1054D0004FF0000E23FA0CF310EB030041EB0451E4
:1054E000B4EB115FD0D0A1EB045101F58011490854
:1054F0005FEA300001EB04510ED350F1000038BFD9
:1055000012FA0EFE08D1BDE81040C9E7401C38BFB2
:105510005FEA4202CAD1C3E7BDE810404FEA410347
:1055200013F5001F38BF7047A1F1C04100F008BB60
:105530009EEA445F08D011EA5E0FBDE8104004BF48
:1055400001F0004100207047BDE8104070B500F048
:10555000A9FA00BF64FBBE3E0000E0FF491058BF3F
:10556000C1F140415B1058BFC3F140438B42EFF3A0
:10557000008070472DE9C04130B4DFF8A0C23CEA9A
:10558000111418BF3CEA131400F0EC8081EA030503
:105590001CEA111444EAD57418BF1CEA131500F074
:1055A000C780A4EB05044FF0004545EAC12145EA58
:1055B000C32341EA505143EA525304F17F749942A4
:1055C00004F500344FEAC0204FEAC22208BF9042DF
:1055D00000F09C804FEA13650FF24016765D4FEAAB
:1055E000134506FB05F7C7F1807706FB07F74FEA7F
:1055F000D737A7FB03687642C8F58038A7FB06CEED
:1056000038BFA8F1010807FB08E64FF0000EA6FB23
:10561000028CE6FB03CEDCF1000CCEF1004E38BF6D
:10562000AEF1010EA6FB0C584FF000074FF000053D
:10563000E6FB0E87A1FB08C6A0FB07CE16EB0E0605
:1056400045F10005E1FB076515F1E04E7EBFA4F5CD
:1056500080345FEA46066D4116F1800745F100058A
:105660004FEA17274FEA066647EA0567A6F1DE46C6
:10567000B6F1805F4FEA15251FD9384624F0010C9A
:1056800005EBC471BCF1FE6F01EB0C1102D8F0BC4C
:10569000BDE8008124425CBF01F5801E9EEAC47F04
:1056A00002D4F0BCBDE80081244238D4F0BCA1F1A2
:1056B000C041BDE8004100F043BA4FEAD22242EABD
:1056C00043524FEAD323A7FB02864FEAD02040EA99
:1056D000415007FB03661EEA0E0F4FEAD12105FB7E
:1056E000026658BFA6EB0056B6EB00564FEA520EC4
:1056F0004EEAC37E18EB0E0E56EB530EBDD518EBDB
:1057000002085E417F1C55F10005B6E74FF4801595
:105710004FF000074FF000064FF00008ADE7F0BC77
:105720004FF0000001F1C04101F00041BDE80081EF
:1057300011EA0C1F0CEA131500D00CE013EA0C1F41
:1057400000F025804FF00000F0BC81EA030101F079
:105750000041BDE80081F0BCBDE8004181EA0301E1
:1057600000F0EEB9F0BCBDE8004170B500F09AF968
:10577000097EFC3E00F007B881EA03014FF000000B
:1057800001F00041704781EA030100F0D9B9F0BC93
:10579000BDE800414FF0000021497047FFFDFBF9D3
:1057A000F7F5F4F2F0EEEDEBE9E8E6E4E3E1E0DE54
:1057B000DDDBDAD8D7D5D4D3D1D0CFCDCCCBCAC8C6
:1057C000C7C6C5C4C2C1C0BFBEBDBCBBBAB9B8B7ED
:1057D000B6B5B4B3B2B1B0AFAEADACABAAA9A8A8E0
:1057E000A7A6A5A4A3A3A2A1A09F9F9E9D9C9C9BAE
:1057F0009A99999897979695959493939291919059
:105800008F8F8E8E8D8C8C8B8B8A898988888787E9
:105810008685858484838382828181800000FF075E
:105820000000F87F4FEA41034FEA5353A3F580632A
:10583000D3F11E03C8BFD3F1210C0CDD4FF00042A1
:1058400042EAC12242EA505232FA03FC8CEAE17C7D
:10585000ACEBE1707047102BC4BF0020704703F51C
:10586000787CBCF1FF3F04D06FF0004282EA210057
:10587000704770B500F016F94992248000207047F7
:10588000F2E710F0004248BF4042B0FA80F310FA4D
:1058900003F10AD0C3F11D0303F580634FEA4150C1
:1058A00002EB035202EBD12170474FF0000070472A
:1058B000B0FA80F310FA03F10AD0C3F11D0303F527
:1058C00080634FEA41504FEA035202EBD121704707
:1058D0004FF000007047000051EA030C17D41CF58C
:1058E000801F58BFBCF5801F00F10680994218BF89
:1058F000704708BF9042704707D711F5801F58BF07
:1059000013F5801F19D499427047894270471CF5DE
:10591000801F08D5BCF5801FF7D58B4218BF704794
:1059200008BF824270474FF4001C1CEB410F38BF88
:105930001CEB430F01D28B42704770B500F0B2F8F8
:10594000922449004FF000514FF08053FFF706BEFC
:10595000DFF848C170B51CEA111E1EBF1CEA131502
:105960009EEA0C0F95EA0C0F00F06F8081EA0304A9
:1059700023EA4C134EEAD47E21EA4C1141F4801103
:1059800043F48013AE44A1FB024CA0FB0365AEF1CF
:105990007F7E361955EB0C05A1FB034C4CF100033F
:1059A000A0FB021C16EB0C06654153F100030942F3
:1059B00018BF46F0010613F4007F0BD14FEA033104
:1059C0004FEA0530340341EA155140EA16506FF0B2
:1059D00003020AE04FEAC3214FEAC520F40241EA7C
:1059E000555140EA56506FF0020202EB2E4201EB95
:1059F000025585EACE710AD05FEA440C18BF24F044
:105A0000004450F1000041F1000120EAD47040F25E
:105A1000FE7C624500D270BDA84214BF4FF08044A6
:105A20004FF04044002E08BF0024BEF1806FA8BF95
:105A3000A1F1C041BDE8704080F282804FF00000CB
:105A400001F1C04101F0004170479EEA0C0F0CEAE1
:105A5000131518BF95EA0C0F06D04FF0000081EA2D
:105A6000030E0EF0004170BD00F01CF88900013EED
:105A700000F007B800F009B84FEA430C5FEA5C5C3D
:105A800008D081EA030100F05BB84FEA410C5FEAFD
:105A90005C5CF6D14FF00000014970470000FF0741
:105AA0000000F87F0EF1020E2EF0030E5EF8046B7C
:105AB000364205D4012A43EB030515F5001F12D821
:105AC000012841EB010C1CF5001F0CD80ED14FEA48
:105AD000D17C15F5001F0CEB4C0C0CF1020C08BF2F
