:020000040800F2
:10000000204B002001030008FB3200085930000893
:10001000F9320008EF140008393B00080000000026
:100020000000000000000000000000004102000885
:100030000D160008000000009D0200082935000888
:100040001B0300081B0300081B0300081B03000818
:100050001B0300081B0300081B0300081B03000808
:100060001B0300081B0300081B0300081B030008F8
:10007000851500081B0300081B0300081B0300086C
:100080001B0300081B0300081B0300081B030008D8
:10009000F11400081B0300081B0300081B030008E1
:1000A0001B0300081B0300081B0300081B030008B8
:1000B0001B0300081B0300081B0300081B030008A8
:1000C0001B0300081B0300081B0300081B03000898
:1000D0001B030008793A00081B030008853A000852
:1000E0001B0300081B0300081B0300081B03000878
:1000F0001B0300081B0300081B0300081B03000868
:100100001B0300081B0300081B0300081B03000857
:100110001B0300081B0300081B0300081B03000847
:100120001B0300081B0300081B0300081B03000837
:100130001B0300081B0300081B0300081B03000827
:100140001B0300081B0300081B0300081B03000817
:100150001B0300081B0300081B0300081B03000807
:100160001B0300081B0300081B0300081B030008F7
:100170001B0300081B0300081B030008000000000D
:100180001B0300081B03000800F002F800F049F808
:100190000AA090E8000C82448344AAF10107DA45E2
:1001A00001D100F03EF8AFF2090EBAE80F0013F0EB
:1001B000010F18BFFB1A43F001031847E466000063
:1001C00004670000103A24BF78C878C1FAD85207F3
:1001D00024BF30C830C144BF04680C6070470000C1
:1001E0000023002400250026103A28BF78C1FBD840
:1001F000520728BF30C148BF0B607047662906F020
:10020000EC81002070471FB506F0DDF900F02AFCF4
:1002100004000020002105F07BFCE0601FBD10B54C
:1002200010BD00F03BFD1146FFF7EDFF04F02CFE82
:1002300000F059FD03B4FFF7F2FF03BC04F08BF9A3
:100240002C4B19680868B0E8F04F80F30988BFF3B9
:100250006F8F4FF0000080F311887047000000009E
:1002600008480068006880F308884FF0000080F3B9
:10027000148862B661B6BFF34F8FBFF36F8F00DF94
:1002800000BF00BF08ED00E0DFF80C00016841F49A
:1002900070010160704700BF88ED00E0EFF3098056
:1002A000BFF36F8F134B1A681EF0100F08BF20EDBD
:1002B000108A20E9F04F106009B44FF0500080F32D
:1002C0001188BFF34F8FBFF36F8F05F035FA4FF0F2
:1002D000000080F3118809BC19680868B0E8F04F85
:1002E0001EF0100F08BFB0EC108A80F30988BFF32E
:1002F0006F8F704728000020EFF3058070470000E3
:100300000948804709480047FEE7FEE7FEE7FEE7A9
:10031000FEE7FEE7FEE7FEE7FEE7FEE704480549E5
:10032000054A064B70470000D535000889010008D2
:1003300020450020204B002020470020204700209F
:10034000704753EA020C00F069802DE9F04B4FF042
:100350000006002B1FBFB3FA83F503FA05F424FA55
:1003600005F65E4012BF1643B2FA82F502FA05F4B2
:10037000C5F120051EBF22FA05FC44EA0C04203515
:1003800056EA044C4FEA144418BF641C4FF00008AE
:100390004FF00009904271EB030C39D3002919BFCB
:1003A000B1FA81F701FA07F6B0FA80F700FA07F61A
:1003B000C7F120071EBF20FA07FC46EA0C062037CB
:1003C000B6FBF4FCA7EB0507103F07F01F0BCBF1C2
:1003D00020060CFA0BFB2CFA06F644BFB3460026A7
:1003E000202FA4BF5E464FF0000B5BEA060C08BF4F
:1003F0004FF0010B19EB0B09ABFB027C48EB060835
:10040000C01B06FB02CC0BFB03CC71EB0C01C1E75C
:100410000B46024641464846BDE8F08B13B54FF007
:1004200000004FF00001AFF30080BDE81C407047B2
:100430000FB4044910B503AA029800F001FB10BCE8
:100440005DF814FB140000202DE9F0474FF0000A7E
:1004500089460446C0F820A02046E1688847002865
:1004600076D0252806D0D4E901219047206A401C87
:100470002062F1E7E168204600258847C4F81CA007
:1004800006460027C4F818A02A2E09D0304604F0EA
:100490005BF838B304EB8708303EC8F8186019E001
:1004A00059F8041B204604EB87029161E1688847F4
:1004B000012F064618D1E069002820DA25F0200532
:1004C0001DE0D8F8180000EB800006EB4000303843
:1004D000C8F818002046E1688847064604F034F85A
:1004E0000028EED1012F0AD02E2E08D12046E16837
:1004F00088477F1C0646022F45F02005C4DBA06913
:10050000002803DA404245F00105A061E80701D068
:1005100025F01005B6B1A6F14100192802D8203601
:1005200045F400654A463146204625604D46FFF7B2
:1005300065FE58B1012806D0ED1D25F0070000F139
:10054000080989E704E005F1040985E730468AE7F0
:10055000206ABDE8F08710B5203AC0F00B80B1E802
:100560001850203AA0E81850B1E81850A0E81850E8
:10057000BFF4F5AF5FEA027C24BFB1E81850A0E8F1
:10058000185044BF18C918C0BDE810405FEA827C0B
:1005900024BF51F8043B40F8043B08BF7047D20722
:1005A00028BF31F8023B48BF11F8012B28BF20F8C3
:1005B000023B48BF00F8012B70474FF0000200B526
:1005C000134694469646203922BFA0E80C50A0E876
:1005D0000C50B1F12001BFF4F7AF090728BFA0E824
:1005E0000C5048BF0CC05DF804EB890028BF40F8F0
:1005F000042B08BF704748BF20F8022B11F0804F32
:1006000018BF00F8012B704770477047704770475C
:1006100010B500F02BFA006810BD10B5044600F0CC
:1006200025FA046010BD70472DE9FF4F0C461E46A9
:100630004FF0FF378BB0D2E90001DDF860800A90FF
:100640008A46C1F30A5505B93D46002108464FF0D8
:100650000000BAF1000F00F4400005DA00EB800062
:100660004FF4400101EA50004FEA9059B9F1010FEF
:1006700000DDB9460A9850EA4A000ED044F6105000
:10068000A5F2FF3545432F14B8F1000F1ED0754277
:10069000291E1EDDC9F100021CE0B8F1010F4FF068
:1006A000000001D0302103E0F24305E02154401C5A
:1006B000B042FBDB30460022002121540B99C1F8E7
:1006C0000880C1E900200FB0BDE8F08FBD1B6D1C94
:1006D000DEE74A4600DA694206A800F069FA06AB8E
:1006E00093E8070003AB83E8070050460A9900F03F
:1006F00043FB8DE80700A0F500501F3800900398D9
:10070000002D09DD42F21F014A46084403A9039067
:10071000684600F0A2FD08E0A0F500504A461F38E8
:1007200003A90390684600F0ACFD8DE807000004C3
:10073000000C03D04FF0FF30410800E01046B8F144
:10074000000F03D00022009215461EE0751E05D44E
:1007500000F090F9303262556D1EF9D5B346012292
:10076000084302D000227F1C04E02078302801D109
:1007700000227F1E002A099786D01DE0112D07DA7E
:1007800000F078F9303262556D1C50EA0102F5D163
:10079000084302D00098C8B10EE00021681E05E0B1
:1007A000235C625C63542254401E491C8142F7DB87
:1007B000AB46A81B401E0990002004F80B000B98C4
:1007C000099AC0F80880C0E9002B7CE711264FF099
:1007D000000859E72DE9F04F88460446D21D22F063
:1007E000070191B0D1E90001CDE90A0103F0A5F9B3
:1007F00002460B98C00F01D02D2007E0206881072A
:1008000001D52B2002E0202101EAC000032A099033
:1008100001D0072A05DB03464146204600F088F94F
:100820000BE12078800601D5E06900E00620B8F1F0
:10083000650F814606D0B8F1660F18D0B8F1670F82
:1008400070D131E00020B9F1110F009001DB1123CC
:1008500001E009F101030AAA01A90CA8FFF7E4FECF
:10086000DDE90C70002609F10105834647E001200F
:100870004B4600904FF000470AAA01A90CA8FFF7C9
:10088000D3FEDDE90DB00C995D46002610B909F1E3
:1008900001000D18B9EB050003D4C0F1FF3609F1D2
:1008A0000105A5EB09002BE0B9F1010F01DA4FF0CA
:1008B00001090020B9F1110F0090484601DD112314
:1008C00000E003460AAA01A90CA8FFF7ADFEDDE986
:1008D0000C704D4600268346207800070AD4AB45AD
:1008E00000DA5D4601A8012D04DD411911F8011C53
:1008F000302907D04F4502DA17F1040F04DA01203E
:1009000082460FE06D1EEEE7002F02DCED1B3E4439
:1009100003E0781CA84200DD7D1CB81B00F1010A31
:100920004FF000472078000703D4AA4501DB4FF0C1
:10093000FF3A0021B7F1004F0DF143088DF8431045
:1009400024D002202B23002F01DA7F422D230A21FD
:10095000021EA0F1010000DC5FB197FBF1FC97FBE8
:10096000F1F201FB1C7C17460CF1300C08F801CDAC
:10097000EEE7A8F1010003702188090501D54521A2
:1009800000E06521A0F1010800F8011C09980FA9F9
:10099000A1EB0807FF1D00B10120411901EBEA702E
:1009A000A1693844081A401EA0612078C00602D40C
:1009B0002046AFF30080099828B1D4E9012190477F
:1009C000206A401C20622078C00622D52046AFF362
:1009D00000801EE0002E04DBB34502DD01A8805D2F
:1009E00000E03020D4E901219047206A401C2062B9
:1009F000761CAAF101005FEA000A0AD100F032F881
:100A0000C0680168405CD4E901219047206A401C1D
:100A10002062281EA5F10105DCDC07E0D4E90121F4
:100A200018F8010B9047206A401C2062381EA7F17D
:100A30000107F3DC2046AFF30080032011B043E64A
:100A4000074B70B50D467B4400F05FF8044628461E
:100A500000F01CF910B14FF0FF3070BD204670BDA2
:100A60000B40000000487047DC44002000487047FD
:100A7000BC44002030B5B0F10A024FEA900E71F18B
:100A800000034EEA817EB0EB0E0061EB91014FEA6C
:100A9000101E4EEA017E10EB0E0041EB11114FEAE1
:100AA000102E4EEA016E10EB0E0041EB11214FEAC1
:100AB000104E4EEA014E10EB0E0041EB1141401872
:100AC00041F100014FEAD00040EA41704FEAD10104
:100AD00010EB80054FEA810444EA907444EB010472
:100AE0006D1944EB0404521BA3414FF0000348BFAF
:100AF0000A3200D530BD401C41F1000130BD00007C
:100B000001694A1C02610878704700B58FB0CDE9D1
:100B100001310021059105497944CDE903101146C1
:100B20006846FFF791FC0FB000BD0000E5FFFFFF36
:100B30002DE9F0411F46044603260168072A01F407
:100B4000006004DB08B116A505E016A503E008B1B6
:100B500015A500E015A521F010002060A069C01EB9
:100B6000A0610FB1401EA0612046AFF300804FB1DD
:100B7000D4E9012138469047206A401C2062C01CFD
:100B8000206206E0206AFAE7D4E9012115F8010B9A
:100B90009047761EF8D22046AFF30080BDE8F08182
:100BA0004E414E006E616E00494E4600696E660011
:100BB0002DE9F047814616468AB0334878440DC87F
:100BC0008DE80D0030487844801C03AC0DC884E8E3
:100BD0000D0041F69B300844372190FBF1F290FB69
:100BE000F1F5A5F1800501FB12041B3C02D564421E
:100BF000012000E00020DFF890A080460027FA44A2
:100C0000AAF1BE0A0DE0E00709D03246684607EBBC
:100C100047010AEB810100F034FB8DE80700641006
:100C20007F1C002CEFD1184F7F44AC3F18E0E80741
:100C300014D007EB04100DF1180A90E80E008AE8B2
:100C40000E00C068F04201D198190890324606A9FA
:100C500003A800F016FB03AB83E807006D10641CCB
:100C6000002DE4D132466946B8F1000F03A802D046
:100C700000F0F3FA01E000F004FBC9E90001C9F853
:100C800008200AB0BDE8F0878C5C0000007B00F013
:100C90008000704700487047BC4400207546FFF74D
:100CA000F9FFAE4605006946534620F00700854629
:100CB00018B020B5FFF732FBBDE820404FF000062A
:100CC0004FF000074FF000084FF0000B21F0070134
:100CD000AC46ACE8C009ACE8C009ACE8C009ACE877
:100CE000C0098D46704710B50446AFF3008020461A
:100CF000BDE81040FFF79EBA4FF0013C50F8042BBE
:100D000051F8043B9A4221D1A2EB0C03934313EA1E
:100D1000CC1317D150F8042B51F8043B9A4215D14B
:100D2000A2EB0C03934313EACC130BD150F8042B22
:100D300051F8043B9A4209D1A2EB0C03934313EA06
:100D4000CC13DBD04FF00000704700BFD01A01BABF
:100D5000B1FA81F101F0180122FA01F0CB40C1F1A2
:100D60002001DBB2C0B2C01A2CFA01F3D11A9143B0
:100D700011EAC311E6D170475FEA400C08BF91F059
:100D8000000F4FEA8C234FEAC12243EA51514FEA48
:100D90001C5018BF00F5F0404FEA300018BF41F07A
:100DA00000415FEA6C5C00F02980BCF1FF3F08BFA6
:100DB00040F080407047130C06BF12044FF0100C37
:100DC0004FF0000C130E04BF12020CF1080C130FAD
:100DD00004BF12010CF1040C930F04BF92000CF13C
:100DE000020CD30F04BF52000CF1010C11464FF05E
:100DF0000002A0F11F00A0EB0C00704711F0004FA3
:100E000008BF704731F000413FF4D5AF0B0C06BF6F
:100E100009044FF0100C4FF0000C0B0E04BF090238
:100E20000CF1080C0B0F04BF09010CF1040C8B0F23
:100E300004BF89000CF1020CCB0F04BF49000CF178
:100E4000010CCCF12003A0EB0C0022FA03F302FA10
:100E50000CF241EA030100F10100704720F07F4CE1
:100E600080EA030023F07F47ACEB070303F57C53D4
:100E700000F0004003F1FF032DE980494FEA154BD4
:100E800009B44FEA144325EA0B4E24EA03480FF253
:100E9000042606EB132749083E785FEA320203FB7B
:100EA0000667C7F5000707FB06F64FEA54374FEA17
:100EB000D64606F1020607FB066CCCF1005C4FEA51
:100EC0001C472CEA074C07FB06F40CFB06F504EB69
:100ED00015464FEA961634BF00204FF000404FEA07
:100EE000D13706FB07FC4FEA1C4C0CFB0BF7D21B5F
:100EF00003FB0CF761EB07010CFB0EF7B0EB0740AF
:100F000072EB17420CFB08F734BFA2EB0742B2EBBF
:100F1000074261EB17414FEA0C444FEA910706FB89
:100F200007FC4FEA1C4C0CFB0BF7B0EBC74072EB15
:100F3000573203FB0CF734BFA2EBC742B2EBC742F8
:100F400061EB57310CFB0EF7B0EBC70072EB577239
:100F50000CFB08F734BFA2EBC702B2EBC70261EB90
:100F60005771039F4FEA816141EA921104EBCC046F
:100F70004FEAD1374FEA826206FB07FC42EA901241
:100F80004FEA80604FEA1C4C0CFB0BF7D21B03FBB3
:100F90000CF761EB07010CFB0EF7B0EB074072EBAF
:100FA00017420CFB08F734BFA2EB0742B2EB074233
:100FB00061EB17414FEA8C554FEA910704EB9C24F3
:100FC00006FB07FC4FEA1C4C0CFB0BF7B0EBC740D1
:100FD00072EB573203FB0CF734BFA2EBC742B2EB04
:100FE000C74261EB57310CFB0EF7B0EBC70072EB59
:100FF00057720CFB08F734BFA2EBC702B2EBC70273
:1010000061EB577115EB4C254FEA816141EA921172
:101010004FEA82624FEAD13742EA901206FB07FCA0
:1010200044F100044FEA80604FEA1C4C0CFB0BF7C4
:10103000D21B03FB0CF761EB07010CFB0EF7B0EBC7
:10104000074072EB17420CFB08F734BFA2EB0742D4
:10105000B2EB074261EB174115EB1C154FEA8131EA
:1010600041EA92414FEA823242EA90424FEA8030AE
:101070004FEA0C7644F1000448EA03434EEA0B4879
:101080004FF0000EB2EB080C71EB030724BF624671
:1010900039464EEB0E0E4FF0000B001852414941FD
:1010A0004BEB0B0BB2EB080C71EB03077BF1000B66
:1010B00024BF624639464EEB0E0E4FF0000B00186F
:1010C000524149414BEB0B0BB2EB080C71EB0307A0
:1010D0007BF1000B24BF624639464EEB0E0E51EAFF
:1010E000020718BF46F0010616EB0E7655F1000216
:1010F00054F1000103D5BDE88901BDE80088BDE8D1
:101100008901BDE80048B619524141EB0101A3F144
:101110000103704780807F7E7D7C7B7A797877764B
:1011200076757473727171706F6E6E6D6C6C6B6AC4
:101130006A69686867666665646463636261616062
:10114000605F5F5E5E5D5D5C5C5B5B5A5A595958DF
:101150005857575656555555545453535252525149
:10116000515050504F4F4F4E4E4D4D4D4C4C4C4B9F
:101170004B4B4A4A4A4949494848484747474746E6
:101180004646454545444444444343434342424222
:1011900042414141002B26D4770021D01CB54FEAB3
:1011A000370703B44FF010004FF010014FF000006C
:1011B0000FBCBDE810400BF1010BBBF1010F08BFE4
:1011C0005FEA170722BF12F1010211F101014FF08E
:1011D000004143F1000300F0004043EA0000704783
:1011E000F9D35708DAE746EA064613F1400F4FEA0B
:1011F00016461FDD13F1200FDFBF16430A460021FC
:1012000020335B42C8D0C3F1200746EA064602FA03
:1012100007F74FEA164646EA0706C3F1200722FA07
:1012200003F201FA07F721FA03F14FF0000342EA53
:101230000702B1E746EA020646EA06464FEA1646C4
:1012400046EA0106BCBF46EA0646360C4FF00003EC
:101250004FF000024FF000019EE72DE9C048934691
:1012600030B491E8380007C831EA400C48BF34EA8E
:10127000430C03D5FFF7F2FDFFF78CFFF0BCBDE890
:1012800000882DE9C048934630B491E8380007C87B
:1012900010F0804F08BF13F0804F03D100F005F825
:1012A000FFF778FFF0BCBDE8008820F07F4780EAB8
:1012B000030023F07F4C07EB0C03A3F57C5300F0F5
:1012C0000040A3F1FE0392F0000F00F0B38095F010
:1012D000000F00F077802DE901494FEA11404FEAF5
:1012E000144621EA004800FB06FC24EA064708FBF6
:1012F00006F607FB08F800FB07F718EB06484CEB6F
:10130000164C4FEA124B18EB07484FEA15464CEBC8
:10131000174022EA0B4E0BFB06FC25EA06470EFBA4
:1013200006F607FB0EFE0BFB07F71EEB064E4CEB1B
:10133000164C4FF000061EEB074E4CEB174B18EB0C
:101340000B0840F1000018EB0E0B58EB000840F1C1
:1013500000008F1A4FF000013CBFC943661B14BF49
:10136000B5EB040C00213CBFC943F61B4FEA174400
:101370004EEA8E0E27EA04454FEA1C4704FB07623B
:101380002CEA074C05FB07F70CFB05F604FB0CFCED
:1013900016EB074642EB174216EB0C4642EB1C429B
:1013A0001BEB060658EB0202414146EA9E0601D5B8
:1013B000BDE80189B619524141EB0101A3F10103D6
:1013C000BDE801894FEA14454FEA114724EA054672
:1013D00021EA074C05FB07F406FB07F70CFB06F1B7
:1013E00005FB0CFC11EB074144EB17444FEA124795
:1013F00011EB0C4144EB1C4422EA074C05FB07F2BD
:1014000006FB07F70CFB06F605FB0CFC16EB074684
:1014100042EB174216EB0C4642EB1C456A1854F19E
:10142000000148BF7047B619524141EB0101A3F1D9
:101430000103704795F0000F37D04FEA11424FEA91
:10144000144721EA024624EA074C02FB07F106FB97
:1014500007F70CFB06F402FB0CFC14EB074441EB12
:1014600017414FEA154714EB0C4441EB1C4125EAA8
:10147000074C02FB07F506FB07F70CFB06F602FB21
:101480000CFC16EB074645EB174516EB0C4645EBF7
:101490001C42121951F1000148BF7047B619524160
:1014A00041EB0101A3F1010370474FEA14454FEAF4
:1014B000114724EA054621EA074C05FB07F106FB24
:1014C00007F70CFB06F24FF0000605FB0CFC12EBD5
:1014D000074241EB174112EB0C4251EB1C4148BF54
:1014E0007047921841EB0101A3F101037047FEE739
:1014F000014800F000BA00000403002038B50E4C8B
:101500004FF4007525600025A560E560082525617C
:101510000A4C050A25706070080AA070E170100A74
:1015200020716271180AA071E3716B46224602496C
:10153000034800F080F838BD984100209900002051
:101540000403002008B50C4A40F2FF110823116083
:1015500000219160C2E90313084A030A1370507016
:101560009170D170117151719171D1716B460249B5
:10157000034800F060F808BD804100209100002081
:1015800004030020014800F041BC0000FC030020DF
:1015900001681823CAB2103AB2FBF3F2054B6FF39D
:1015A0000901032A9B5CC36500D9091D81650846B2
:1015B000704700006C66000810B5014600208B697A
:1015C0008A6A4FF0C07453B1B3F5005F15D072B1A1
:1015D000012A0CD0022A0AD0032A09D104E01AB148
:1015E000012A06D0022A03D1C96AC90100D5012007
:1015F00010BDC96AA142FAD010BD002AF7D0012A55
:10160000F2D0022AF3D0032AF3D010BD704772B68D
:10161000FEE790F82020012A07D0022A05D0416A6F
:1016200041F48021416201207047006842690A4309
:10163000426100207047F0B590F820500468A4681B
:10164000012D05D0022D03D0416A41F4802153E0E1
:1016500014F0406F01D1E5004BD5C4F30164022CB6
:1016600003D9416A41F4000146E00125A5401D600F
:101670008D684FF4C0739DB1CE6835434E6845EA1E
:10168000C605066803EB0417F5514FF4C2750768E9
:1016900005EB04150E697E51097D012905D009E08D
:1016A0000E88CD6845EA4655EBE701684E5946F489
:1016B00080764E511179D2F805504FF4C67641EA42
:1016C0000525016806EB04168D511178D2F801202A
:1016D0004FF4C47541EA0221026805EB041551512B
:1016E000006803EB0411425842F00102425000200E
:1016F000F0BD416A41F4001141620120F0BD0000DB
:1017000010B590F82020012A07D0022A05D0416A9E
:1017100041F480214162012010BD3B48D0F80022F5
:1017200042F00102C0F80022D0F8002222F47C52DC
:10173000C0F80022D0F800224B6A42EA0322C0F827
:1017400000220A7D02F01F0301229A40D0F81C32C9
:101750009343C0F81C32CB69B3B9D0F80C32934331
:10176000C0F80C328C894B6864F31F434C6900EB62
:10177000C404C4F840320C890B6864F31F434C69FD
:1017800000EBC404C4F84432CB69012B16D1D0F865
:101790000C321343C0F80C320C884B6864F31F43BF
:1017A0004C6900EBC404C4F840320C89CB6864F384
:1017B0001F434C6900EBC404C4F844328B69002B0E
:1017C000D0F804320ED01343C0F804320B69002B5A
:1017D000D0F8143208D01343C0F81432096A012932
:1017E00004D008E09343EFE79343F5E7D0F81C12E9
:1017F0001143C0F81C12D0F8001221F00101C0F80A
:101800000012002010BD000000640040704730B599
:1018100090F82040012C05D0022C03D0416A41F4FD
:1018200080215DE00468002955D02469A40754D0C4
:101830004FF4D874056804EB01142D5915F0040514
:10184000956005682D594ED0ED08556005682C59F6
:1018500004F00204D4604FF4DA74056804EB011458
:101860002D5905F00F05156105682D59C5F307259C
:10187000956105682C59240C54614FF4DC7204689E
:1018800002EB0112A4581C700468A458240A5C706E
:101890000468A458240C9C700468A258120EDA70D4
:1018A0004FF4DE72046802EB0112A4581C71046844
:1018B000A458240A5C710468A458240C9C71046820
:1018C000A258120EDA71006881B1016941F020015D
:1018D0000161002030BDE468A8E7416A41F40011CD
:1018E0004162012030BD6D0D1560AFE7C16841F068
:1018F0002001C160EDE72DE9F05F05460068002496
:101900004669D0F804908768D0F80CB0D0F810A0E1
:10191000D0F81880F10748D0F90714D00121816070
:10192000B80703D5284600F010FA0CE0780702D576
:101930004FF4006407E0380702D54FF4805402E00A
:10194000284600F001FAF80516D529684FF4807092
:101950008860B80503D5284600F0F9F90CE0780551
:1019600002D544F4005407E0380502D544F480441D
:1019700002E0284600F0EAF9F80316D529684FF48A
:1019800080308860B80303D5284600F0E2F90CE007
:10199000780302D544F4004407E0380302D544F448
:1019A000803402E0284600F0D3F9300707D55FEA1B
:1019B000CB6004D52968102044F40074C860700717
:1019C0004FF0080707D55FEA0B7004D52868C76099
:1019D000284600F057F9B00706D52868C068800788
:1019E00002D0284600F050F9700607D55FEACA60B9
:1019F00004D52968102044F480640861B00607D536
:101A00005FEA0A7004D528680761284600F06CF97F
:101A1000F00606D528680069800702D0284600F045
:101A200064F9B00308D55FEAC96005D529681020BC
:101A30004860284600F05AF9F00307D55FEA0970BC
:101A400004D528684760284600F084F9300446D55C
:101A50005FEA497040D5F00504D55FEAC87001D04F
:101A600044F00104B00504D55FEA887001D544F064
:101A70000204700504D55FEA487001D544F00404FF
:101A8000300529D518F0700F26D008F070004028D6
:101A900015D006DC102809D020280AD0302816D10D
:101AA0000AE050280ED0602811D10EE044F008045E
:101AB0000DE044F010040AE044F0200407E044F094
:101AC000400404E044F0800401E044F48074286899
:101AD000816921F070018161296804204860002C2F
:101AE00005D0686A204368622846FFF78FFEBDE88C
:101AF000F09F70B5040003D094F8200010B104E00A
:101B0000012070BD204600F081F82068016841F096
:101B10000101016000F0B2FB0546052604E000F07B
:101B2000ADFB401B0A2811D820684068C007F6D0DA
:101B30002068016821F00201016000F09FFB05466A
:101B40000BE000F09BFB401B0A2806D9606A40F4BA
:101B50000030606284F82060D2E720684068800727
:101B6000EFD4207E0128206801683DD021F080015B
:101B70000160607E01282068016838D021F04001B2
:101B80000160A07E01282068016833D021F0200187
:101B90000160E07E0128206801682ED041F010012C
:101BA0000160207F01282068016829D021F0080108
:101BB0000160607F01282068016824D021F00401C1
:101BC0000160D4E902010843D4E904121143084337
:101BD0006168491E08432168C861002060620120D5
:101BE00084F82000002070BD41F08001C0E741F082
:101BF0004001C5E741F02001CAE721F01001CFE71D
:101C000041F00801D4E741F00401D9E710B586B0EE
:101C1000044614216846FEF7D0FC17492068884224
:101C200027D116480021026842F000720260006865
:101C300000F00070059011481038026842F0080268
:101C400002600068022200F0080005900320CDE940
:101C50000210CDE90002092004906946084800F00E
:101C60000FFA00220621142000F07AFB142000F065
:101C700069FB06B010BD000000640040403802401F
:101C8000000C02407047000010B58AB0044607AB54
:101C90006A460021FFF7BBFD104884421CD1009822
:101CA000A0F20120042817D80D49C0B208700D49D0
:101CB00000EB800001EB400231F810309380BDF85A
:101CC0001C305BBA21F81030BDF81E0040BA5080BD
:101CD000BDF8200040BA10810AB010BD04030020F6
:101CE000900000204C410020704770477047000072
:101CF00070B5044690F82000012804D0606A40F4D2
:101D00000020606218E0022084F82000206801684A
:101D100021F00101016000F0B1FA05460EE000BFBC
:101D200000F0ACFA401B0A2808D9606A40F4003081
:101D30006062052084F82000012070BD20684068A2
:101D4000C007EDD1606270BD704770477047704743
:101D50007047704770472DE9F0410446876D00F0E9
:101D60008DFA064694F835000025022806D080201A
:101D7000606584F834500120BDE8F0812068016876
:101D800021F0160101602068416921F08001416164
:101D9000206C08B9A06C20B12068016821F008010E
:101DA00001602068016821F0010101600CE000F091
:101DB00065FA801B052807D920206065032084F878
:101DC000350084F83450D7E720680068C007EED1AA
:101DD00094F85C103F208840B860012084F83500FA
:101DE00084F834500020C7E790F83510022903D05A
:101DF0008021416501207047052180F83510006879
:101E0000016821F001010160002070472DE9F843CD
:101E100004464FF00009CDF8009063484FF4165186
:101E2000A56D0068B0FBF1F72E6894F85C100820EF
:101E300000FA01F131420FD021680A6852070BD530
:101E40000A6822F004020A6094F85C108840A860D6
:101E5000606D40F00100606594F85C104FF001087F
:101E600008FA01F0304208D021684969090604D512
:101E7000A860606D40F00200606594F85C1004207A
:101E80008840304208D021680968890704D5A860D5
:101E9000606D40F00400606594F85C10102088408C
:101EA000304218D021680968090714D5A860206855
:101EB0000168490304D50068000308D5A16C07E058
:101EC0000168C90503D4016821F008010160216C93
:101ED00009B12046884794F85C10202088403042A1
:101EE00031D021680968C9062DD5A86094F835005D
:101EF00005282068016806D0490347D5006800031B
:101F00001DD4616C1CE021F016010160206841695C
:101F100021F080014161206C08B9A06C20B12068DB
:101F2000016821F00801016094F85C103F208840AE
:101F3000A86084F8358084F83490216D1FE0E16B4F
:101F400009B120468847606D00282BD0606DC0071E
:101F500014D0052084F835002068016821F00101C3
:101F600001600098401C0090B84203D820680068C7
:101F7000C007F6D184F8358084F83490E16C0029EC
:101F800010D001B02046BDE8F04308470168C905FC
:101F9000D5D4016821F01001016084F8358084F8FF
:101FA0003490CCE7BDE8F883240000202DE9F0410F
:101FB000044600F063F906465CB1022084F835005F
:101FC000002584F834502068016821F00101016087
:101FD0000DE00120BDE8F08100F050F9801B0528DC
:101FE00005D920206065032084F83500F2E72068D9
:101FF0000068C007F0D12268116820480140D4E988
:1020000001031843D4E90336334318436369184383
:10201000A3691843E3691843236A18430843616AB4
:10202000042903D1D4E90B13194308431060206835
:102030004069666A20F0070130460E4301270428F4
:102040000CD1A06A0643E06A40B12046FFF7B4FA1B
:1020500020B14020606584F83570BAE72068466199
:102060002046FFF795FA94F85C203F21914081606B
:10207000656584F835700020ACE700003F8010F003
:102080002DE9F84FDFF8BCA10022012503264FF00F
:102090000F090AF1040BAAF1040E00BF0B6805FA40
:1020A00002F42340A34270D10F7907F00307012FF8
:1020B00001D0022F16D187684FEA420806FA08FCC1
:1020C00027EA0C07D1F80CC00CFA08FC4CEA070C04
:1020D000C0F808C04768A7430C79C4F300149440C3
:1020E0003C4344600C79E443A4070AD0C4684FEA37
:1020F000420C06FA0CF7BC438F6807FA0CF727432B
:10210000C7600C7904F00304022C12D1D40800EB50
:10211000840CDCF820405707FF0E09FA07F824EA80
:102120000804D1F8108008FA07F848EA0408CCF847
:10213000208004684FEA420C06FA0CF7BC430F7982
:1021400007F0030707FA0CF7274307604C6814F4FD
:10215000403F70D03C4C276847F480472760246894
:1021600022F0030704F480440094384C07EB040C7D
:10217000DCF8084897074FEA177809FA08F7BC43D4
:10218000334FB84202D1002724E054E0314FB84227
:1021900001D101271EE0304FB84201D1022719E0DA
:1021A0002E4FB84201D1032714E02D4FB84201D180
:1021B00004270FE02B4FB84201D105270AE02A4F30
:1021C000B84201D1062705E0284FB84201D10727C0
:1021D00000E0082707FA08F72743CCF80878DAF870
:1021E00000405746D1F804C09C435FEACC2C00D590
:1021F0001C433C60DBF800405F46D1F804C09C43C0
:102200005FEA8C2C00D51C433C60DEF8004077462A
:10221000D1F804C09C435FEA8C3C00D51C433C6071
:10222000084F083F3C68D1F804C09C435FEACC3CAF
:1022300000D51C433C60521C102AFFF42FAFBDE8B0
:10224000F88F0000083C0140443802400030014053
:10225000000002400004024000080240000C02405E
:10226000001002400014024000180240001C02400E
:102270000AB1816170470904FBE7000001488068EA
:10228000704700001800002002488168027811445D
:1022900081607047180000200B4810B5016841F4B8
:1022A00000710160016841F480610160016841F4DE
:1022B00080710160032000F073F80F2000F006F831
:1022C00000F024F8002010BD003C024070B50D4D18
:1022D00004464FF47A712878B1FBF0F00A49096896
:1022E000B1FBF0F000F010FB48B9102C07D200222F
:1022F0002146501E00F034F800206C6070BD0120B3
:1023000070BD000018000020240000200C4882B09E
:10231000016841F480410160006800F48040009051
:102320000748001F016841F08051016000680022E9
:1023300000F0805000900F21901E02B000F010B805
:1023400044380240002809DB00F01F0201219140BF
:102350004009800000F1E020C0F800117047000043
:10236000F0B40E4B1B680C46C3F30223C3F1070500
:10237000042D00D90425191D072901D2002300E0EE
:10238000DB1E012606FA05F1491E214099409E40B8
:10239000761E16403143F0BC01F0E7BB0CED00E0C7
:1023A000064900F0070208684FF6FF03184040EAAC
:1023B0000220034A10430860704700000CED00E063
:1023C0000000FA052DE9F0470E46050065D0DFF85C
:1023D0001481D8F80000F7B200F00700B04207D22D
:1023E00088F80070D8F8000000F00700B04254D11F
:1023F00028683D4C810712D5400703D5206840F47A
:10240000E05020602878000703D5206840F4604041
:1024100020602068A96820F0F00008432060287838
:10242000C0072DD0304968680839012812D0022829
:1024300013D0032811D00968890700292DDA2168F3
:1024400021F0030101432160FFF718FF814641F2AB
:10245000883A0EE009688903EFE709688901ECE72B
:10246000FFF70CFFA0EB0901514502D90320BDE89D
:10247000F0872068696800F00C00B0EB810FEFD1A5
:10248000D8F80010404601F00701B14207D90770A3
:10249000006800F00700B04201D00120E7E728788B
:1024A000400705D52068E96820F4E0500843206023
:1024B0002878000706D52068296920F4604040EAA2
:1024C000C100206000F038F82168084AC1F3031108
:1024D000515CC8400649086006480068FFF7F6FEF0
:1024E0000020C4E7003C024008380240746600083F
:1024F000240000201C0000200448054900680968E9
:10250000044AC1F38221515CC84070472400002076
:1025100008380240846600080448054900680968D4
:10252000044AC1F34231515CC84070472400002086
:102530000838024084660008154810B5006810F09D
:102540000C02144813D01449042A0FD0082A0ED1C3
:102550000F4C241F2268236802F03F025B0207D55C
:102560002068C0F38810A0FB010106E0084610BDFA
:102570002168C1F38811A1FB00010023FDF7E1FEF2
:102580002168C1F30141491C4900B0FBF1F010BDC5
:10259000083802400024F40040787D012DE9F84F0E
:1025A00004006ED02078DFF84C93C007A9F1040531
:1025B0004AD009F104000168C1F38101012908D062
:1025C0000068C0F3810002280AD1D9F80000400257
:1025D00006D52868800337D560680028E1D033E04D
:1025E0006068B0F5803F10D0B0F5A02F286810D0FB
:1025F00020F480302860286820F4802028606068FB
:10260000A8B1FFF73BFE06460DE0286840F4803095
:10261000F4E740F480202860F7E700BFFFF72EFEC4
:10262000801B642873D828688003F7D50CE0FFF777
:1026300025FE064605E000BFFFF720FE801B64284C
:10264000F0D828688003F7D42078DFF8AC828007C0
:102650004FF0000A3ED5A748001D016811F00C0F8D
:1026600008D00068C0F3810002280BD1D9F800001F
:10267000400207D42868800716D5E068012800D1F9
:1026800012E033E1E068B8B10120C8F80000FFF7BC
:10269000F5FD064605E000BFFFF7F0FD801B0228B0
:1026A000C0D828688007F7D52868216920F0F8008D
:1026B00040EAC10028600DE0C8F800A0FFF7DEFD89
:1026C000064604E0FFF7DAFD801B02281FD82868C1
:1026D0008007F7D42078000722D5864F87486169A4
:1026E000703771B101210160FFF7C8FD064604E0B3
:1026F000FFF7C4FD801B022809D838688007F7D58A
:102700000EE0C0F800A0FFF7B9FD064605E082E044
:10271000FFF7B4FD801B02287DD838688007F7D406
:102720002078400768D5DFF8CCB100270BF13C0BCF
:10273000DBF80000C0000BD4DBF8001041F0805142
:10274000CBF80010DBF80000012700F0805000906B
:102750006B4E3068C00510D4306840F48070306033
:10276000FFF78CFD009005E0FFF788FD0099401A07
:10277000022850D83068C005F6D55E4EA0686C3689
:1027800001280FD00528306810D020F001003060FB
:10279000306820F004003060A068B8B1FFF76EFD2B
:1027A00000900FE0306840F00100F4E740F00400D2
:1027B0003060F7E7FFF762FD0099411A41F2883077
:1027C000814266D830688007F4D50EE0FFF756FDE9
:1027D000009007E0FFF752FD0099411A41F288305E
:1027E000814256D830688007F4D42FB1DBF800104E
:1027F00021F08051CBF80010A069C8B33D49091DF4
:102800000968C1F3810102294AD00228504607D045
:10281000C8F8600000E03CE0FFF730FD04463BE014
:102820004746C8F86000FFF729FD064605E000BFEF
:10283000FFF724FD801B02282BD828688001F7D4DD
:10284000D4E907010843A16A2E4A490802EB014175
:10285000626A41EA8211084394F82C1040EA01614F
:10286000C9F8001001203866FFF708FD044606E0AD
:102870003EE000BFFFF702FD001B022809D82868D0
:102880008001F7D534E000BFFFF7F8FC001B0228F9
:1028900002D90320BDE8F88F28688001F4D427E02E
:1028A0000128F7D0D9F80000E26900F480019142D4
:1028B0001CD1226A00F03F01914217D147F6C07146
:1028C000626A0140B1EB821F10D1A26A4FF0FF3360
:1028D00000F4403103EB5202B1EB024F06D194F801
:1028E0002C1000F07060B0EB016F01D00120D1E737
:1028F0000020CFE70438024000004742800E4742E4
:10290000007000400000FFFF10B5401EB0F1807F56
:1029100001D3012010BD4FF0E02460610F2160174A
:1029200001F023F90020A06107202061002010BDE4
:1029300010B590F83C20012A22D0012280F83C20DA
:10294000CA688C6822F4407222434C6822F4806288
:1029500022430C6822F4006222430C6922F4805264
:1029600022434C6922F400522243C969002322F415
:1029700080420A4301684A6480F83C30002010BD60
:10298000022010BD70B590F83C20012A32D00124FD
:1029900080F83C40022280F83D2003685A689D6818
:1029A00022F070060A6832435A60134B02689A425A
:1029B00014D0B2F1804F11D0104B9A420ED0104B70
:1029C0009A420BD00F4B9A4208D00F4B9A4205D037
:1029D0000E4B9A4202D00E4B9A4204D1496825F020
:1029E00080031943916080F83D40002180F83C103D
:1029F000084670BD022070BD000001400004004088
:102A000000080040000C004000040140004001406C
:102A10000018004010B586B0044614216846FDF742
:102A2000CCFD0E492068884216D10D48002102686D
:102A300042F010020260006800F0100005904FF4B0
:102A4000007000900220CDE901010120CDE90310C2
:102A500069460448FFF714FB06B010BD00000140B2
:102A6000303802400010024070B5044690F83C0037
:102A700000260D4601280FD0012084F83C006AB1E1
:102A8000042A1DD0082A2FD00C2A3FD0012600206E
:102A900084F83C00304670BD022070BD206800F014
:102AA00013FE2068816941F0080181612068816915
:102AB00021F004018161206881692A69114311E0D4
:102AC000206800F031FE2068816941F40061816175
:102AD0002068816921F480618161206881692A69A7
:102AE00041EA02218161D2E7206800F053FE2068AC
:102AF000C16941F00801C1612068C16921F0040188
:102B0000C1612068C1692A69114311E0206800F0A1
:102B100075FE2068C16941F40061C1612068C16926
:102B200021F48061C1612068C1692A6941EA0221FA
:102B3000C161ACE710B5040003D094F83D0010B1BA
:102B400007E0012010BD002084F83C00204600F082
:102B50001FF8022084F83D00211D206800F042FD8E
:102B6000012084F8460084F83E0084F83F0084F891
:102B7000400084F8410084F8420084F8430084F85F
:102B8000440084F8450084F83D00002010BD00009A
:102B900008B500680649884208D10648016841F036
:102BA00001010160006800F00100009008BD000014
:102BB000000001404438024010B50446022249B1E9
:102BC00004290ED0082913D094F84100012816D00A
:102BD000012010BD94F83E000128F9D184F83E2070
:102BE0000FE094F83F000128F2D184F83F2008E07C
:102BF00094F840000128EBD184F8402001E084F8EB
:102C000041200122206800F051FD16492068164A33
:102C1000884201D0904203D1436C43F400434364A3
:102C20002068884213D0B0F1804F10D00F498842FD
:102C30000DD00F4988420AD00E49884207D09042F1
:102C400005D00D49884202D00C49884204D18168E0
:102C500001F00701062903D0016841F0010101607C
:102C6000002010BD000001400004014000040040AD
:102C700000080040000C00400040014000180040E7
:102C800070477047F8B5016804460868CA684B6920
:102C900010F00F0F4FF0000559D003F0010602F4B9
:102CA0009077374365D0C10705D0D10503D5216C96
:102CB00041F001012164410705D5D90703D0216CFA
:102CC00041F002012164810705D5D90703D0216CA9
:102CD00041F004012164010707D502F020013143CE
:102CE00003D0216C41F008012164216C00293AD005
:102CF000800604D5900602D5204600F0D6FD206857
:102D00004069216CC0F38010090700D460B32046ED
:102D100000F0A4FD20684069400621D520681430E9
:102D200050E8001F21F0400140E80012002AF5D1D0
:102D3000A06BA8B16C490165A06BFFF755F800289E
:102D400011D0A06B016D01B0BDE8F04008478306CB
:102D50000FD593060DD52046BDE8F84000F0A5BD7F
:102D60002046FFF78EFFF8BD2046FFF78AFF256457
:102D7000F8BD266B2023012E79D1C60677D5D6065D
:102D800075D50868486800904869400640D5A16B31
:102D9000086840680004000CEAD0A28D8242E7D99E
:102DA000E085C869B0F5807F2DD020680C3050E8F0
:102DB000001F21F4807140E80012002AF5D120683C
:102DC000143050E8001F21F0010140E80012002AF1
:102DD000F5D12068143050E8001F21F0400140E890
:102DE0000012002AF5D184F83E30256320680C30AB
:102DF00050E8001F21F0100140E80012002AF5D130
:102E0000A06BFEF7A8FFA08DE18D401A81B229E0EA
:102E1000A08DE18D401A81B2E08D0028A8D0002954
:102E2000A6D020680C3050E8002F22F4907240E8C1
:102E30000026002EF5D12068143050E8002F22F033
:102E4000010240E80026002EF5D184F83E302563CB
:102E500020680C3050E8002F22F0100240E80023D8
:102E6000002BF5D12046FFF70BFFF8BDFFE7050665
:102E70002BD5150629D594F83D002128F5D1A06859
:102E8000B0F5805F01D12069B0B1206A411C216298
:102E9000216800784860E08C401E0004000CE0844B
:102EA000E3D12068C16821F08001C1602068C16859
:102EB00041F04001C160D8E7206A0088C0F30800F3
:102EC0004860206A801C2062E5E74006CDD55006A8
:102ED000CBD5CA68204622F04002CA6084F83D3053
:102EE00000F0B9F8C1E700004D38000870B50400E3
:102EF00004D094F83D00002510B106E0012070BD1B
:102F000084F83C50204600F023F8242084F83D004B
:102F10002068C16821F40051C160204600F026FD00
:102F20002068016921F4904101612068416921F024
:102F30002A0141612068C16841F40051C1602564E3
:102F4000202084F83D0084F83E00002070BD000081
:102F5000F0B587B0064614216846FDF72EFB364FC4
:102F6000306800253549022203230724B84221D1C5
:102F700032481430066846F010060660006800F01B
:102F800010000590086840F0010008600868694674
:102F900000F00100059058028DE82500CDE90334CA
:102FA0002748FFF76DF8002205212520FFF7D8F903
:102FB00025203DE0234FB8423CD12048103007681F
:102FC00047F480270760006800F4802005900868B7
:102FD00040F0040008600868694600F004000590AD
:102FE0004FF440608DE82500CDE903341648FFF723
:102FF00047F8174C154820604FF00060C4E9010500
:103000004014C4E9035065614FF44030A561C4E940
:10301000075020466562FEF7C9FF08B1FEF7F7FAD0
:10302000B463002204212720A663FFF799F9272023
:10303000FFF788F907B0F0BD0010014030380240BA
:1030400000000240004800400008024028600240A2
:10305000FC03002070477047FEE700000F4810B5E2
:103060000D4901600321416000214FF4102281606D
:10307000C0E903124FF40012426101764176817675
:10308000C17601774177FEF734FD002803D0BDE813
:103090001040FEF7BCBA10BD0064004004030020DD
:1030A000094808B5016841F4001101600068002278
:1030B00000F40010009005210C20FFF751F9BDE845
:1030C00008400C20FFF73EB93038024010B5A4B0DC
:1030D0001C221C496846FDF73EFA0021684601F0B3
:1030E00005FF194C17491C2220601C3107A8FDF769
:1030F00032FA002107A801F0F9FE124960601C2293
:1031000038310EA8FDF727FA00210EA801F0EEFED7
:103110000C49A0601C22543115A8FDF71CFA0021AF
:1031200015A801F0E3FE0749E0601C2270311CA8DD
:10313000FDF711FA00211CA801F0D8FE206124B08F
:1031400010BD0000E06500080000002070B586B0EA
:1031500014216846FDF731FA1E480024016841F049
:1031600008010160016801F008010591016841F062
:1031700004010160016801F004010591016841F05A
:1031800001010160016801F001010591016841F050
:1031900080010160016801F080010591016841F042
:1031A0001001016000680C4E00F010004FF48075B3
:1031B0000590002229463046FFF75AF80120009575
:1031C000CDE90104694630460394FEF759FF06B085
:1031D00070BD0000303802400008024010B592B0C7
:1031E00000240F941C2108A81094FDF7E6F9202173
:1031F0006846FDF7E2F921481F49016040F61F517A
:10320000C0E9011440F2E731C0E90314446184616C
:10321000FFF790FC08B1FEF7FAF90F940FA91748D1
:103220001094FFF7AFFB08B1FEF7F1F96020CDE98C
:1032300008040A940B940C940D94002208A90F48DA
:103240000E94FFF711FC08B1FEF7E1F900944FF47A
:103250000050CDE904400294019403946946074864
:103260000794FFF765FB08B1FEF7D1F90348FFF7B4
:10327000D1FB12B010BD0000000001402C03002063
:103280000C4810B50A4901604FF4E131416000215A
:1032900081600C22C160C0E904128161C161FFF745
:1032A00025FE002803D0BDE81040FEF7B0B910BDE0
:1032B00000100140740300200D4810B50B49016057
:1032C0000C49416000214FF480628160C0E9031223
:1032D0000C22C0E90521C161FFF708FE002803D0D8
:1032E000BDE81040FEF793B910BD00000048004053
:1032F000B8030020A0860100FEE7FEE7A0B1D0EDF4
:10330000101AC0ED111A90ED0F1A80ED101AC0EDD1
:10331000060A80ED070A30EEC00A80ED0F0A017838
:1033200029B101293BD078E09FED3D0A7047D0EDEF
:10333000010A60EE801AC0ED091AD0ED0A0A90ED7C
:10334000022A42EE000A30EE410AC0ED0A0A90ED70
:103350000D2A80ED0E2A90ED0C2A80ED0D2A80EDCD
:103360000C0A90ED031A21EE001A80ED0B1A90ED75
:10337000050AF4EEC00AF1EE10FA09DCB1EE400ADB
:10338000F4EEC00AF1EE10FA02D390ED0A0A01E061
:1033900080ED0A0A31EE800A30EE010A2BE070EE71
:1033A000410A90ED012A20EE822A80ED092AD0ED13
:1033B000020A60EE800AC0ED0A0AD0ED0D2A72EE14
:1033C000200AC0ED0E2AD0ED0C2AC0ED0D2AF0EE39
:1033D000002A01EE620A30EE210A80ED0C0A90ED1F
:1033E000031A21EE000A80ED0B0A30EE800AD0EDC0
:1033F000080A30EE200A80ED080AD0ED040AB4EE87
:10340000E00AF1EE10FA06DCF1EE600AB4EEE00A32
:10341000F1EE10FA01D2C0ED080A90ED080A7047EB
:1034200000000000002819D09FED0D0A80ED110A60
:1034300080ED100A80ED0F0A80ED0E0A80ED0D0A76
:1034400080ED0C0A80ED0B0A80ED0A0A80ED090A76
:1034500080ED080A80ED060A80ED070A704700003B
:1034600000000000002828D0002A26D0017092ED2C
:10347000001A80ED011A92ED011A80ED021A92ED08
:10348000021A80ED031A80ED040A9FED0C0AC0EDCC
:10349000050A80ED0E0A80ED0D0A80ED0C0A80ED24
:1034A000080A80ED0B0A80ED0A0A80ED090A80ED1A
:1034B000110A80ED100A80ED0F0A7047000000002D
:1034C00030B5144B1C68656945F0400565611B68A3
:1034D000DC6844F01004DC600F4B1C68256825F0A4
:1034E000010525601C682568ED07F7D11D680B4CA8
:1034F000AC601C68E0601868016118684260186878
:10350000016841F4802101601868016841F00101FF
:10351000016030BDB8030020FC03002004480040D7
:10352000012001F0D7FCFBE710B5FEF7ADFE02F07D
:1035300019FA012803D0BDE8104002F0A5B910BD6A
:1035400030B593B030216846FDF737F814210CA848
:10355000FDF733F81D480025016841F080510160F6
:10356000006800F0805011901948016841F48041D2
:1035700001600068022400F4804011900120039053
:1035800010200490009406940820CDE90750A8204C
:10359000CDE9090404200B906846FEF7FFFF08B14F
:1035A00072B6FEE70CA90F2081E831004FF4A0505D
:1035B0000F904FF48050109005210CA8FEF702FFE9
:1035C000002801D072B6FEE713B030BD403802408B
:1035D000007000400248016841F4700101607047CA
:1035E00088ED00E0F0B50268254C264D264E274FA9
:1035F000274B4FF0804CA04209D0604507D0A8422D
:1036000005D0B04203D0B84201D0984204D122F094
:10361000700E4A6842EA0E02A0421BD0604519D0E3
:10362000A84217D0B04215D0B84213D0984211D05A
:10363000184DA8420ED0184DA8420BD0174DA842E5
:1036400008D0174DA84205D0164DA84202D0164DFD
:10365000A84203D122F44075CA682A434D6922F07A
:1036600080022A4302608A68C2620A688262A042BB
:1036700001D0984201D10969016301214161F0BD86
:10368000000001400004004000080040000C004021
:103690000004014000400140004401400048014056
:1036A00000180040001C00400020004010B501F050
:1036B0001F030121046A99408C430462016A9A4005
:1036C0001143016210BD0000F0B5026A22F0010250
:1036D0000262036A42688469124E24F073050C6822
:1036E0002C4323F002058B682B430D4DA84201D0DB
:1036F000B04205D123F00807CB683B4323F0040315
:10370000A84201D0B04205D14D6922F44072154360
:103710008A692A4342608461496841630362F0BD5B
:103720000000014000040140F0B5026A22F01002DE
:103730000262026A436884690D6824F4E64444EA3C
:1037400005248D6822F0200242EA05120F4D104E2A
:10375000A84201D0B04206D1CF6822F0800242EAEE
:10376000071222F04002A84201D0B04207D14D69B1
:1037700023F4406343EA85038D6943EA850343608C
:103780008461496881630262F0BD0000000001406D
:1037900000040140F0B5026A22F480720262026AFB
:1037A0004368C46922F4007224F073050C68124E59
:1037B0002C438D6842EA05220E4DA84201D0B0424A
:1037C00006D1CF6822F4006242EA072222F4806226
:1037D000A84201D0B04207D14D6923F4405343EAD7
:1037E00005138D6943EA05134360C4614968C163E9
:1037F0000262F0BD000001400004014030B5026AE1
:1038000022F480520262046A4268C3690D6823F49C
:10381000E64343EA05238D6824F4005444EA053462
:10382000084DA84202D0084DA84204D14D6922F4A7
:10383000804242EA85124260C361496801640462C1
:1038400030BD0000000001400004014010B5806B55
:103850000021C185C184FFF714FA10BD01680C3145
:1038600051E8002F22F4907241E80023002BF5D19B
:103870000168143151E8002F22F0010241E80023D1
:10388000002BF5D1016B012909D101680C3151E8F8
:10389000002F22F0100241E80023002BF5D1202157
:1038A00080F83E1000210163704708B590F83E1083
:1038B000222901D0022008BD82684FF480539A4229
:1038C00001D1016921B1816A9A421BD04AB10AE053
:1038D0000268816A5268C2F308020A80816A891C00
:1038E00008E0026972B10268526802F07F020A7051
:1038F000816A491C8162C18D491E0904090CC18578
:1039000003D019E002685268F1E70168CA6822F042
:103910002002CA600168CA6822F48072CA60016825
:103920004A6922F001024A61202180F83E10016BB1
:10393000012903D0FFF78EFB002008BD00210163A1
:1039400001680C3151E8002F22F0100241E80023F9
:10395000002BF5D101680A68D20602D50A684968C9
:103960000091818DFFF78CF9E6E7000070B5044601
:1039700000680169E26821F4405111430161216945
:10398000A068E26908436169114308432168CA6875
:1039900049F20C639A430243CA6020684169A269F4
:1039A00021F440711143416131492068884202D0BD
:1039B0003049884202D1FEF7AFFD01E0FEF79CFDE1
:1039C000E2690023192164253226B2F5004F6268AE
:1039D00028D0A0FB0101930F9200FCF7B2FC014636
:1039E000B0FBF5F06FF01802504301EB800006EBDE
:1039F0000010B0FBF5F000F0F002B1FBF5F002EBC7
:103A00000012B1FBF5F06FF01803584301EB800092
:103A100006EB0010B0FBF5F000F00F002168104439
:103A2000886070BDA0FB010192185B41FCF789FC26
:103A30000146B0FBF5F00201B1FBF5F06FF01803A1
:103A4000584301EB800006EBC000B0FBF5F000F03E
:103A5000F80002EB4002B1FBF5F0584301EB8000A7
:103A600006EBC000B0FBF5F000F00700D6E7000061
:103A700000100140001401400148FFF703B90000A5
:103A800074030020264818B400680168890604D52C
:103A900001684068009018BC704722490968C9064F
:103AA000F9D501684068204A0090106801684FF01D
:103AB00024030C031D49046824F00104046016D497
:103AC00010684468C4F12404A4B20C8043601068F8
:103AD000016841F4002101601068016841F00101B2
:103AE0000160122CD7D1124901F1170015E01468BA
:103AF0006068C0F1240080B2088063600D498B6A61
:103B000023F400238B6211680A6842F001020A6004
:103B10001228C0D1064901F13B0018BC01F042BC9B
:103B2000B803002000480040FC030020A40000204F
:103B30005C44002000600240FEE703B401984100AD
:103B4000009850EAC12018BF04204A0D18BF40F069
:103B5000010040F2FF72B2EB515F08BF40F002007B
:103B6000012808BF052002B070470907090E002888
:103B700004DB00F1E02080F80014704700F00F0033
:103B800000F1E02080F8141D7047000000000000E4
:103B900010B52F499FED2C1B2DED020B84B005981D
:103BA00020F000408842D8BF9DED040B2DDD29494F
:103BB000884209D1049840B94FF00100FCF72DFD6F
:103BC00000F0A2FC06B010BD05DB9DED040B00F07B
:103BD0008FFC06B010BD68469DED040B00F0A0F808
:103BE00010F0030004BF9DED021B9DED000B0CD0F7
:103BF00001280ED09DED021B9DED000B022817D071
:103C0000012000F0DDFB06B010BD00F0A5FA06B003
:103C100010BD9DED021B9DED000B012000F0D0FBBF
:103C200051EC100B01F08AFF06B041EC100B10BDF7
:103C300000F092FA51EC100B01F080FF06B041EC5D
:103C4000100B10BD0000000000000000000000008C
:103C5000FB21E93F0000F07F10B52F499FED2C1BA1
:103C60002DED020B84B0059820F000408842DCBFA7
:103C700000209DED040B32DD2849884209D10498CB
:103C800040B94FF00100FCF7C8FC00F03DFC06B065
:103C900010BD05DB9DED040B00F02AFC06B010BD45
:103CA00068469DED040B00F03BF810F0030011D0C6
:103CB000012818D09DED021B9DED000B02281AD0A3
:103CC00000F04AFA51EC100B01F038FF06B041EC5D
:103CD000100B10BD9DED021B9DED000B012000F0AF
:103CE0006FFB06B010BD9DED021B9DED000B00F0BB
:103CF00033FA06B010BD012000F062FB51EC100B4E
:103D000001F01CFF06B041EC100B10BD00000000DC
:103D10000000000000000000FB21E93F0000F07FF0
:103D20002DE9F14F04462DED020B2DED088B8AB0E5
:103D30009FEDE70B80ED020B139EE74826F0004550
:103D400085420ADC9DED120B002084ED000B0AB0C9
:103D5000BDEC088B03B0BDE8F08FE0489FEDE0AB11
:103D60009FEDE1BBA84247DDE14F9FEDE39B9FED57
:103D7000E48B9DED120B53EC1A2B51EC100B002E23
:103D80001CDD02F0C5FA41EC100BBD4208D053EC2B
:103D90001B2B51EC100B02F0BBFAC4E900010BE045
:103DA00053EC192B51EC100B02F0B2FA53EC182B18
:103DB00002F0AEFAC4E900010120C8E701F0FCFE00
:103DC00041EC100BBD4208D053EC1B2B51EC100BF7
:103DD00001F0F2FEC4E900010BE053EC192B51ECA9
:103DE000100B01F0E9FE53EC182B01F0E5FEC4E9DD
:103DF00000014FF0FF30AAE7C348A84279DB9DEDF0
:103E0000120B51EC100B00F019FE41EC180B9FED5A
:103E1000C00B53EC102B02F071F99FEDBF1B53EC5C
:103E2000112B01F0C9FE02F0D3F8074602F0FFF8AB
:103E300041EC190B53EC1A2B02F060F953EC182BE0
:103E400002F05AFA41EC180B53EC1B2B51EC190BF6
:103E500002F054F9DFF8C8A241EC100B4FEA1558F4
:103E60000125FA4453EC102B51EC180B02F050FAD8
:103E7000032DC4E900013DD0C1F30A5005EB451103
:103E8000A8EB00001139814234DA0AEB051BB0EED1
:103E900048AA9BED000BF0EE68AA53EC102B51ECF6
:103EA000190B02F02BF941EC1B0B51EC1A0B53ECE4
:103EB0001B2B02F02DFA41EC180B51EC1A0B53ECB2
:103EC000182B02F025FA53EC1B2B02F021FA9BED84
:103ED000020B41EC1A0B53EC102B51EC190B02F0B6
:103EE0000DF953EC1A2B02F013FA41EC100B6D1C78
:103EF000B8E70EE0002EA8BF3846BFF628AF94ED15
:103F0000000B51EC100B01F019FEC4E900017842DE
:103F10001DE7C6F3130040F4801EC6F30A50A0F25A
:103F2000F530471100F01F05C5F12000DDF848B05D
:103F300008900020069007900520EC467949002D56
:103F400007EB0002794408BF51F8221009D051F85C
:103F5000223001EB8201AB404A68089922FA01F154
:103F60001943A1FB0E26A1FB0B131A449A4234BF3E
:103F70000123002303EB06080CEB8003D3E901A621
:103F80000E448E4234BF0121002192448A4411B173
:103F9000924502D903E0924501D2012100E00021BF
:103FA000C3E901A641444CF82010011EA0F1010014
:103FB000C4DC029800F10050850F0298DDE9036728
:103FC0008000DDF8148002F032F841EC1A0B304624
:103FD00002F044F89FED541B53EC112B02F08EF8C5
:103FE00041EC1B0B384602F039F89FED511B53ECA6
:103FF000112B02F083F841EC180B404602F02EF82A
:104000009FED4D1B53EC112B02F078F841EC190B8E
:1040100051EC180B53EC192B01F0CEFD53EC1B2B7C
:1040200001F0CAFD53EC1A2B01F0C6FDCDE90801E1
:10403000002008909DED080B53EC1A2B51EC100B4F
:1040400002F066F953EC1B2B02F062F953EC182BCB
:1040500002F05EF953EC192B02F04EF99FED381B7C
:1040600053EC112B02F04AF89FED370B41EC180B83
:1040700053EC102B9DED080B51EC100B02F03EF8A9
:1040800053EC182B01F098FD9FED310B41EC180B10
:1040900053EC102B9DED080B51EC100B02F02EF899
:1040A00053EC182B01F088FD41EC100B139810F025
:1040B000004F06D06D4251EC100B01F03FFD41EC7A
:1040C000100B284684ED000B41E6000000000000C4
:1040D0000000000000000000FB21E93F7CD9024005
:1040E00000004054FB21F93F3163621A61B4D03DB6
:1040F000FB21F93F000000000000601A61B4D03DD0
:104100007370032E8A19A33BFB2139410000000084
:1041100083C8C96D305FE43F000000000000E03F4D
:104120007A280000C8270000000000000000103EB0
:10413000000000000000103C000000000000103AE9
:10414000182D4454FB21F93D3326A611460B113C92
:1041500000000054FB21F93D10B52DED040B2DEDB1
:10416000088B82B0B0EE419AF0EE619A0B9820F085
:1041700000449FED4BABB4F1795F11DA9DED0A0B72
:1041800051EC100B01F024FF002801BFB0EE4A0AE9
:10419000F0EE6A0A02B0BDEC088B04BF04B010BD9B
:1041A0009DED0A0B53EC102B51EC100B01F0A6FF08
:1041B00041EC180B3C480621B0EE480AF0EE680AC4
:1041C000784400F081F853EC182B51EC100B01F0FF
:1041D00095FF9DED0A0B41EC1B0B53EC192B51EC99
:1041E000100B01F08BFF41EC190B53EC1B2B51EC26
:1041F000180B01F083FF53EC192B02F089F89FEDA7
:104200002C0B41EC190B53EC102B51EC180B01F05B
:1042100075FF41EC100B2848844210DA53EC192B3F
:1042200051EC100B02F074F853EC1A2B02F064F806
:1042300041EC100B02B0BDEC088B04B010BD1F4860
:10424000A042BCBF9FED1E1B8DED001B06DBA4F53D
:1042500000100190002000909DED001B51EC100B10
:1042600053EC112B02F054F89DED000B41EC180BB0
:1042700053EC102B51EC1A0B02F04AF841EC1A0BDC
:1042800053EC192B51EC180B02F042F853EC1A2B9B
:1042900002F032F841EC100BCCE700000000000007
:1042A000000000000000F03FEC24000000000000CF
:1042B000000000000000E03F3333D33F0000E93F3F
:1042C000000000000000D23F70B504462DED028BC7
:1042D0004D1E00EBC500B0EE408AF0EE608A90ED16
:1042E000000B35F0060017D053EC182B51EC100BD7
:1042F00001F004FF41EC100B6D1E04EBC50090EDC6
:10430000001B51EC100B53EC112B01F055FC41EC50
:10431000100B35F00600E7D1022D36D0042D1CD04D
:10432000062D1CBFBDEC028B70BD53EC182B51EC5D
:10433000100B01F0E3FE94ED0A1B53EC112B01F07E
:104340003BFC53EC182B01F0D9FE94ED081B53EC09
:10435000112B01F031FC41EC100B53EC182B51ECFC
:10436000100B01F0CBFE94ED061B53EC112B01F06A
:1043700023FC53EC182B01F0C1FE94ED040B53EC1D
:10438000102B01F019FC41EC100B53EC182B51ECE5
:10439000100B01F0B3FE94ED021B53EC112B01F056
:1043A0000BFC53EC182B01F0A9FE94ED001B53EC11
:1043B000112B01F001FCBDEC028B41EC100B70BD28
:1043C00031B504462DED040B2DED0A8BB0EE41BA4C
:1043D000F0EE61BA0B989DED0A0B20F00040B0F1B1
:1043E000795F0DDA51EC100BFFF7A7FB042808BF2B
:1043F00000F09AF89DED0A0BBDEC0A8B05B030BDBC
:1044000053EC102B51EC100B01F078FE41EC180B23
:104410009DED0A0B53EC182B51EC100B01F06EFEC6
:1044200041EC190B2C48B0EE480AF0EE680A052161
:104430007844FFF749FF9FED2ACBB0EE40AAF0EE9B
:1044400060AA9CB353EC1C2B51EC190B01F056FEE7
:1044500041EC1C0B53EC1A2B51EC190B01F04EFEE6
:104460009FED210B41EC190B53EC102B51EC1B0B66
:1044700001F044FE53EC192B01F04AFF53EC182BCA
:1044800001F03CFE53EC1B2B01F042FF53EC1C2BC4
:1044900001F03EFF9DED0A1B53EC112B01F02CFFA8
:1044A000BDEC0A8B05B041EC100B30BDFFE753ECBF
:1044B0001A2B51EC180B01F021FE53EC1C2B01F0D0
:1044C0007BFB53EC192B01F019FE9DED0A1B53ECFD
:1044D000112B01F071FBE3E77423000000000000E2
:1044E000495555555555C5BF000000000000E03F37
:1044F00010B553EC102B51EC100B01F05DFB41ECAF
:10450000100B10BD000000009FED050B10B553EC23
:10451000102B51EC100B01F003FC41EC100B10BD03
:1045200000000000000000009FED050B10B553ECEB
:10453000102B51EC100B01F0E1FD41EC100B10BD04
:10454000000000000000001030380A2801D20120CD
:104550007047002070477047D0ED000AF4EEC00AA3
:10456000F1EE10FA06DCB1EE400AF4EEC00AF1EE0C
:1045700010FA01D280ED000A704710B5040023D074
:104580006068D4ED040AB0F9020000EE100A04F1EC
:104590006C00B8EEC01A94ED030A00F079FA84EDCD
:1045A0002A0A6068F0EE400AB0F9020000EE100A34
:1045B00004F11C00B8EEC00AFEF7A0FEBDEEC00A72
:1045C00010EE100AA4F8AC0010BD00002DE9FF4168
:1045D00004460020009001900290039004F5F871C9
:1045E000684691EC030A00F0BDF9207A6E4650B996
:1045F0009FED130A002000BF06EB8001401C81EDF7
:10460000000A0428F8DB002506EB8500D0ED000A3F
:1046100005EB850004EB800704EB0010C7ED060AEC
:1046200097ED050A5C30FEF769FEBDEEC00A6D1C11
:10463000042D10EE100AB883E6DBBDE8FF81000010
:104640000000000000B58BB000200121CDE906017B
:1046500008910090019002900390059004906946A3
:104660000548FDF74DF80448FDF742FB02210248DA
:10467000FCF7CFFF0BB000BD0403002010B50446CB
:104680002DED048B007A022846D16068DFED249A74
:1046900094ED7C9A90ED020AD4ED7D8AB1EE400A49
:1046A00010EE100A01F01EFF41EC100BFFF7D4FAD8
:1046B00051EC100B01F04EFA08EE100A606890ED14
:1046C000020AB1EE400A10EE100A01F00BFF41ECB5
:1046D000100BFFF75DFA51EC100B01F03BFA00EE06
:1046E000100A60EE090A20EE280A48EE280A08EEB1
:1046F000490AC4ED7C0A84ED7D0AF0EE690AC4ED36
:104700007B0A606890ED020A04F5CE70FEF7F6FDB4
:10471000B1EE400A84ED7E0ABDEC048B10BD0000B2
:104720000000000010B50446007A012803D030B123
:10473000022808D00AE0204600F034F906E02046BE
:1047400000F0E2F802E0204600F03AF8D4ED060A64
:1047500094ED050A9FED051A00F03CF92046FFF79D
:104760008DFF2046BDE81040FFF730BF000000007D
:1047700010B500281ED000219FED0F0A9FED0F1AE3
:1047800001EB810300EB830200EB0313D468491CA7
:104790000429B4F9024000EE904AF8EEE00A60EE17
:1047A000800AC2ED050AD3ED230A60EE810AC2ED4C
:1047B000040AE5DB10BD00000A01DA390000FA4303
:1047C00000280BD00268917A012908D0DFED130A86
:1047D000B0EE600AC0ED7C0A80ED7D0A7047B2F948
:1047E000021001F10A03152B00D20021B2F90020BA
:1047F00002F10A03152B00D2002200EE101ADFEDA1
:10480000080A9FED081AB8EEC00A60EE200A00EE12
:10481000102AB8EEC00A20EE010ADBE70000000013
:10482000A69BC4BB0AD7A3BB70B504002DED028BB9
:104830003DD00120207200F01FF9206000F024F923
:104840009FED1C0A606084ED7C0A84ED7D0A9FED7B
:104850001A8ADFED1A8A84ED7E0A0025E8B200F09C
:1048600003F9014605EB850004EB800204EB001020
:10487000D160F0EE480AB0EE680A114A00215C30BF
:10488000FEF7F0FD6D1C042DE8DB0D4ADFED0D0A8F
:10489000B1EE080A0C32002104F5CE70FEF7E2FDFD
:1048A000BDEC028B2046BDE87040FFF761BFBDEC58
:1048B000028B70BD000000000000FA4400007A4640
:1048C0008C660008CDCC4C3E00280CD0427A017A90
:1048D0008A4208D0022A05D0022903D19FED020A9C
:1048E00080ED7B0A4172704700000000002807D06D
:1048F0000168897A022904D0012901D102210172BB
:1049000070470021FBE70000002807D09FED040A54
:1049100080ED7C0A80ED7D0A80ED7E0A7047000004
:10492000000000000E48FFF77FFF0D4C0C48FFF71A
:10493000DDFF0B48FFF7C8FF0948FFF719FF0848DC
:10494000FFF7F0FEB4F95830B4F94420B4F9301050
:10495000B4F91C00FCF7D2FD022000F089FEE5E767
:10496000B0410020F1EE401A31EEE02ADFED0C1AE2
:1049700001EE212A80ED002A30EE602A01EE212A84
:1049800080ED012A30EE202A30EEC00A01EE212A05
:1049900001EE210A80ED022A80ED030A7047000033
:1049A000CDCCCCBE002811D000219FED090A0A46CB
:1049B00080ED7C0A80ED7D0A80ED7E0A01EB8103AB
:1049C00000EB8303491C9A830429F7DB704700003E
:1049D00000000000F0B52DED028B85B0B0EE608ACE
:1049E000F0EE408A11EE100A01F07CFD06460F46FB
:1049F00018EE100A01F076FD04460D4618EE900AF6
:104A000001F070FD8DE8F00041EC100B04A053ECB8
:104A1000102BFBF70DFD05B0BDEC028BF0BD0000C7
:104A20007B706C6F747465727D252E34662C202526
:104A30002E34662C20252E34660A000082B0CDE983
:104A4000000121F0004001909DED000B02B051ECFF
:104A5000100B704703490A685206FCD5C2B24A607F
:104A60007047000000100140024900EB800001EB9C
:104A7000400070474C410020004870475C440020D3
:104A8000004870477441002000487047B043002040
:104A900000B5B0EE412A01003CD081ED040AC1ED21
:104AA000030A30EEC00A9FED1D1ADFED1D0A00F06B
:104AB000C7F981ED050AD1ED000A01F12C0060EE85
:104AC000800AC1ED0A0AD1ED0B0A91ED011A41EEFF
:104AD000000AC1ED0B0A91ED020A20EE020A81EDF7
:104AE0000C0A91ED080AFFF737FD91ED0A0AD1EDA6
:104AF0000B0A01F1340030EE200AD1ED0C0A30EE41
:104B0000200A81ED0D0A91ED070AFFF725FD91EDD1
:104B10000D0A00BD9FED030A00BD0000DB0F4940F8
:104B2000DB0F49C000000000002811D09FED090AEA
:104B300080ED040A80ED030A80ED050A80ED060A87
:104B400080ED0C0A80ED0B0A80ED0A0A80ED0D0A5B
:104B5000704700000000000000280BD080EC031A12
:104B60009FED051A80ED051A80ED041AC0ED080AC4
:104B700080ED070A704700000000000000280CD0FC
:104B8000017A012905D0022905D0002905D100F0BC
:104B9000B5B800F01DB900F001B8704710B50400B9
:104BA00028D02068817A012908D09FED130A84ED6E
:104BB000040A2046BDE81040FFF7DFBCB0F904103E
:104BC0000E4801F10A02152A00D20021018008B224
:104BD00001F02DFA9FED0A1B53EC112B01F08EFA18
:104BE0009FED091B53EC112B01F09AF800F0B2FF76
:104BF0002061DEE710BD000000000000A2000020E0
:104C00001F85EB51B81EF9BF0000000000A08440D2
:104C1000002818D041680A884189511AB1F5805F8F
:104C200002DDA1F5005104E011F5805F01DA01F524
:104C3000005100EE101ADFED040AB8EEC00A20EEB3
:104C4000200A80ED030A7047DB0F493A70B504462D
:104C5000FFF716FF606040F2A3209FED200A6081FD
:104C600084ED050A9FED1E0A84ED060AFFF704FF96
:104C700020600120DFED1B0A2072607204F16C00DD
:104C8000B0EE602AF0EE601A9FED171A9FED170A3A
:104C90000546FFF761FF04F11C00DFED150A9FEDEB
:104CA000150A154A00210646FEF7DCFB2846FFF7E9
:104CB0003BFF3046FEF7B6FB2046FFF7A9FF94ED19
:104CC000030A84ED040A6068B0F9020000EE100ADD
:104CD000B8EEC00A84ED2A0A70BD0000DB0F49401F
:104CE000DB0F49C000000000000048430000704294
:104CF00000409C450060EA46A4660008002805D0F4
:104D00009FED030A80ED040AFFF737BC70470000EF
:104D100000000000002809D0017A022906D1417A5A
:104D2000022903D090ED030A80ED040A70470000C9
:104D300070B5040028D020680225807A012807D0A9
:104D400001202072607A0128207A06D048B119E04B
:104D5000207A0028F6D02572F4E7012812D000202E
:104D60002072E06801F0BEFB00EE100A9FED071B09
:104D700021F0004110EE100A53EC112B01F082F9E2
:104D800000D22572207A607270BD0000000000A081
:104D90009999B93F0D48FFF759FF0C4C00F0F0FB13
:104DA0000A48FFF7C5FF00F00BFC0848FFF7B2FF09
:104DB0000648FFF72DFF0548FFF7E0FEB4F9AC0009
:104DC000FCF7C0FB022000F053FCE7E7AC430020F7
:104DD000002802D00021A0F8AC107047817A012988
:104DE00005D000224FF480710448FDF741BAC07A23
:104DF000012801D100F004B870470000000802400B
:104E000070B50122094D140221462846FDF730FAFB
:104E1000C82000F02DFC002221462846FDF728FA84
:104E2000BDE87040C82000F023BC0000000802402C
:104E3000FFF722FEFFF7D2FF022000F019FCF7E790
:104E4000B4EEE01AF1EE10FA0FD371EE601AB4EE80
:104E5000C10AF1EE10FA03DC08E000BF30EE610A8F
:104E6000B4EEC10AF1EE10FAF8DC7047B4EEE00AD5
:104E7000F1EE10FA02D3704730EE210AB4EEE00AE8
:104E8000F1EE10FAF8D37047FDF706FAFEF758FB7B
:104E9000FEF75CF9FEF704F9FEF7E0F8FEF70CFA0E
:104EA000FEF7EEF9FEF79AF9FFF7CCFB00F072FA85
:104EB00000210448FDF780FEFEF708F900F011F824
:104EC000FEE700002C03002001460020842900D0CA
:104ED000C81C704710B500B9012000F0C9FB0020C4
:104EE00010BD10B500F0EAFB002010BD7FB50D46E7
:104EF00004464169B0F9080081B1A16971B1FFF7B9
:104F0000E3FFD4E905128DE80700D4E900102B4631
:104F1000226900F0FCFC039004B070BDFFF7D4FFE1
:104F200003A9CDE90001208A2B4682B2D4E9001002
:104F300000F0C0FC012801D00020EDE70398EBE76A
:104F40002DE9F041184C0F460546E6682068001D23
:104F500000F0C6FA38B9206890F82C10012088407B
:104F6000216981432161681C07D137B12168BDE8FF
:104F7000F0410E48091D00F0F7BA20683544B542EB
:104F80004560216805D2A06BBDE8F041091D00F025
:104F9000D3BA606B091D00F0CFFAA06A854200D237
:104FA000A562BDE8F081000028000020380500203F
:104FB0002DE9F041054600F0E3FA2E4CA068401CB4
:104FC000A06020682C4F10B1606940B32DE02560CF
:104FD000A068012829D1002606EB860007EB800097
:104FE00000F09CFA761C072EF6D323488C3000F094
:104FF00095FA2148A03000F091FA1F48B43000F033
:105000008DFA1D48C83000F089FA1B48DC3000F0EA
:1050100085FA19488C3060631430A06305E020687D
:10502000E96AC06A884200D82560606A401C6062F4
:10503000E96A0120226988401043206101EB810068
:1050400007EB8000291D00F08FFA00F0B9FA6069C3
:1050500000280CD02068E96AC06A884207D2074954
:105060004FF080500860BFF34F8FBFF36F8FBDE8E4
:10507000F0810000280000205C04002004ED00E026
:1050800010B5044690F8510058B101280CD0022800
:105090000FD0502080F31188BFF34F8FBFF36F8F75
:1050A000FEE7206B00F0A0FA2046BDE8104000F0BB
:1050B0009BBA10BD10484FF47051420706D0C01D76
:1050C0000D4920F00700411AC1F570510B4A002329
:1050D0000144C2E900030839183A21F007011160C0
:1050E0004B600B600B1AC0E9001393604FF0004057
:1050F00053605061704700004C0500207C00002088
:10510000144E154CA6F1C8074FF08058DFF84C90AC
:1051100012E000BF00F034FAF068C568281D00F006
:10512000DFF9A068401EA0606068401E606000F06B
:1051300047FA2846FFF7A4FF60680028EAD13868DC
:105140000128F9D9C9F80080BFF34F8FBFF36F8FE3
:10515000F2E70000240500202800002004ED00E014
:105160002DE9F0479A46DDE9098481466FF0030393
:10517000206B03EB82021044089E20F0070778079B
:1051800007D0502080F31188BFF34F8FBFF36F8F8C
:10519000FEE7002561B1002023180A5C83F8342063
:1051A0000A5C12B1401C1028F6D384F8435001E089
:1051B00084F83450072E00D30626E662C4E9116550
:1051C000201D00F0B6F904F1180000F0B2F92461D6
:1051D000C6F107006462A061E56484F8505052464D
:1051E0004946384600F0C0F82060B8F1000F01D001
:1051F000C8F80040BDE8F08730B5114900E011461D
:105200000A688242FBD34B685C18844203D1406831
:1052100018444860084643681C18944209D1084C59
:10522000183C2468A24209D052681A4442600A68B5
:1052300012680260814200D0086030BD0460F9E766
:105240007C0000200648416B096829B1416BC968A0
:10525000C9684968816270474FF0FF31FAE7000082
:105260002800002008484068401C4FF0500080F3A0
:10527000118804D0BFF34F8FBFF36F8FFEE7BFF3EA
:105280004F8FBFF36F8FFEE7840000202DE9F041C0
:105290000546002700F048FA324E306808B9FFF79B
:1052A00009FF706905424ED1C5B3083568070ED0B5
:1052B00005F00700C0F108000544680707D050203A
:1052C00080F31188BFF34F8FBFF36F8FFEE72DB3CD
:1052D0007068854237D82348183001460C6801E0D1
:1052E00020460C466168A94202D221680029F7D104
:1052F00031688C4227D007682168016060680837F0
:10530000411B10290FD96019420708D0502080F3A3
:105310001188BFF34F8FBFF36F8FFEE713E041603B
:105320006560FFF769FF61687068401A7060B26875
:10533000904200D2B060706901430020C4E90001CE
:10534000F068401CF06000F081FB780707D0502027
:1053500080F31188BFF34F8FBFF36F8FFEE738469E
:10536000BDE8F0816400002010B5031F4FF0807489
:105370001C601B1F21F001011960191F044B0B60F9
:1053800014390A60091F6FF0020244380A6010BD28
:105390006552000802492422A1F12400FEF790B8CA
:1053A00097440020F0B5002855D0002953D002784A
:1053B000437842EA0322C2F30A020A8043788478DF
:1053C000DB0843EA4413C3F30A034B808478C578AF
:1053D000A40944EA8504057944EA8524C4F30A044F
:1053E0008C80057946796D0845EAC615C5F30A052E
:1053F000CD804679C6F301168E724679B609CE7213
:105400008679C77946EA07268E81067A477A46EA80
:105410000726CE81867AC77A46EA07260E82067B61
:105420008E74467BCE74867BC77B46EA07268E82C7
:10543000067C407CA2F580620A80A3F580634B80E5
:10544000A4F5806446EA00208C80A5F58065CD80B7
:10545000A0F580600881F0BD1449837A0A68012BA9
:1054600001D01E2020E0B0F906009FED111A00EED9
:10547000100A1048B8EEC00AC0EE010A90ED000A0A
:10548000B1EE041AB8EEC00A00EE810ABDEEC00A01
:1054900010EE101A0160372901DB372102E00529DF
:1054A00001DC052101600846506370472C03002091
:1054B0000000A544A8000020074C08491E202060D9
:1054C00009684863FFF7D8FA6060FFF7C5FF02205C
:1054D00000F0CEF8F6E70000A80000202C03002022
:1054E000D0E9013201699A60D0E901235A604A6823
:1054F000824201D182684A60002202610868401E2F
:105500000860086870470000034B036003F1540013
:105510000860802010607047B000002000F1080192
:105520004FF0FF32C0E90112C1600161002101604A
:10553000704700210161704730B50B685A1C02D0DA
:1055400000F1080202E0026904E02246546825687E
:105550009D42FAD953684B6099608A605160086136
:105560000168491C016030BD42684A6093688B60E5
:1055700093685960916008610168491C0160704737
:10558000502080F31188BFF34F8FBFF36F8F0A490C
:105590004868401C486001280CD10848006810F099
:1055A000FF0F07D0502080F31188BFF34F8FBFF358
:1055B0006F8FFEE7704700008400002004ED00E0DC
:1055C0000849486828B1401E486001D180F311881D
:1055D0007047502080F31188BFF34F8FBFF36F8F58
:1055E000FEE700008400002070B500282AD0164D88
:1055F000A0F1080460686969084207D1502080F36F
:105600001188BFF34F8FBFF36F8FFEE722683AB167
:10561000502080F31188BFF34F8FBFF36F8FFEE7E9
:105620008843606000F080F86068696808446860DA
:105630002046FFF7E1FD2869401C2861BDE8704065
:1056400000F004BA70BD0000640000204FF0E020BC
:1056500000210161816105494FF47A720968B1FB4B
:10566000F2F1491E416107210161704724000020C9
:1056700010B5020014D00F48006B38B1502080F3F1
:105680001188BFF34F8FBFF36F8FFEE700F04CF828
:1056900000211046FFF754FC00F0D8F9002807D18C
:1056A00005494FF080500860BFF34F8FBFF36F8FF5
:1056B00010BD00002800002004ED00E010B586B009
:1056C0000024039405AA04A903A80494FFF71CFF6F
:1056D000DDE903010094CDE9011000230EA110487B
:1056E000059A00F014F90F490028C86211D0502023
:1056F00080F31188BFF34F8FBFF36F8F4FF0FF30F0
:10570000886201204861CC6006B0BDE8104000F01E
:1057100041B806B010BD000049444C4500000000EF
:1057200001510008280000200248016B491C016358
:1057300070470000280000201448016B11B10121BE
:10574000C16170470021C1610169B1FA81F1C1F104
:105750001F0101EB81020E4951F822306BB101EBC0
:10576000820101F108034A6852684A609A4201D1F5
:1057700052684A60D16801607047502080F31188F8
:10578000BFF34F8FBFF36F8FFEE7000028000020AC
:105790005C0400201CB537480168374A914207D1A4
:1057A000502080F31188BFF34F8FBFF36F8FFEE758
:1057B00000683149491E884207D1502080F3118882
:1057C000BFF34F8FBFF36F8FFEE72C49087801902E
:1057D000FF20087008788DF800009DF800009DF803
:1057E000002000F0F000904207D0502080F3118894
:1057F000BFF34F8FBFF36F8FFEE79DF80000204C83
:1058000000F0500020700720A06005E09DF8002007
:1058100052008DF80020401E9DF800201206F5D49D
:10582000A060032807D0502080F31188BFF34F8F6A
:10583000BFF36F8FFEE74FF44070A06001980870CF
:105840000C482030016841F470010160016841F0AA
:1058500070410160FFF7FAFE00206060FAF714FD66
:105860000848016841F040410160FAF7F9FC002066
:105870001CBD000000ED00E071C20F4100E400E03B
:105880008400002034EF00E010B5502080F3118830
:10589000BFF34F8FBFF36F8F00F072F818B1044958
:1058A0004FF080500860002080F3118810BD000088
:1058B00004ED00E02DE9FF5F8346DDE90E879946A0
:1058C00016468A469000FFF7E1FC05001CD05420E4
:1058D000FFF7DCFC040014D00020256384F851009D
:1058E000CDE90240CDE900874B4632465146584645
:1058F000FFF736FC2046FFF75BFB012004B0BDE854
:10590000F09F2846FFF770FE4FF0FF30F6E7F0B546
:1059100085B0DDE90B640A9DA6B1DCB15427009780
:105920002663022684F85160002604AFCDE90246C2
:10593000CDE90057FFF714FC2046FFF739FB049828
:1059400005B0F0BD502080F31188BFF34F8FBFF337
:105950006F8FFEE7502080F31188BFF34F8FBFF3A6
:105960006F8FFEE70548416919B1006B18B100203F
:105970007047012070470220704700002800002077
:105980002DE9F0412F4C0026206B28B1A069401C66
:10599000A0613046BDE8F081E5686D1CE56013D17B
:1059A000606B006838B1502080F31188BFF34F8FCF
:1059B000BFF36F8FFEE7606BA16B6163A063206A2A
:1059C000401C2062FFF73EFCA06ADFF87C80854225
:1059D00009D3606B0068A0B1606BC068C768786865
:1059E000854211D2A0622068C06A00EB800158F89D
:1059F0002100012800D90126E0690028C9D001262C
:105A0000C7E74FF0FF30EDE7381DFFF769FDB86AD3
:105A100018B107F11800FFF763FDF96A0120226948
:105A200088401043206101EB810108EB8100391DA2
:105A3000FFF79AFDF86A2168C96A8842C9D301262E
:105A4000C7E70000280000205C0400202DE9F04793
:105A50002C4D00242746286B38B1FFF791FD286BA9
:105A6000401E2863286B40B146E0502080F3118827
:105A7000BFF34F8FBFF36F8FFEE7A968224E01205F
:105A8000D1B3A6F1B40980463068E8B1F068C468C3
:105A900004F11800FFF724FD201DFFF721FDE06A47
:105AA0002A6908FA00F11143296100EB800109EB32
:105AB0008100211DFFF758FDE06A2968C96A884204
:105AC000E2D3C5F81C80DFE70CB1FFF7BBFBAC6984
:105AD00044B14646FFF754FF00B1EE61641EF9D1B0
